{
  "_format": "hh-sol-artifact-1",
  "contractName": "Thousandx",
  "sourceName": "contracts/Thousandx.sol",
  "abi": [
    {
      "inputs": [
        {
          "internalType": "address",
          "name": "_owner",
          "type": "address"
        }
      ],
      "stateMutability": "nonpayable",
      "type": "constructor"
    },
    {
      "anonymous": false,
      "inputs": [
        {
          "indexed": true,
          "internalType": "address",
          "name": "owner",
          "type": "address"
        },
        {
          "indexed": true,
          "internalType": "address",
          "name": "spender",
          "type": "address"
        },
        {
          "indexed": false,
          "internalType": "uint256",
          "name": "value",
          "type": "uint256"
        }
      ],
      "name": "Approval",
      "type": "event"
    },
    {
      "anonymous": false,
      "inputs": [
        {
          "indexed": true,
          "internalType": "address",
          "name": "previousOwner",
          "type": "address"
        },
        {
          "indexed": true,
          "internalType": "address",
          "name": "newOwner",
          "type": "address"
        }
      ],
      "name": "OwnershipTransferred",
      "type": "event"
    },
    {
      "anonymous": false,
      "inputs": [
        {
          "indexed": true,
          "internalType": "address",
          "name": "from",
          "type": "address"
        },
        {
          "indexed": true,
          "internalType": "address",
          "name": "to",
          "type": "address"
        },
        {
          "indexed": false,
          "internalType": "uint256",
          "name": "value",
          "type": "uint256"
        }
      ],
      "name": "Transfer",
      "type": "event"
    },
    {
      "inputs": [
        {
          "internalType": "address",
          "name": "owner",
          "type": "address"
        },
        {
          "internalType": "address",
          "name": "spender",
          "type": "address"
        }
      ],
      "name": "allowance",
      "outputs": [
        {
          "internalType": "uint256",
          "name": "",
          "type": "uint256"
        }
      ],
      "stateMutability": "view",
      "type": "function"
    },
    {
      "inputs": [
        {
          "internalType": "address",
          "name": "spender",
          "type": "address"
        },
        {
          "internalType": "uint256",
          "name": "amount",
          "type": "uint256"
        }
      ],
      "name": "approve",
      "outputs": [
        {
          "internalType": "bool",
          "name": "",
          "type": "bool"
        }
      ],
      "stateMutability": "nonpayable",
      "type": "function"
    },
    {
      "inputs": [
        {
          "internalType": "address",
          "name": "account",
          "type": "address"
        }
      ],
      "name": "balanceOf",
      "outputs": [
        {
          "internalType": "uint256",
          "name": "",
          "type": "uint256"
        }
      ],
      "stateMutability": "view",
      "type": "function"
    },
    {
      "inputs": [],
      "name": "decimals",
      "outputs": [
        {
          "internalType": "uint8",
          "name": "",
          "type": "uint8"
        }
      ],
      "stateMutability": "pure",
      "type": "function"
    },
    {
      "inputs": [
        {
          "internalType": "address",
          "name": "spender",
          "type": "address"
        },
        {
          "internalType": "uint256",
          "name": "subtractedValue",
          "type": "uint256"
        }
      ],
      "name": "decreaseAllowance",
      "outputs": [
        {
          "internalType": "bool",
          "name": "",
          "type": "bool"
        }
      ],
      "stateMutability": "nonpayable",
      "type": "function"
    },
    {
      "inputs": [
        {
          "internalType": "uint256",
          "name": "tAmount",
          "type": "uint256"
        }
      ],
      "name": "deliver",
      "outputs": [],
      "stateMutability": "nonpayable",
      "type": "function"
    },
    {
      "inputs": [
        {
          "internalType": "address",
          "name": "account",
          "type": "address"
        }
      ],
      "name": "excludeAccount",
      "outputs": [],
      "stateMutability": "nonpayable",
      "type": "function"
    },
    {
      "inputs": [
        {
          "internalType": "address",
          "name": "account",
          "type": "address"
        }
      ],
      "name": "includeAccount",
      "outputs": [],
      "stateMutability": "nonpayable",
      "type": "function"
    },
    {
      "inputs": [
        {
          "internalType": "address",
          "name": "spender",
          "type": "address"
        },
        {
          "internalType": "uint256",
          "name": "addedValue",
          "type": "uint256"
        }
      ],
      "name": "increaseAllowance",
      "outputs": [
        {
          "internalType": "bool",
          "name": "",
          "type": "bool"
        }
      ],
      "stateMutability": "nonpayable",
      "type": "function"
    },
    {
      "inputs": [
        {
          "internalType": "address",
          "name": "account",
          "type": "address"
        }
      ],
      "name": "isExcluded",
      "outputs": [
        {
          "internalType": "bool",
          "name": "",
          "type": "bool"
        }
      ],
      "stateMutability": "view",
      "type": "function"
    },
    {
      "inputs": [
        {
          "internalType": "address",
          "name": "account",
          "type": "address"
        }
      ],
      "name": "isWinWallet",
      "outputs": [
        {
          "internalType": "bool",
          "name": "",
          "type": "bool"
        }
      ],
      "stateMutability": "view",
      "type": "function"
    },
    {
      "inputs": [],
      "name": "name",
      "outputs": [
        {
          "internalType": "string",
          "name": "",
          "type": "string"
        }
      ],
      "stateMutability": "pure",
      "type": "function"
    },
    {
      "inputs": [],
      "name": "owner",
      "outputs": [
        {
          "internalType": "address",
          "name": "",
          "type": "address"
        }
      ],
      "stateMutability": "view",
      "type": "function"
    },
    {
      "inputs": [
        {
          "internalType": "uint256",
          "name": "tAmount",
          "type": "uint256"
        },
        {
          "internalType": "bool",
          "name": "deductTransferFee",
          "type": "bool"
        }
      ],
      "name": "reflectionFromToken",
      "outputs": [
        {
          "internalType": "uint256",
          "name": "",
          "type": "uint256"
        }
      ],
      "stateMutability": "view",
      "type": "function"
    },
    {
      "inputs": [],
      "name": "renounceOwnership",
      "outputs": [],
      "stateMutability": "nonpayable",
      "type": "function"
    },
    {
      "inputs": [
        {
          "internalType": "address",
          "name": "account",
          "type": "address"
        }
      ],
      "name": "setWinWallet",
      "outputs": [],
      "stateMutability": "nonpayable",
      "type": "function"
    },
    {
      "inputs": [],
      "name": "symbol",
      "outputs": [
        {
          "internalType": "string",
          "name": "",
          "type": "string"
        }
      ],
      "stateMutability": "pure",
      "type": "function"
    },
    {
      "inputs": [
        {
          "internalType": "uint256",
          "name": "rAmount",
          "type": "uint256"
        }
      ],
      "name": "tokenFromReflection",
      "outputs": [
        {
          "internalType": "uint256",
          "name": "",
          "type": "uint256"
        }
      ],
      "stateMutability": "view",
      "type": "function"
    },
    {
      "inputs": [],
      "name": "totalBurn",
      "outputs": [
        {
          "internalType": "uint256",
          "name": "",
          "type": "uint256"
        }
      ],
      "stateMutability": "view",
      "type": "function"
    },
    {
      "inputs": [],
      "name": "totalFees",
      "outputs": [
        {
          "internalType": "uint256",
          "name": "",
          "type": "uint256"
        }
      ],
      "stateMutability": "view",
      "type": "function"
    },
    {
      "inputs": [],
      "name": "totalSupply",
      "outputs": [
        {
          "internalType": "uint256",
          "name": "",
          "type": "uint256"
        }
      ],
      "stateMutability": "view",
      "type": "function"
    },
    {
      "inputs": [],
      "name": "totalWinWallet",
      "outputs": [
        {
          "internalType": "uint256",
          "name": "",
          "type": "uint256"
        }
      ],
      "stateMutability": "view",
      "type": "function"
    },
    {
      "inputs": [
        {
          "internalType": "address",
          "name": "recipient",
          "type": "address"
        },
        {
          "internalType": "uint256",
          "name": "amount",
          "type": "uint256"
        }
      ],
      "name": "transfer",
      "outputs": [
        {
          "internalType": "bool",
          "name": "",
          "type": "bool"
        }
      ],
      "stateMutability": "nonpayable",
      "type": "function"
    },
    {
      "inputs": [
        {
          "internalType": "address",
          "name": "sender",
          "type": "address"
        },
        {
          "internalType": "address",
          "name": "recipient",
          "type": "address"
        },
        {
          "internalType": "uint256",
          "name": "amount",
          "type": "uint256"
        }
      ],
      "name": "transferFrom",
      "outputs": [
        {
          "internalType": "bool",
          "name": "",
          "type": "bool"
        }
      ],
      "stateMutability": "nonpayable",
      "type": "function"
    },
    {
      "inputs": [
        {
          "internalType": "address",
          "name": "newOwner",
          "type": "address"
        }
      ],
      "name": "transferOwnership",
      "outputs": [],
      "stateMutability": "nonpayable",
      "type": "function"
    }
  ],
  "bytecode": "0x6080604052620000126009600a6200024e565b620000239064174876e80062000263565b6008819055620000369060001962000285565b6200004490600019620002a8565b6009556064600d556064600e556064600f55600d54601055600e54601155600f546012553480156200007557600080fd5b506040516200244c3803806200244c8339810160408190526200009891620002c2565b600080546001600160a01b031916339081178255604051909182917f8be0079c531659141344cd1fd0a4f28419497f9722a3daafe3b4186f6b6457e0908290a3506009546001600160a01b0382166000818152600160209081526040808320949094556008549351938452919290917fddf252ad1be2c89b69c2b068fc378daa952ba7f163c4a11628f55a4df523b3ef910160405180910390a350620002ed565b634e487b7160e01b600052601160045260246000fd5b600181815b808511156200019057816000190482111562000174576200017462000139565b808516156200018257918102915b93841c939080029062000154565b509250929050565b600082620001a95750600162000248565b81620001b85750600062000248565b8160018114620001d15760028114620001dc57620001fc565b600191505062000248565b60ff841115620001f057620001f062000139565b50506001821b62000248565b5060208310610133831016604e8410600b841016171562000221575081810a62000248565b6200022d83836200014f565b806000190482111562000244576200024462000139565b0290505b92915050565b60006200025c838362000198565b9392505050565b600081600019048311821515161562000280576200028062000139565b500290565b600082620002a357634e487b7160e01b600052601260045260246000fd5b500690565b600082821015620002bd57620002bd62000139565b500390565b600060208284031215620002d557600080fd5b81516001600160a01b03811681146200025c57600080fd5b61214f80620002fd6000396000f3fe608060405234801561001057600080fd5b50600436106101735760003560e01c806370a08231116100de578063a9059cbb11610097578063dd62ed3e11610071578063dd62ed3e14610354578063f2cc0c181461038d578063f2fde38b146103a0578063f84354f1146103b357600080fd5b8063a9059cbb14610302578063b45964de14610315578063cba0e9961461032857600080fd5b806370a082311461026c578063715018a61461027f57806381e2dde1146102875780638da5cb5b146102b357806395d89b41146102ce578063a457c2d7146102ef57600080fd5b8063313ce56711610130578063313ce5671461021257806339509351146102215780633bd5d173146102345780633c9f861d146102495780634549b039146102515780635d8ef94d1461026457600080fd5b806306fdde0314610178578063095ea7b3146101af57806313114a9d146101d257806318160ddd146101e457806323b872dd146101ec5780632d838119146101ff575b600080fd5b6040805180820190915260098152680a8d0deeae6c2dcc8f60bb1b60208201525b6040516101a69190611d67565b60405180910390f35b6101c26101bd366004611dd8565b6103c6565b60405190151581526020016101a6565b600a545b6040519081526020016101a6565b6008546101d6565b6101c26101fa366004611e02565b6103dd565b6101d661020d366004611e3e565b610446565b604051600981526020016101a6565b6101c261022f366004611dd8565b6104cf565b610247610242366004611e3e565b610505565b005b600b546101d6565b6101d661025f366004611e57565b6105f1565b600c546101d6565b6101d661027a366004611e8c565b610680565b6102476106df565b6101c2610295366004611e8c565b6001600160a01b031660009081526005602052604090205460ff1690565b6000546040516001600160a01b0390911681526020016101a6565b604080518082019091526005815264062606060f60db1b6020820152610199565b6101c26102fd366004611dd8565b610753565b6101c2610310366004611dd8565b6107a2565b610247610323366004611e8c565b6107af565b6101c2610336366004611e8c565b6001600160a01b031660009081526004602052604090205460ff1690565b6101d6610362366004611ea7565b6001600160a01b03918216600090815260036020908152604080832093909416825291909152205490565b61024761039b366004611e8c565b61093b565b6102476103ae366004611e8c565b610b06565b6102476103c1366004611e8c565b610bf0565b60006103d3338484610da7565b5060015b92915050565b60006103ea848484610ecb565b61043c8433610437856040518060600160405280602881526020016120cd602891396001600160a01b038a166000908152600360209081526040808320338452909152902054919061128f565b610da7565b5060019392505050565b60006009548211156104b25760405162461bcd60e51b815260206004820152602a60248201527f416d6f756e74206d757374206265206c657373207468616e20746f74616c207260448201526965666c656374696f6e7360b01b60648201526084015b60405180910390fd5b60006104bc6112c9565b90506104c883826112ec565b9392505050565b3360008181526003602090815260408083206001600160a01b038716845290915281205490916103d3918590610437908661132e565b3360008181526004602052604090205460ff161561057a5760405162461bcd60e51b815260206004820152602c60248201527f4578636c75646564206164647265737365732063616e6e6f742063616c6c207460448201526b3434b990333ab731ba34b7b760a11b60648201526084016104a9565b60006105858361138d565b5050506001600160a01b0386166000908152600160205260409020549394506105b393925084915050611411565b6001600160a01b0383166000908152600160205260409020556009546105d99082611411565b600955600a546105e9908461132e565b600a55505050565b60006008548311156106455760405162461bcd60e51b815260206004820152601f60248201527f416d6f756e74206d757374206265206c657373207468616e20737570706c790060448201526064016104a9565b816106655760006106558461138d565b509496506103d795505050505050565b60006106708461138d565b509396506103d795505050505050565b6001600160a01b03811660009081526004602052604081205460ff16156106bd57506001600160a01b031660009081526002602052604090205490565b6001600160a01b0382166000908152600160205260409020546103d790610446565b6000546001600160a01b031633146107095760405162461bcd60e51b81526004016104a990611eda565b600080546040516001600160a01b03909116907f8be0079c531659141344cd1fd0a4f28419497f9722a3daafe3b4186f6b6457e0908390a3600080546001600160a01b0319169055565b60006103d33384610437856040518060600160405280602581526020016120f5602591393360009081526003602090815260408083206001600160a01b038d168452909152902054919061128f565b60006103d3338484610ecb565b6000546001600160a01b031633146107d95760405162461bcd60e51b81526004016104a990611eda565b737a250d5630b4cf539739df2c5dacb4c659f2488d6001600160a01b03821614156108615760405162461bcd60e51b815260206004820152603260248201527f54686520556e697377617020726f757465722063616e206e6f74206265207468604482015271329031b430b934ba3c9030b1b1b7bab73a1760711b60648201526084016104a9565b6001600160a01b03811660009081526005602052604090205460ff16156108d55760405162461bcd60e51b815260206004820152602260248201527f4163636f756e7420697320616c72656164792063686172697479206163636f756044820152611b9d60f21b60648201526084016104a9565b6001600160a01b03166000818152600560205260408120805460ff191660019081179091556007805491820181559091527fa66cc928b5edb82af9bd49922954155ab7b0942694bea4ce44661d9a8736c6880180546001600160a01b0319169091179055565b6000546001600160a01b031633146109655760405162461bcd60e51b81526004016104a990611eda565b737a250d5630b4cf539739df2c5dacb4c659f2488d6001600160a01b03821614156109dd5760405162461bcd60e51b815260206004820152602260248201527f57652063616e206e6f74206578636c75646520556e697377617020726f757465604482015261391760f11b60648201526084016104a9565b6001600160a01b03811660009081526004602052604090205460ff1615610a465760405162461bcd60e51b815260206004820152601b60248201527f4163636f756e7420697320616c7265616479206578636c75646564000000000060448201526064016104a9565b6001600160a01b03811660009081526001602052604090205415610aa0576001600160a01b038116600090815260016020526040902054610a8690610446565b6001600160a01b0382166000908152600260205260409020555b6001600160a01b03166000818152600460205260408120805460ff191660019081179091556006805491820181559091527ff652222313e28459528d920b65115c16c04f3efc82aaedc97be59f3f377c0d3f0180546001600160a01b0319169091179055565b6000546001600160a01b03163314610b305760405162461bcd60e51b81526004016104a990611eda565b6001600160a01b038116610b955760405162461bcd60e51b815260206004820152602660248201527f4f776e61626c653a206e6577206f776e657220697320746865207a65726f206160448201526564647265737360d01b60648201526084016104a9565b600080546040516001600160a01b03808516939216917f8be0079c531659141344cd1fd0a4f28419497f9722a3daafe3b4186f6b6457e091a3600080546001600160a01b0319166001600160a01b0392909216919091179055565b6000546001600160a01b03163314610c1a5760405162461bcd60e51b81526004016104a990611eda565b6001600160a01b03811660009081526004602052604090205460ff16610c825760405162461bcd60e51b815260206004820152601b60248201527f4163636f756e7420697320616c7265616479206578636c75646564000000000060448201526064016104a9565b60005b600654811015610da357816001600160a01b031660068281548110610cac57610cac611f0f565b6000918252602090912001546001600160a01b03161415610d915760068054610cd790600190611f3b565b81548110610ce757610ce7611f0f565b600091825260209091200154600680546001600160a01b039092169183908110610d1357610d13611f0f565b600091825260208083209190910180546001600160a01b0319166001600160a01b039485161790559184168152600282526040808220829055600490925220805460ff191690556006805480610d6b57610d6b611f52565b600082815260209020810160001990810180546001600160a01b03191690550190555050565b80610d9b81611f68565b915050610c85565b5050565b6001600160a01b038316610e095760405162461bcd60e51b8152602060048201526024808201527f42455032303a20617070726f76652066726f6d20746865207a65726f206164646044820152637265737360e01b60648201526084016104a9565b6001600160a01b038216610e6a5760405162461bcd60e51b815260206004820152602260248201527f42455032303a20617070726f766520746f20746865207a65726f206164647265604482015261737360f01b60648201526084016104a9565b6001600160a01b0383811660008181526003602090815260408083209487168084529482529182902085905590518481527f8c5be1e5ebec7d5bd14f71427d1e84f3dd0314c0f7b2291e5b200ac8c7c3b925910160405180910390a3505050565b6001600160a01b038316610f2f5760405162461bcd60e51b815260206004820152602560248201527f42455032303a207472616e736665722066726f6d20746865207a65726f206164604482015264647265737360d81b60648201526084016104a9565b6001600160a01b038216610f915760405162461bcd60e51b815260206004820152602360248201527f42455032303a207472616e7366657220746f20746865207a65726f206164647260448201526265737360e81b60648201526084016104a9565b60008111610ff35760405162461bcd60e51b815260206004820152602960248201527f5472616e7366657220616d6f756e74206d7573742062652067726561746572206044820152687468616e207a65726f60b81b60648201526084016104a9565b6001600160a01b03831660009081526005602052604090205460019060ff168061103557506001600160a01b03831660009081526005602052604090205460ff165b8061105857506001600160a01b03831660009081526004602052604090205460ff165b15611061575060005b8061106e5761106e611453565b6000546001600160a01b0385811691161480159061109a57506000546001600160a01b03848116911614155b15611119576110ab6009600a612067565b6110b99063c6aea152612073565b8211156111195760405162461bcd60e51b815260206004820152602860248201527f5472616e7366657220616d6f756e74206578636565647320746865206d6178546044820152673c20b6b7bab73a1760c11b60648201526084016104a9565b6001600160a01b03841660009081526004602052604090205460ff16801561115a57506001600160a01b03831660009081526004602052604090205460ff16155b1561116f5761116a848484611498565b61126d565b6001600160a01b03841660009081526004602052604090205460ff161580156111b057506001600160a01b03831660009081526004602052604090205460ff165b156111c05761116a84848461156c565b6001600160a01b03841660009081526004602052604090205460ff1615801561120257506001600160a01b03831660009081526004602052604090205460ff16155b156112125761116a8484846115cc565b6001600160a01b03841660009081526004602052604090205460ff16801561125257506001600160a01b03831660009081526004602052604090205460ff165b156112625761116a84848461162b565b61126d8484846115cc565b8061128957611289601054600d55601154600e55601254600f55565b50505050565b600081848411156112b35760405162461bcd60e51b81526004016104a99190611d67565b5060006112c08486611f3b565b95945050505050565b60008060006112d661168c565b90925090506112e582826112ec565b9250505090565b60006104c883836040518060400160405280601a81526020017f536166654d6174683a206469766973696f6e206279207a65726f00000000000081525061180e565b60008061133b8385612092565b9050838110156104c85760405162461bcd60e51b815260206004820152601b60248201527f536166654d6174683a206164646974696f6e206f766572666c6f77000000000060448201526064016104a9565b6000806000806000806000806000806113ae8b600d54600e54600f5461183c565b92509250925060006113c28c858585611893565b905060006113ce6112c9565b90506000806113de8f88856118ab565b9150915060006113f183838989886118d5565b929e50919c509a5091985093965091945092505050919395979092949650565b60006104c883836040518060400160405280601e81526020017f536166654d6174683a207375627472616374696f6e206f766572666c6f77000081525061128f565b600d541580156114635750600e54155b801561146f5750600f54155b1561147657565b600d8054601055600e8054601155600f80546012556000928390559082905555565b60006114a26112c9565b905060008060008060008060006114b88961138d565b965096509650965096509650965060006114db898461191190919063ffffffff16565b905060006114e9838b611911565b90506114f88d8d8d8c8c611990565b611502838e611a34565b611510878383888888611b28565b8b6001600160a01b03168d6001600160a01b03167fddf252ad1be2c89b69c2b068fc378daa952ba7f163c4a11628f55a4df523b3ef8860405161155591815260200190565b60405180910390a350505050505050505050505050565b60006115766112c9565b9050600080600080600080600061158c8961138d565b965096509650965096509650965060006115af898461191190919063ffffffff16565b905060006115bd838b611911565b90506114f88d8d888c8c611b90565b60006115d66112c9565b905060008060008060008060006115ec8961138d565b9650965096509650965096509650600061160f898461191190919063ffffffff16565b9050600061161d838b611911565b90506114f88d8d8b8b611c18565b60006116356112c9565b9050600080600080600080600061164b8961138d565b9650965096509650965096509650600061166e898461191190919063ffffffff16565b9050600061167c838b611911565b90506114f88d8d8d8c8a8d611c8c565b6009546008546000918291825b6006548110156117de578260016000600684815481106116bb576116bb611f0f565b60009182526020808320909101546001600160a01b03168352820192909252604001902054118061172657508160026000600684815481106116ff576116ff611f0f565b60009182526020808320909101546001600160a01b03168352820192909252604001902054115b1561173c57600954600854945094505050509091565b611782600160006006848154811061175657611756611f0f565b60009182526020808320909101546001600160a01b031683528201929092526040019020548490611411565b92506117ca600260006006848154811061179e5761179e611f0f565b60009182526020808320909101546001600160a01b031683528201929092526040019020548390611411565b9150806117d681611f68565b915050611699565b506008546009546117ee916112ec565b821015611805576009546008549350935050509091565b90939092509050565b6000818361182f5760405162461bcd60e51b81526004016104a99190611d67565b5060006112c084866120aa565b6000808080611858606461185281818c8c611911565b906112ec565b9050600061186d606461185281818d8c611911565b90506000611882606461185281818e8c611911565b929a91995091975095505050505050565b60006112c0826118a585818989611411565b90611411565b600080806118b98685611911565b905060006118c78686611911565b919791965090945050505050565b6000806118e28584611911565b905060006118f08585611911565b90506000611904826118a585818d8d611411565b9998505050505050505050565b600082611920575060006103d7565b600061192c8385612073565b90508261193985836120aa565b146104c85760405162461bcd60e51b815260206004820152602160248201527f536166654d6174683a206d756c7469706c69636174696f6e206f766572666c6f6044820152607760f81b60648201526084016104a9565b6001600160a01b0385166000908152600260205260409020546119b39084611411565b6001600160a01b0386166000908152600260209081526040808320939093556001905220546119e29083611411565b6001600160a01b038087166000908152600160205260408082209390935590861681522054611a11908261132e565b6001600160a01b0390941660009081526001602052604090209390935550505050565b6000611a3e6112c9565b90506000611a4c8483611911565b905060006007600081548110611a6457611a64611f0f565b60009182526020808320909101546001600160a01b03168083526001909152604090912054909150611a96908361132e565b6001600160a01b038216600090815260016020908152604080832093909355600290522054611ac5908661132e565b6001600160a01b0380831660008181526002602052604090819020939093559151908616907fddf252ad1be2c89b69c2b068fc378daa952ba7f163c4a11628f55a4df523b3ef90611b199089815260200190565b60405180910390a35050505050565b611b45846118a5876118a58a60095461141190919063ffffffff16565b600955600a54611b55908461132e565b600a55600b54611b65908361132e565b600b55600c54611b75908261132e565b600c55600854611b859083611411565b600855505050505050565b6001600160a01b038516600090815260016020526040902054611bb39083611411565b6001600160a01b03808716600090815260016020908152604080832094909455918716815260029091522054611be9908461132e565b6001600160a01b038516600090815260026020908152604080832093909355600190522054611a11908261132e565b6001600160a01b038416600090815260016020526040902054611c3b9083611411565b6001600160a01b038086166000908152600160205260408082209390935590851681522054611c6a908261132e565b6001600160a01b03909316600090815260016020526040902092909255505050565b6001600160a01b038616600090815260026020526040902054611caf9085611411565b6001600160a01b038716600090815260026020908152604080832093909355600190522054611cde9084611411565b6001600160a01b03808816600090815260016020908152604080832094909455918816815260029091522054611d14908361132e565b6001600160a01b038616600090815260026020908152604080832093909355600190522054611d43908261132e565b6001600160a01b039095166000908152600160205260409020949094555050505050565b600060208083528351808285015260005b81811015611d9457858101830151858201604001528201611d78565b81811115611da6576000604083870101525b50601f01601f1916929092016040019392505050565b80356001600160a01b0381168114611dd357600080fd5b919050565b60008060408385031215611deb57600080fd5b611df483611dbc565b946020939093013593505050565b600080600060608486031215611e1757600080fd5b611e2084611dbc565b9250611e2e60208501611dbc565b9150604084013590509250925092565b600060208284031215611e5057600080fd5b5035919050565b60008060408385031215611e6a57600080fd5b8235915060208301358015158114611e8157600080fd5b809150509250929050565b600060208284031215611e9e57600080fd5b6104c882611dbc565b60008060408385031215611eba57600080fd5b611ec383611dbc565b9150611ed160208401611dbc565b90509250929050565b6020808252818101527f4f776e61626c653a2063616c6c6572206973206e6f7420746865206f776e6572604082015260600190565b634e487b7160e01b600052603260045260246000fd5b634e487b7160e01b600052601160045260246000fd5b600082821015611f4d57611f4d611f25565b500390565b634e487b7160e01b600052603160045260246000fd5b6000600019821415611f7c57611f7c611f25565b5060010190565b600181815b80851115611fbe578160001904821115611fa457611fa4611f25565b80851615611fb157918102915b93841c9390800290611f88565b509250929050565b600082611fd5575060016103d7565b81611fe2575060006103d7565b8160018114611ff857600281146120025761201e565b60019150506103d7565b60ff84111561201357612013611f25565b50506001821b6103d7565b5060208310610133831016604e8410600b8410161715612041575081810a6103d7565b61204b8383611f83565b806000190482111561205f5761205f611f25565b029392505050565b60006104c88383611fc6565b600081600019048311821515161561208d5761208d611f25565b500290565b600082198211156120a5576120a5611f25565b500190565b6000826120c757634e487b7160e01b600052601260045260246000fd5b50049056fe42455032303a207472616e7366657220616d6f756e74206578636565647320616c6c6f77616e636542455032303a2064656372656173656420616c6c6f77616e63652062656c6f77207a65726fa26469706673582212205fc628c51e53116b852a4e1b03dc8cb99c3ea6f73ecbb6ac0515f71d5e80cacc64736f6c63430008090033",
  "linkReferences": {},
  "deployedLinkReferences": {}
}