{
  "_format": "hh-sol-artifact-1",
  "contractName": "Tiger",
  "sourceName": "contracts/Tiger.sol",
  "abi": [
    {
      "inputs": [],
      "stateMutability": "nonpayable",
      "type": "constructor"
    },
    {
      "anonymous": false,
      "inputs": [
        {
          "indexed": true,
          "internalType": "address",
          "name": "owner",
          "type": "address"
        },
        {
          "indexed": true,
          "internalType": "address",
          "name": "spender",
          "type": "address"
        },
        {
          "indexed": false,
          "internalType": "uint256",
          "name": "value",
          "type": "uint256"
        }
      ],
      "name": "Approval",
      "type": "event"
    },
    {
      "anonymous": false,
      "inputs": [
        {
          "indexed": false,
          "internalType": "uint256",
          "name": "amount",
          "type": "uint256"
        },
        {
          "indexed": false,
          "internalType": "address",
          "name": "recipient",
          "type": "address"
        }
      ],
      "name": "OnWithdrawFarmedToken",
      "type": "event"
    },
    {
      "anonymous": false,
      "inputs": [
        {
          "indexed": true,
          "internalType": "address",
          "name": "previousOwner",
          "type": "address"
        },
        {
          "indexed": true,
          "internalType": "address",
          "name": "newOwner",
          "type": "address"
        }
      ],
      "name": "OwnershipTransferred",
      "type": "event"
    },
    {
      "anonymous": false,
      "inputs": [
        {
          "indexed": true,
          "internalType": "address",
          "name": "from",
          "type": "address"
        },
        {
          "indexed": true,
          "internalType": "address",
          "name": "to",
          "type": "address"
        },
        {
          "indexed": false,
          "internalType": "uint256",
          "name": "value",
          "type": "uint256"
        }
      ],
      "name": "Transfer",
      "type": "event"
    },
    {
      "stateMutability": "payable",
      "type": "fallback"
    },
    {
      "inputs": [],
      "name": "AddressResetSellLock",
      "outputs": [],
      "stateMutability": "nonpayable",
      "type": "function"
    },
    {
      "inputs": [],
      "name": "BalanceLimitDivider",
      "outputs": [
        {
          "internalType": "uint8",
          "name": "",
          "type": "uint8"
        }
      ],
      "stateMutability": "view",
      "type": "function"
    },
    {
      "inputs": [
        {
          "internalType": "address",
          "name": "tokenAddress",
          "type": "address"
        }
      ],
      "name": "FarmedTokenWithdraw",
      "outputs": [],
      "stateMutability": "nonpayable",
      "type": "function"
    },
    {
      "inputs": [],
      "name": "InitialSupply",
      "outputs": [
        {
          "internalType": "uint256",
          "name": "",
          "type": "uint256"
        }
      ],
      "stateMutability": "view",
      "type": "function"
    },
    {
      "inputs": [],
      "name": "MaxSellLockTime",
      "outputs": [
        {
          "internalType": "uint16",
          "name": "",
          "type": "uint16"
        }
      ],
      "stateMutability": "view",
      "type": "function"
    },
    {
      "inputs": [],
      "name": "MaxTax",
      "outputs": [
        {
          "internalType": "uint8",
          "name": "",
          "type": "uint8"
        }
      ],
      "stateMutability": "view",
      "type": "function"
    },
    {
      "inputs": [],
      "name": "SecondTeamWallet",
      "outputs": [
        {
          "internalType": "address",
          "name": "",
          "type": "address"
        }
      ],
      "stateMutability": "view",
      "type": "function"
    },
    {
      "inputs": [],
      "name": "SellLimitDivider",
      "outputs": [
        {
          "internalType": "uint16",
          "name": "",
          "type": "uint16"
        }
      ],
      "stateMutability": "view",
      "type": "function"
    },
    {
      "inputs": [
        {
          "internalType": "address[]",
          "name": "addressesToAdd",
          "type": "address[]"
        }
      ],
      "name": "SetupAddArrayToWhitelist",
      "outputs": [],
      "stateMutability": "nonpayable",
      "type": "function"
    },
    {
      "inputs": [
        {
          "internalType": "address",
          "name": "addressToAdd",
          "type": "address"
        }
      ],
      "name": "SetupAddToWhitelist",
      "outputs": [],
      "stateMutability": "nonpayable",
      "type": "function"
    },
    {
      "inputs": [],
      "name": "SetupEnableTrading",
      "outputs": [],
      "stateMutability": "nonpayable",
      "type": "function"
    },
    {
      "inputs": [],
      "name": "SetupEnableWhitelistTrading",
      "outputs": [],
      "stateMutability": "nonpayable",
      "type": "function"
    },
    {
      "inputs": [
        {
          "internalType": "address",
          "name": "liquidityTokenAddress",
          "type": "address"
        }
      ],
      "name": "SetupLiquidityTokenAddress",
      "outputs": [],
      "stateMutability": "nonpayable",
      "type": "function"
    },
    {
      "inputs": [
        {
          "internalType": "address",
          "name": "addressToRemove",
          "type": "address"
        }
      ],
      "name": "SetupRemoveFromWhitelist",
      "outputs": [],
      "stateMutability": "nonpayable",
      "type": "function"
    },
    {
      "inputs": [
        {
          "internalType": "uint8",
          "name": "newShare",
          "type": "uint8"
        }
      ],
      "name": "TeamChangeMarketingShare",
      "outputs": [],
      "stateMutability": "nonpayable",
      "type": "function"
    },
    {
      "inputs": [],
      "name": "TeamCreateLPandETH",
      "outputs": [],
      "stateMutability": "nonpayable",
      "type": "function"
    },
    {
      "inputs": [
        {
          "internalType": "bool",
          "name": "disabled",
          "type": "bool"
        }
      ],
      "name": "TeamDisableSellLock",
      "outputs": [],
      "stateMutability": "nonpayable",
      "type": "function"
    },
    {
      "inputs": [
        {
          "internalType": "address",
          "name": "account",
          "type": "address"
        }
      ],
      "name": "TeamExcludeAccountFromFees",
      "outputs": [],
      "stateMutability": "nonpayable",
      "type": "function"
    },
    {
      "inputs": [
        {
          "internalType": "address",
          "name": "account",
          "type": "address"
        }
      ],
      "name": "TeamExcludeAccountFromSellLock",
      "outputs": [],
      "stateMutability": "nonpayable",
      "type": "function"
    },
    {
      "inputs": [
        {
          "internalType": "address",
          "name": "addr",
          "type": "address"
        }
      ],
      "name": "TeamExcludeFromStaking",
      "outputs": [],
      "stateMutability": "nonpayable",
      "type": "function"
    },
    {
      "inputs": [
        {
          "internalType": "address",
          "name": "account",
          "type": "address"
        }
      ],
      "name": "TeamIncludeAccountToFees",
      "outputs": [],
      "stateMutability": "nonpayable",
      "type": "function"
    },
    {
      "inputs": [
        {
          "internalType": "address",
          "name": "account",
          "type": "address"
        }
      ],
      "name": "TeamIncludeAccountToSellLock",
      "outputs": [],
      "stateMutability": "nonpayable",
      "type": "function"
    },
    {
      "inputs": [
        {
          "internalType": "address",
          "name": "addr",
          "type": "address"
        }
      ],
      "name": "TeamIncludeToStaking",
      "outputs": [],
      "stateMutability": "nonpayable",
      "type": "function"
    },
    {
      "inputs": [],
      "name": "TeamReleaseLiquidity",
      "outputs": [],
      "stateMutability": "nonpayable",
      "type": "function"
    },
    {
      "inputs": [
        {
          "internalType": "bool",
          "name": "addToStaking",
          "type": "bool"
        }
      ],
      "name": "TeamRemoveLiquidity",
      "outputs": [],
      "stateMutability": "nonpayable",
      "type": "function"
    },
    {
      "inputs": [],
      "name": "TeamRemoveRemainingETH",
      "outputs": [],
      "stateMutability": "nonpayable",
      "type": "function"
    },
    {
      "inputs": [],
      "name": "TeamSellAllTokens",
      "outputs": [],
      "stateMutability": "nonpayable",
      "type": "function"
    },
    {
      "inputs": [
        {
          "internalType": "uint256",
          "name": "sellLockSeconds",
          "type": "uint256"
        }
      ],
      "name": "TeamSetSellLockTime",
      "outputs": [],
      "stateMutability": "nonpayable",
      "type": "function"
    },
    {
      "inputs": [
        {
          "internalType": "uint8",
          "name": "burnTaxes",
          "type": "uint8"
        },
        {
          "internalType": "uint8",
          "name": "liquidityTaxes",
          "type": "uint8"
        },
        {
          "internalType": "uint8",
          "name": "stakingTaxes",
          "type": "uint8"
        },
        {
          "internalType": "uint8",
          "name": "buyTax",
          "type": "uint8"
        },
        {
          "internalType": "uint8",
          "name": "sellTax",
          "type": "uint8"
        },
        {
          "internalType": "uint8",
          "name": "transferTax",
          "type": "uint8"
        }
      ],
      "name": "TeamSetTaxes",
      "outputs": [],
      "stateMutability": "nonpayable",
      "type": "function"
    },
    {
      "inputs": [
        {
          "internalType": "bool",
          "name": "setter",
          "type": "bool"
        }
      ],
      "name": "TeamSwapSetAutoUpdateLiqSell",
      "outputs": [],
      "stateMutability": "nonpayable",
      "type": "function"
    },
    {
      "inputs": [
        {
          "internalType": "bool",
          "name": "setter",
          "type": "bool"
        }
      ],
      "name": "TeamSwapSetManualLiqSell",
      "outputs": [],
      "stateMutability": "nonpayable",
      "type": "function"
    },
    {
      "inputs": [
        {
          "internalType": "uint256",
          "name": "amount",
          "type": "uint256"
        }
      ],
      "name": "TeamSwapSetManualLiqSellTokens",
      "outputs": [],
      "stateMutability": "nonpayable",
      "type": "function"
    },
    {
      "inputs": [
        {
          "internalType": "bool",
          "name": "setter",
          "type": "bool"
        }
      ],
      "name": "TeamSwapSetSellPeg",
      "outputs": [],
      "stateMutability": "nonpayable",
      "type": "function"
    },
    {
      "inputs": [
        {
          "internalType": "bool",
          "name": "manual",
          "type": "bool"
        }
      ],
      "name": "TeamSwapSwitchManualETHConversion",
      "outputs": [],
      "stateMutability": "nonpayable",
      "type": "function"
    },
    {
      "inputs": [
        {
          "internalType": "uint256",
          "name": "secondsUntilUnlock",
          "type": "uint256"
        }
      ],
      "name": "TeamUnlockLiquidityInSeconds",
      "outputs": [],
      "stateMutability": "nonpayable",
      "type": "function"
    },
    {
      "inputs": [
        {
          "internalType": "uint256",
          "name": "newBalanceLimit",
          "type": "uint256"
        },
        {
          "internalType": "uint256",
          "name": "newSellLimit",
          "type": "uint256"
        }
      ],
      "name": "TeamUpdateLimits",
      "outputs": [],
      "stateMutability": "nonpayable",
      "type": "function"
    },
    {
      "inputs": [],
      "name": "TeamWallet",
      "outputs": [
        {
          "internalType": "address",
          "name": "",
          "type": "address"
        }
      ],
      "stateMutability": "view",
      "type": "function"
    },
    {
      "inputs": [],
      "name": "TeamWithdrawMarketingETH",
      "outputs": [],
      "stateMutability": "nonpayable",
      "type": "function"
    },
    {
      "inputs": [
        {
          "internalType": "uint256",
          "name": "amount",
          "type": "uint256"
        }
      ],
      "name": "TeamWithdrawMarketingETH",
      "outputs": [],
      "stateMutability": "nonpayable",
      "type": "function"
    },
    {
      "inputs": [],
      "name": "TeamlimitLiquidityReleaseTo20Percent",
      "outputs": [],
      "stateMutability": "nonpayable",
      "type": "function"
    },
    {
      "inputs": [],
      "name": "WETHWithdraw",
      "outputs": [],
      "stateMutability": "nonpayable",
      "type": "function"
    },
    {
      "inputs": [],
      "name": "WhiteListBalanceLimitDivider",
      "outputs": [
        {
          "internalType": "uint16",
          "name": "",
          "type": "uint16"
        }
      ],
      "stateMutability": "view",
      "type": "function"
    },
    {
      "inputs": [
        {
          "internalType": "address",
          "name": "",
          "type": "address"
        }
      ],
      "name": "_blacklist",
      "outputs": [
        {
          "internalType": "bool",
          "name": "",
          "type": "bool"
        }
      ],
      "stateMutability": "view",
      "type": "function"
    },
    {
      "inputs": [],
      "name": "_getTotalShares",
      "outputs": [
        {
          "internalType": "uint256",
          "name": "",
          "type": "uint256"
        }
      ],
      "stateMutability": "view",
      "type": "function"
    },
    {
      "inputs": [
        {
          "internalType": "address",
          "name": "_owner",
          "type": "address"
        },
        {
          "internalType": "address",
          "name": "spender",
          "type": "address"
        }
      ],
      "name": "allowance",
      "outputs": [
        {
          "internalType": "uint256",
          "name": "",
          "type": "uint256"
        }
      ],
      "stateMutability": "view",
      "type": "function"
    },
    {
      "inputs": [
        {
          "internalType": "address",
          "name": "spender",
          "type": "address"
        },
        {
          "internalType": "uint256",
          "name": "amount",
          "type": "uint256"
        }
      ],
      "name": "approve",
      "outputs": [
        {
          "internalType": "bool",
          "name": "",
          "type": "bool"
        }
      ],
      "stateMutability": "nonpayable",
      "type": "function"
    },
    {
      "inputs": [],
      "name": "balanceLimit",
      "outputs": [
        {
          "internalType": "uint256",
          "name": "",
          "type": "uint256"
        }
      ],
      "stateMutability": "view",
      "type": "function"
    },
    {
      "inputs": [
        {
          "internalType": "address",
          "name": "account",
          "type": "address"
        }
      ],
      "name": "balanceOf",
      "outputs": [
        {
          "internalType": "uint256",
          "name": "",
          "type": "uint256"
        }
      ],
      "stateMutability": "view",
      "type": "function"
    },
    {
      "inputs": [],
      "name": "decimals",
      "outputs": [
        {
          "internalType": "uint8",
          "name": "",
          "type": "uint8"
        }
      ],
      "stateMutability": "pure",
      "type": "function"
    },
    {
      "inputs": [
        {
          "internalType": "address",
          "name": "spender",
          "type": "address"
        },
        {
          "internalType": "uint256",
          "name": "subtractedValue",
          "type": "uint256"
        }
      ],
      "name": "decreaseAllowance",
      "outputs": [
        {
          "internalType": "bool",
          "name": "",
          "type": "bool"
        }
      ],
      "stateMutability": "nonpayable",
      "type": "function"
    },
    {
      "inputs": [
        {
          "internalType": "address",
          "name": "AddressToCheck",
          "type": "address"
        }
      ],
      "name": "getAddressSellLockTimeInSeconds",
      "outputs": [
        {
          "internalType": "uint256",
          "name": "",
          "type": "uint256"
        }
      ],
      "stateMutability": "view",
      "type": "function"
    },
    {
      "inputs": [],
      "name": "getBurnedTokens",
      "outputs": [
        {
          "internalType": "uint256",
          "name": "",
          "type": "uint256"
        }
      ],
      "stateMutability": "view",
      "type": "function"
    },
    {
      "inputs": [
        {
          "internalType": "address",
          "name": "addr",
          "type": "address"
        }
      ],
      "name": "getDividends",
      "outputs": [
        {
          "internalType": "uint256",
          "name": "",
          "type": "uint256"
        }
      ],
      "stateMutability": "view",
      "type": "function"
    },
    {
      "inputs": [],
      "name": "getLimits",
      "outputs": [
        {
          "internalType": "uint256",
          "name": "balance",
          "type": "uint256"
        },
        {
          "internalType": "uint256",
          "name": "sell",
          "type": "uint256"
        }
      ],
      "stateMutability": "view",
      "type": "function"
    },
    {
      "inputs": [],
      "name": "getLiquidityReleaseTimeInSeconds",
      "outputs": [
        {
          "internalType": "uint256",
          "name": "",
          "type": "uint256"
        }
      ],
      "stateMutability": "view",
      "type": "function"
    },
    {
      "inputs": [],
      "name": "getOwner",
      "outputs": [
        {
          "internalType": "address",
          "name": "",
          "type": "address"
        }
      ],
      "stateMutability": "view",
      "type": "function"
    },
    {
      "inputs": [],
      "name": "getSellLockTimeInSeconds",
      "outputs": [
        {
          "internalType": "uint256",
          "name": "",
          "type": "uint256"
        }
      ],
      "stateMutability": "view",
      "type": "function"
    },
    {
      "inputs": [],
      "name": "getTaxes",
      "outputs": [
        {
          "internalType": "uint256",
          "name": "burnTax",
          "type": "uint256"
        },
        {
          "internalType": "uint256",
          "name": "liquidityTax",
          "type": "uint256"
        },
        {
          "internalType": "uint256",
          "name": "marketingTax",
          "type": "uint256"
        },
        {
          "internalType": "uint256",
          "name": "buyTax",
          "type": "uint256"
        },
        {
          "internalType": "uint256",
          "name": "sellTax",
          "type": "uint256"
        },
        {
          "internalType": "uint256",
          "name": "transferTax",
          "type": "uint256"
        }
      ],
      "stateMutability": "view",
      "type": "function"
    },
    {
      "inputs": [
        {
          "internalType": "address",
          "name": "AddressToCheck",
          "type": "address"
        }
      ],
      "name": "getWhitelistedStatus",
      "outputs": [
        {
          "internalType": "bool",
          "name": "",
          "type": "bool"
        }
      ],
      "stateMutability": "view",
      "type": "function"
    },
    {
      "inputs": [
        {
          "internalType": "address",
          "name": "spender",
          "type": "address"
        },
        {
          "internalType": "uint256",
          "name": "addedValue",
          "type": "uint256"
        }
      ],
      "name": "increaseAllowance",
      "outputs": [
        {
          "internalType": "bool",
          "name": "",
          "type": "bool"
        }
      ],
      "stateMutability": "nonpayable",
      "type": "function"
    },
    {
      "inputs": [
        {
          "internalType": "address",
          "name": "addr",
          "type": "address"
        }
      ],
      "name": "isExcludedFromStaking",
      "outputs": [
        {
          "internalType": "bool",
          "name": "",
          "type": "bool"
        }
      ],
      "stateMutability": "view",
      "type": "function"
    },
    {
      "inputs": [],
      "name": "liquidityRelease20Percent",
      "outputs": [
        {
          "internalType": "bool",
          "name": "",
          "type": "bool"
        }
      ],
      "stateMutability": "view",
      "type": "function"
    },
    {
      "inputs": [],
      "name": "manualConversion",
      "outputs": [
        {
          "internalType": "bool",
          "name": "",
          "type": "bool"
        }
      ],
      "stateMutability": "view",
      "type": "function"
    },
    {
      "inputs": [],
      "name": "marketingBalance",
      "outputs": [
        {
          "internalType": "uint256",
          "name": "",
          "type": "uint256"
        }
      ],
      "stateMutability": "view",
      "type": "function"
    },
    {
      "inputs": [],
      "name": "marketingShare",
      "outputs": [
        {
          "internalType": "uint8",
          "name": "",
          "type": "uint8"
        }
      ],
      "stateMutability": "view",
      "type": "function"
    },
    {
      "inputs": [],
      "name": "name",
      "outputs": [
        {
          "internalType": "string",
          "name": "",
          "type": "string"
        }
      ],
      "stateMutability": "view",
      "type": "function"
    },
    {
      "inputs": [],
      "name": "owner",
      "outputs": [
        {
          "internalType": "address",
          "name": "",
          "type": "address"
        }
      ],
      "stateMutability": "view",
      "type": "function"
    },
    {
      "inputs": [],
      "name": "profitPerShare",
      "outputs": [
        {
          "internalType": "uint256",
          "name": "",
          "type": "uint256"
        }
      ],
      "stateMutability": "view",
      "type": "function"
    },
    {
      "inputs": [],
      "name": "qtyTokenToSwap",
      "outputs": [
        {
          "internalType": "uint256",
          "name": "",
          "type": "uint256"
        }
      ],
      "stateMutability": "view",
      "type": "function"
    },
    {
      "inputs": [
        {
          "internalType": "address",
          "name": "toRemove",
          "type": "address"
        }
      ],
      "name": "removeBlacklistedAddress",
      "outputs": [],
      "stateMutability": "nonpayable",
      "type": "function"
    },
    {
      "inputs": [],
      "name": "renounceOwnership",
      "outputs": [],
      "stateMutability": "nonpayable",
      "type": "function"
    },
    {
      "inputs": [
        {
          "internalType": "address",
          "name": "tknAddress",
          "type": "address"
        }
      ],
      "name": "rescueTokens",
      "outputs": [],
      "stateMutability": "nonpayable",
      "type": "function"
    },
    {
      "inputs": [],
      "name": "sellLimit",
      "outputs": [
        {
          "internalType": "uint256",
          "name": "",
          "type": "uint256"
        }
      ],
      "stateMutability": "view",
      "type": "function"
    },
    {
      "inputs": [],
      "name": "sellLockDisabled",
      "outputs": [
        {
          "internalType": "bool",
          "name": "",
          "type": "bool"
        }
      ],
      "stateMutability": "view",
      "type": "function"
    },
    {
      "inputs": [],
      "name": "sellLockTime",
      "outputs": [
        {
          "internalType": "uint256",
          "name": "",
          "type": "uint256"
        }
      ],
      "stateMutability": "view",
      "type": "function"
    },
    {
      "inputs": [
        {
          "internalType": "bool",
          "name": "isBlacklistEnabled",
          "type": "bool"
        }
      ],
      "name": "setBlacklistEnabled",
      "outputs": [],
      "stateMutability": "nonpayable",
      "type": "function"
    },
    {
      "inputs": [
        {
          "internalType": "address",
          "name": "toBlacklist",
          "type": "address"
        }
      ],
      "name": "setBlacklistedAddress",
      "outputs": [],
      "stateMutability": "nonpayable",
      "type": "function"
    },
    {
      "inputs": [
        {
          "internalType": "address",
          "name": "newRouter",
          "type": "address"
        }
      ],
      "name": "setRouterAddress",
      "outputs": [],
      "stateMutability": "nonpayable",
      "type": "function"
    },
    {
      "inputs": [
        {
          "internalType": "address",
          "name": "_second",
          "type": "address"
        }
      ],
      "name": "setTeam",
      "outputs": [],
      "stateMutability": "nonpayable",
      "type": "function"
    },
    {
      "inputs": [],
      "name": "symbol",
      "outputs": [
        {
          "internalType": "string",
          "name": "",
          "type": "string"
        }
      ],
      "stateMutability": "pure",
      "type": "function"
    },
    {
      "inputs": [],
      "name": "totalLPETH",
      "outputs": [
        {
          "internalType": "uint256",
          "name": "",
          "type": "uint256"
        }
      ],
      "stateMutability": "view",
      "type": "function"
    },
    {
      "inputs": [],
      "name": "totalPayouts",
      "outputs": [
        {
          "internalType": "uint256",
          "name": "",
          "type": "uint256"
        }
      ],
      "stateMutability": "view",
      "type": "function"
    },
    {
      "inputs": [],
      "name": "totalStakingReward",
      "outputs": [
        {
          "internalType": "uint256",
          "name": "",
          "type": "uint256"
        }
      ],
      "stateMutability": "view",
      "type": "function"
    },
    {
      "inputs": [],
      "name": "totalSupply",
      "outputs": [
        {
          "internalType": "uint256",
          "name": "",
          "type": "uint256"
        }
      ],
      "stateMutability": "view",
      "type": "function"
    },
    {
      "inputs": [],
      "name": "tradingEnabled",
      "outputs": [
        {
          "internalType": "bool",
          "name": "",
          "type": "bool"
        }
      ],
      "stateMutability": "view",
      "type": "function"
    },
    {
      "inputs": [
        {
          "internalType": "address",
          "name": "recipient",
          "type": "address"
        },
        {
          "internalType": "uint256",
          "name": "amount",
          "type": "uint256"
        }
      ],
      "name": "transfer",
      "outputs": [
        {
          "internalType": "bool",
          "name": "",
          "type": "bool"
        }
      ],
      "stateMutability": "nonpayable",
      "type": "function"
    },
    {
      "inputs": [
        {
          "internalType": "address",
          "name": "sender",
          "type": "address"
        },
        {
          "internalType": "address",
          "name": "recipient",
          "type": "address"
        },
        {
          "internalType": "uint256",
          "name": "amount",
          "type": "uint256"
        }
      ],
      "name": "transferFrom",
      "outputs": [
        {
          "internalType": "bool",
          "name": "",
          "type": "bool"
        }
      ],
      "stateMutability": "nonpayable",
      "type": "function"
    },
    {
      "inputs": [
        {
          "internalType": "address",
          "name": "newOwner",
          "type": "address"
        }
      ],
      "name": "transferOwnership",
      "outputs": [],
      "stateMutability": "nonpayable",
      "type": "function"
    },
    {
      "inputs": [],
      "name": "whiteListTrading",
      "outputs": [
        {
          "internalType": "bool",
          "name": "",
          "type": "bool"
        }
      ],
      "stateMutability": "view",
      "type": "function"
    },
    {
      "stateMutability": "payable",
      "type": "receive"
    }
  ],
  "bytecode": "0x6080604052600480546001600160a01b031916736725f303b657a9451d8ba641348b6761a6cc7a17179055600e805460ff19166001179055620000456009600a6200048e565b620000599067016345785d8a00006200057b565b6010556010546011556010546012556064601254600a6200007b91906200057b565b62000087919062000420565b6013556014805461ffff19169055601254606490620000a890600a6200057b565b620000b4919062000420565b6015556016805461ffff19169055601b805460ff1916600a179055348015620000dc57600080fd5b50600080546001600160a01b031916339081178255604051909182917f8be0079c531659141344cd1fd0a4f28419497f9722a3daafe3b4186f6b6457e0908290a350600e8054610100600160a81b0319163361010002179055601054600090600a906200014b9060096200057b565b62000157919062000420565b3360008181526001602052604080822084905551929350909160008051602062005529833981519152906200018e90859062000417565b60405180910390a3600081601054620001a891906200059d565b306000818152600160205260408082208490555192935090916000805160206200552983398151915290620001df90859062000417565b60405180910390a36032620001f76009600a6200048e565b6200020b9067016345785d8a00006200057b565b62000217919062000420565b60115560646200022a6009600a6200048e565b6200023e9067016345785d8a00006200057b565b6200024a919062000420565b60125560026021556016805462ff00001916621400001763ff000000191663140000001760ff60201b19166414000000001760ff60281b1916650300000000001760ff60301b191666140000000000001760ff60381b1916674d00000000000000179055600e54620002d99060059061010090046001600160a01b031662000390602090811b62002ac517901c565b50620002f53360056200039060201b62002ac51790919060201c565b506017546200031c90600b906001600160a01b031662000390602090811b62002ac517901c565b506200034d601660089054906101000a90046001600160a01b0316600b6200039060201b62002ac51790919060201c565b506200036930600b6200039060201b62002ac51790919060201c565b506200038761dead600b6200039060201b62002ac51790919060201c565b505050620005cd565b6000620003a7836001600160a01b038416620003b0565b90505b92915050565b6000620003be8383620003ff565b620003f657508154600181810184556000848152602080822090930184905584548482528286019093526040902091909155620003aa565b506000620003aa565b60009081526001919091016020526040902054151590565b90815260200190565b6000826200043c57634e487b7160e01b81526012600452602481fd5b500490565b80825b600180861162000455575062000485565b8187048211156200046a576200046a620005b7565b808616156200047857918102915b9490941c93800262000444565b94509492505050565b6000620003a760001960ff851684600082620004ad5750600162000574565b81620004bc5750600062000574565b8160018114620004d55760028114620004e05762000514565b600191505062000574565b60ff841115620004f457620004f4620005b7565b6001841b9150848211156200050d576200050d620005b7565b5062000574565b5060208310610133831016604e8410600b84101617156200054c575081810a83811115620005465762000546620005b7565b62000574565b6200055b848484600162000441565b808604821115620005705762000570620005b7565b0290505b9392505050565b6000816000190483118215151615620005985762000598620005b7565b500290565b600082821015620005b257620005b2620005b7565b500390565b634e487b7160e01b600052601160045260246000fd5b614f4c80620005dd6000396000f3fe6080604052600436106104d95760003560e01c806369c94a5411610281578063a9059cbb1161015a578063dd62ed3e116100cc578063f00df36511610085578063f00df36514610dd5578063f04e841114610dea578063f2fde38b14610e0a578063f88b0e4614610e2a578063f9963ca114610e3f578063fef667b714610e5f576104e0565b8063dd62ed3e14610d2b578063dff6bcbf14610d4b578063e69e03ee14610d6b578063e77bf5f814610d80578063e8d834a614610da0578063eb8e886314610dc0576104e0565b8063caaa8d8d1161011e578063caaa8d8d14610c76578063ce7de67614610c96578063d51f383b14610cb6578063d63607d814610cd6578063d8e8de3414610ceb578063da1144d614610d0b576104e0565b8063a9059cbb14610bf7578063b76289b814610c17578063bb733d4e14610c37578063c3a3c03214610c4c578063c3f4f54f14610c61576104e0565b80638650e92a116101f3578063893d20e8116101b7578063893d20e814610b585780638da5cb5b14610b6d57806395d89b4114610b825780639fa62d5f14610b97578063a20623ce14610bb7578063a457c2d714610bd7576104e0565b80638650e92a14610ae457806386d0ada814610af95780638724cc7214610b0e5780638728ecd114610b23578063887c60fb14610b43576104e0565b80637335307b116102455780637335307b14610a4557806373ddf08e14610a65578063762bb28214610a855780637b9e987a14610a9a578063852147f714610aaf5780638607ae3e14610acf576104e0565b806369c94a54146109b85780636f89e409146109d857806370a08231146109fb578063715018a614610a1b57806371ab1f0914610a30576104e0565b8063313ce567116103b357806348e53164116103255780634f91e48c116102e95780634f91e48c1461092457806357ad67d114610939578063588aeaf21461095957806358c4abaa1461097957806358e553651461098e578063677a8870146109a3576104e0565b806348e53164146108b057806349bdf873146108c55780634ada218b146108da5780634cbf8e24146108ef5780634cdaf0ae14610904576104e0565b80633c7a309b116103775780633c7a309b146108115780633cc39b7a146108265780633d8dbf5d1461083b5780634089b1701461085b57806341cb87fc146108705780634634d81c14610890576104e0565b8063313ce567146107925780633328b721146107a75780633478154b146107c7578063363977c5146107dc57806339509351146107f1576104e0565b806314e913771161044c57806323b872dd1161041057806323b872dd146106e1578063243b529a1461070157806325ed82c7146107165780632973ef2d146107365780632c889d181461075d578063311a86971461077d576104e0565b806314e913771461065557806318160ddd146106755780631eb25d131461068a578063230ffc421461069f578063239297b5146106c1576104e0565b80630b1daa3e1161049e5780630b1daa3e1461059c5780630d54c1d8146105bc5780630fd99e16146105dc5780631193c691146105fe5780631201cbd0146106135780631285073c14610633576104e0565b8062ae3bf8146104e257806306fdde031461050257806309218ee71461052d578063095cf5c61461054f578063095ea7b31461056f576104e0565b366104e057005b005b3480156104ee57600080fd5b506104e06104fd3660046141c4565b610e7f565b34801561050e57600080fd5b50610517610fd6565b60405161052491906145f3565b60405180910390f35b34801561053957600080fd5b50610542611069565b6040516105249190614c95565b34801561055b57600080fd5b506104e061056a3660046141c4565b611072565b34801561057b57600080fd5b5061058f61058a366004614274565b6110b9565b60405161052491906145b3565b3480156105a857600080fd5b506104e06105b73660046141c4565b6110d0565b3480156105c857600080fd5b506104e06105d73660046141c4565b611104565b3480156105e857600080fd5b506105f1611111565b6040516105249190614bf4565b34801561060a57600080fd5b506104e0611116565b34801561061f57600080fd5b506104e061062e366004614360565b61117d565b34801561063f57600080fd5b506106486111b5565b6040516105249190614c03565b34801561066157600080fd5b506104e0610670366004614360565b6111bb565b34801561068157600080fd5b506106486111fa565b34801561069657600080fd5b50610648611200565b3480156106ab57600080fd5b506106b4611221565b6040516105249190614531565b3480156106cd57600080fd5b506104e06106dc366004614398565b611230565b3480156106ed57600080fd5b5061058f6106fc366004614234565b611298565b34801561070d57600080fd5b506104e061130a565b34801561072257600080fd5b506104e0610731366004614360565b611349565b34801561074257600080fd5b5061074b611388565b60405161052496959493929190614c6d565b34801561076957600080fd5b506104e0610778366004614398565b6113ce565b34801561078957600080fd5b50610542611405565b34801561079e57600080fd5b5061054261140a565b3480156107b357600080fd5b506104e06107c23660046141c4565b61140f565b3480156107d357600080fd5b506105f1611455565b3480156107e857600080fd5b506104e061145a565b3480156107fd57600080fd5b5061058f61080c366004614274565b611510565b34801561081d57600080fd5b506104e0611547565b34801561083257600080fd5b50610648611771565b34801561084757600080fd5b506104e06108563660046141c4565b611777565b34801561086757600080fd5b506106486117c0565b34801561087c57600080fd5b506104e061088b3660046141c4565b6117c6565b34801561089c57600080fd5b506106486108ab3660046141c4565b611b43565b3480156108bc57600080fd5b506104e0611ba6565b3480156108d157600080fd5b5061058f611bc5565b3480156108e657600080fd5b5061058f611bce565b3480156108fb57600080fd5b506104e0611bdc565b34801561091057600080fd5b506104e061091f3660046141c4565b611c74565b34801561093057600080fd5b50610648611cc5565b34801561094557600080fd5b506104e0610954366004614430565b611ccb565b34801561096557600080fd5b506104e06109743660046141c4565b611e05565b34801561098557600080fd5b506104e0611e35565b34801561099a57600080fd5b50610648611e4c565b3480156109af57600080fd5b506106b4611e52565b3480156109c457600080fd5b506104e06109d3366004614360565b611e66565b3480156109e457600080fd5b506109ed611ea5565b604051610524929190614c5f565b348015610a0757600080fd5b50610648610a163660046141c4565b611ee2565b348015610a2757600080fd5b506104e0611f20565b348015610a3c57600080fd5b5061058f611f99565b348015610a5157600080fd5b5061058f610a603660046141c4565b611fa8565b348015610a7157600080fd5b506104e0610a80366004614416565b611fb5565b348015610a9157600080fd5b50610648612001565b348015610aa657600080fd5b506104e0612007565b348015610abb57600080fd5b506104e0610aca3660046141c4565b612062565b348015610adb57600080fd5b506104e06120e7565b348015610af057600080fd5b5061064861213d565b348015610b0557600080fd5b5061058f612143565b348015610b1a57600080fd5b506105f1611405565b348015610b2f57600080fd5b50610648610b3e3660046141c4565b61214c565b348015610b4f57600080fd5b5061058f612180565b348015610b6457600080fd5b506106b461218e565b348015610b7957600080fd5b506106b461219d565b348015610b8e57600080fd5b506105176121ac565b348015610ba357600080fd5b506104e0610bb23660046143c8565b6121cb565b348015610bc357600080fd5b5061058f610bd23660046141c4565b6122b4565b348015610be357600080fd5b5061058f610bf2366004614274565b6122c9565b348015610c0357600080fd5b5061058f610c12366004614274565b612326565b348015610c2357600080fd5b506104e0610c323660046141c4565b612333565b348015610c4357600080fd5b50610648612363565b348015610c5857600080fd5b50610648612369565b348015610c6d57600080fd5b50610648612390565b348015610c8257600080fd5b506104e0610c91366004614398565b6123d3565b348015610ca257600080fd5b506104e0610cb13660046141c4565b612441565b348015610cc257600080fd5b506104e0610cd1366004614398565b612509565b348015610ce257600080fd5b506104e0612554565b348015610cf757600080fd5b5061058f610d063660046141c4565b612588565b348015610d1757600080fd5b506104e0610d2636600461429f565b612595565b348015610d3757600080fd5b50610648610d463660046141fc565b612614565b348015610d5757600080fd5b506104e0610d663660046141c4565b61263f565b348015610d7757600080fd5b5061064861266f565b348015610d8c57600080fd5b506104e0610d9b3660046141c4565b6126d5565b348015610dac57600080fd5b506104e0610dbb366004614360565b612705565b348015610dcc57600080fd5b50610542612964565b348015610de157600080fd5b50610648612969565b348015610df657600080fd5b506104e0610e05366004614360565b61296f565b348015610e1657600080fd5b506104e0610e253660046141c4565b6129a7565b348015610e3657600080fd5b50610648612a57565b348015610e4b57600080fd5b506104e0610e5a3660046141c4565b612a5d565b348015610e6b57600080fd5b506104e0610e7a366004614360565b612a8d565b610e8833612ada565b610ead5760405162461bcd60e51b8152600401610ea490614a1f565b60405180910390fd5b6040516370a0823160e01b815281906000906001600160a01b038316906370a0823190610ede903090600401614531565b60206040518083038186803b158015610ef657600080fd5b505afa158015610f0a573d6000803e3d6000fd5b505050506040513d601f19601f82011682018060405250810190610f2e91906143b0565b905060008111610f505760405162461bcd60e51b8152600401610ea490614a4b565b60405163a9059cbb60e01b81526001600160a01b0383169063a9059cbb90610f7e903390859060040161455f565b602060405180830381600087803b158015610f9857600080fd5b505af1158015610fac573d6000803e3d6000fd5b505050506040513d601f19601f82011682018060405250810190610fd0919061437c565b50505050565b606061103e6040518060400160405280601a81526020017f54686973206973206e616d65206f6620636f6e7472616374203a0000000000008152506040518060400160405280600f81526020016e5469676572204d756c74696661726d60881b815250612b30565b5060408051808201909152600f81526e5469676572204d756c74696661726d60881b60208201525b90565b601b5460ff1681565b61107b33612ada565b6110975760405162461bcd60e51b8152600401610ea490614a1f565b600f80546001600160a01b0319166001600160a01b0392909216919091179055565b60006110c6338484612b75565b5060015b92915050565b6110d933612ada565b6110f55760405162461bcd60e51b8152600401610ea490614a1f565b611100600982612c29565b5050565b61110e3382612c3e565b50565b606481565b61111f33612ada565b61113b5760405162461bcd60e51b8152600401610ea490614a1f565b602254610100900460ff161561115057600080fd5b6022805462ff00001961ff0019909116610100171662010000179055611178610e1042614ca3565b602355565b61118633612ada565b6111a25760405162461bcd60e51b8152600401610ea490614a1f565b600e805460ff1916911515919091179055565b60215490565b6111c433612ada565b6111e05760405162461bcd60e51b8152600401610ea490614a1f565b602080549115156101000261ff0019909216919091179055565b60105490565b61120c6009600a614d46565b61121e9067016345785d8a0000614e17565b81565b600f546001600160a01b031681565b61123933612ada565b6112555760405162461bcd60e51b8152600401610ea490614a1f565b60018111801561126857506305f5e10081105b6112845760405162461bcd60e51b8152600401610ea490614a82565b61129281633b9aca00614e17565b60155550565b60006112a5848484612f0e565b6001600160a01b0384166000908152600260209081526040808320338452909152902054828110156112e95760405162461bcd60e51b8152600401610ea490614837565b6112fd85336112f88685614e36565b612b75565b60019150505b9392505050565b61131333612ada565b61132f5760405162461bcd60e51b8152600401610ea490614a1f565b6113476e2527a7cbd749423f3d225f7c815819613226565b565b61135233612ada565b61136e5760405162461bcd60e51b8152600401610ea490614a1f565b601480549115156101000261ff0019909216919091179055565b60165460ff650100000000008204811692600160301b8304821692600160381b810483169262010000820481169263010000008304821692640100000000900490911690565b6113d733612ada565b6113f35760405162461bcd60e51b8152600401610ea490614a1f565b61110e6114004283614ca3565b61348f565b603281565b600990565b61141833612ada565b6114345760405162461bcd60e51b8152600401610ea490614a1f565b6001600160a01b03166000908152600d60205260409020805460ff19169055565b600a81565b61146333612ada565b61147f5760405162461bcd60e51b8152600401610ea490614a1f565b601c8054600091829055600e546040519192916101009091046001600160a01b03169083906114ad90611066565b60006040518083038185875af1925050503d80600081146114ea576040519150601f19603f3d011682016040523d82523d6000602084013e6114ef565b606091505b50509050806111005760405162461bcd60e51b8152600401610ea490614b42565b3360008181526002602090815260408083206001600160a01b038716845290915281205490916110c69185906112f8908690614ca3565b61155033612ada565b61156c5760405162461bcd60e51b8152600401610ea490614a1f565b60235442101561158e5760405162461bcd60e51b8152600401610ea4906146f0565b6022546040516370a0823160e01b815263010000009091046001600160a01b03169060009082906370a08231906115c9903090600401614531565b60206040518083038186803b1580156115e157600080fd5b505afa1580156115f5573d6000803e3d6000fd5b505050506040513d601f19601f8201168201806040525081019061161991906143b0565b60245490915060ff16156116e057611633610e1042614ca3565b602355600a611643826002614e17565b61164d9190614ce0565b600e5460405163a9059cbb60e01b81529192506001600160a01b038085169263a9059cbb92611688926101009091041690859060040161455f565b602060405180830381600087803b1580156116a257600080fd5b505af11580156116b6573d6000803e3d6000fd5b505050506040513d601f19601f820116820180604052508101906116da919061437c565b50611100565b600e5460405163a9059cbb60e01b81526001600160a01b038085169263a9059cbb9261171a9261010090920490911690859060040161455f565b602060405180830381600087803b15801561173457600080fd5b505af1158015611748573d6000803e3d6000fd5b505050506040513d601f19601f8201168201806040525081019061176c919061437c565b505050565b601f5481565b61178033612ada565b61179c5760405162461bcd60e51b8152600401610ea490614a1f565b6001600160a01b03166000908152600d60205260409020805460ff19166001179055565b601a5481565b336117cf61219d565b6001600160a01b0316146117f55760405162461bcd60e51b8152600401610ea4906149b3565b60008190506000816001600160a01b031663c45a01556040518163ffffffff1660e01b815260040160206040518083038186803b15801561183557600080fd5b505afa158015611849573d6000803e3d6000fd5b505050506040513d601f19601f8201168201806040525081019061186d91906141e0565b6001600160a01b031663e6a4390530846001600160a01b031663ad5c46486040518163ffffffff1660e01b815260040160206040518083038186803b1580156118b557600080fd5b505afa1580156118c9573d6000803e3d6000fd5b505050506040513d601f19601f820116820180604052508101906118ed91906141e0565b6040518363ffffffff1660e01b815260040161190a929190614545565b60206040518083038186803b15801561192257600080fd5b505afa158015611936573d6000803e3d6000fd5b505050506040513d601f19601f8201168201806040525081019061195a91906141e0565b90506001600160a01b038116611af557816001600160a01b031663c45a01556040518163ffffffff1660e01b815260040160206040518083038186803b1580156119a357600080fd5b505afa1580156119b7573d6000803e3d6000fd5b505050506040513d601f19601f820116820180604052508101906119db91906141e0565b6001600160a01b031663c9c6539630846001600160a01b031663ad5c46486040518163ffffffff1660e01b815260040160206040518083038186803b158015611a2357600080fd5b505afa158015611a37573d6000803e3d6000fd5b505050506040513d601f19601f82011682018060405250810190611a5b91906141e0565b6040518363ffffffff1660e01b8152600401611a78929190614545565b602060405180830381600087803b158015611a9257600080fd5b505af1158015611aa6573d6000803e3d6000fd5b505050506040513d601f19601f82011682018060405250810190611aca91906141e0565b601660086101000a8154816001600160a01b0302191690836001600160a01b03160217905550611b1f565b6016805468010000000000000000600160e01b031916600160401b6001600160a01b038416021790555b50601780546001600160a01b0319166001600160a01b039290921691909117905550565b6000611b4e82611fa8565b15611b7257506001600160a01b0381166000908152601e6020526040902054611ba1565b6001600160a01b0382166000908152601e6020526040902054611b948361349d565b611b9e9190614ca3565b90505b919050565b602154611bb39042614ca3565b33600090815260036020526040902055565b60245460ff1681565b602254610100900460ff1681565b611be533612ada565b611c015760405162461bcd60e51b8152600401610ea490614a1f565b600e5460405160009161010090046001600160a01b0316904790611c2490611066565b60006040518083038185875af1925050503d8060008114611c61576040519150601f19603f3d011682016040523d82523d6000602084013e611c66565b606091505b505090508061110e57600080fd5b611c7d33612ada565b611c995760405162461bcd60e51b8152600401610ea490614a1f565b602280546001600160a01b039092166301000000026301000000600160b81b0319909216919091179055565b60125481565b611cd433612ada565b611cf05760405162461bcd60e51b8152600401610ea490614a1f565b600084611cfd8789614cbb565b611d079190614cbb565b90508060ff16606414611d2c5760405162461bcd60e51b8152600401610ea4906148fc565b601460ff851611801590611d445750601460ff841611155b8015611d545750601460ff831611155b611d705760405162461bcd60e51b8152600401610ea490614ab9565b506016805465ff000000000019166501000000000060ff988916021766ff0000000000001916600160301b968816969096029590951767ff000000000000001916600160381b948716949094029390931762ff0000191662010000928616929092029190911763ff00000019166301000000918516919091021764ff0000000019166401000000009190931602919091179055565b611e0e33612ada565b611e2a5760405162461bcd60e51b8152600401610ea490614a1f565b611100600582612ac5565b6004546113479033906001600160a01b0316612c3e565b601c5481565b600e5461010090046001600160a01b031681565b611e6f33612ada565b611e8b5760405162461bcd60e51b8152600401610ea490614a1f565b601680549115156101000261ff0019909216919091179055565b600080611eb46009600a614d46565b601154611ec19190614ce0565b611ecd6009600a614d46565b601254611eda9190614ce0565b915091509091565b6001600160a01b038116600090815260016020526040812054611f0490613524565b506001600160a01b031660009081526001602052604090205490565b33611f2961219d565b6001600160a01b031614611f4f5760405162461bcd60e51b8152600401610ea4906149b3565b600080546040516001600160a01b03909116907f8be0079c531659141344cd1fd0a4f28419497f9722a3daafe3b4186f6b6457e0908390a3600080546001600160a01b0319169055565b60225462010000900460ff1681565b6000611b9e600b83613567565b611fbe33612ada565b611fda5760405162461bcd60e51b8152600401610ea490614a1f565b605a8160ff161115611feb57600080fd5b601b805460ff191660ff92909216919091179055565b60115481565b61201033612ada565b61202c5760405162461bcd60e51b8152600401610ea490614a1f565b602254610100900460ff16801561204b575060225462010000900460ff165b61205457600080fd5b6022805462ff000019169055565b61206b33612ada565b6120875760405162461bcd60e51b8152600401610ea490614a1f565b61209081611fa8565b61209957600080fd5b6120a4600b82612c29565b506018546001600160a01b0382166000908152600160205260409020546120cb9190614e17565b6001600160a01b039091166000908152601d6020526040902055565b6120f033612ada565b61210c5760405162461bcd60e51b8152600401610ea490614a1f565b6016805460ff191660011790556121316e2527a7cbd749423f3d225f7c815819613226565b6016805460ff19169055565b60185481565b60225460ff1681565b6001600160a01b038116600090815260036020526040812054428111612176576000915050611ba1565b6113034282614e36565b602054610100900460ff1681565b600061219861219d565b905090565b6000546001600160a01b031690565b6040805180820190915260058152642a34b3b2b960d91b602082015290565b6121d433612ada565b6121f05760405162461bcd60e51b8152600401610ea490614a1f565b60326010546121ff9190614ce0565b811061220a57600080fd5b6122166009600a614d46565b6122209083614e17565b915061222e6009600a614d46565b6122389082614e17565b90506000603260ff1660105461224e9190614ce0565b90506000606461ffff166010546122659190614ce0565b9050818410156122875760405162461bcd60e51b8152600401610ea490614797565b808310156122a75760405162461bcd60e51b8152600401610ea49061496b565b5050601191909155601255565b600d6020526000908152604090205460ff1681565b3360009081526002602090815260408083206001600160a01b03861684529091528120548281101561230d5760405162461bcd60e51b8152600401610ea490614ba2565b61231c33856112f88685614e36565b5060019392505050565b60006110c6338484612f0e565b61233c33612ada565b6123585760405162461bcd60e51b8152600401610ea490614a1f565b611100600782612ac5565b60135481565b600060235442101561238a57426023546123839190614e36565b9050611066565b50600090565b600061239e6009600a614d46565b6010546123ad6009600a614d46565b6123bf9067016345785d8a0000614e17565b6123c99190614e36565b6121989190614ce0565b6123dc33612ada565b6123f85760405162461bcd60e51b8152600401610ea490614a1f565b601c5481111561240757600080fd5b80601c60008282546124199190614e36565b9091555050600e5460405160009161010090046001600160a01b03169083906114ad90611066565b61244a33612ada565b6124665760405162461bcd60e51b8152600401610ea490614a1f565b601e612472600b61357c565b1061247c57600080fd5b61248581611fa8565b1561248f57600080fd5b600061249a8261349d565b6018546001600160a01b0384166000908152600160205260409020549192506124c291614e17565b6001600160a01b0383166000908152601d6020908152604080832093909355601e905290812080548392906124f8908490614ca3565b9091555061176c9050600b83612ac5565b61251233612ada565b61252e5760405162461bcd60e51b8152600401610ea490614a1f565b600a81111561254f5760405162461bcd60e51b8152600401610ea490614b6b565b602155565b61255d33612ada565b6125795760405162461bcd60e51b8152600401610ea490614a1f565b6024805460ff19166001179055565b6000611b9e600783613567565b61259e33612ada565b6125ba5760405162461bcd60e51b8152600401610ea490614a1f565b60005b8151811015611100576126018282815181106125e957634e487b7160e01b600052603260045260246000fd5b60200260200101516007612ac590919063ffffffff16565b508061260c81614e4d565b9150506125bd565b6001600160a01b03918216600090815260026020908152604080832093909416825291909152205490565b61264833612ada565b6126645760405162461bcd60e51b8152600401610ea490614a1f565b611100600582612c29565b601054600090815b612681600b61357c565b8110156126cf5760016000612697600b84613587565b6001600160a01b031681526020810191909152604001600020546126bb9083614e36565b9150806126c781614e4d565b915050612677565b50905090565b6126de33612ada565b6126fa5760405162461bcd60e51b8152600401610ea490614a1f565b611100600782612c29565b61270e33612ada565b61272a5760405162461bcd60e51b8152600401610ea490614a1f565b60235442101561274c5760405162461bcd60e51b8152600401610ea4906146f0565b612758610e1042614ca3565b6023556022546040516370a0823160e01b815263010000009091046001600160a01b03169060009082906370a0823190612796903090600401614531565b60206040518083038186803b1580156127ae57600080fd5b505afa1580156127c2573d6000803e3d6000fd5b505050506040513d601f19601f820116820180604052508101906127e691906143b0565b60245490915060ff161561280e57600a612801826002614e17565b61280b9190614ce0565b90505b60175460405163095ea7b360e01b81526001600160a01b038481169263095ea7b3926128429290911690859060040161455f565b602060405180830381600087803b15801561285c57600080fd5b505af1158015612870573d6000803e3d6000fd5b505050506040513d601f19601f82011682018060405250810190612894919061437c565b5060175460405163af2979eb60e01b815247916001600160a01b03169063af2979eb906128d09030908690600090819084904290600401614578565b602060405180830381600087803b1580156128ea57600080fd5b505af11580156128fe573d6000803e3d6000fd5b505050506040513d601f19601f8201168201806040525081019061292291906143b0565b50600061292f8247614e36565b905084156129455761294081613593565b61295d565b80601c60008282546129579190614ca3565b90915550505b5050505050565b601481565b60195481565b61297833612ada565b6129945760405162461bcd60e51b8152600401610ea490614a1f565b6014805460ff1916911515919091179055565b336129b061219d565b6001600160a01b0316146129d65760405162461bcd60e51b8152600401610ea4906149b3565b6001600160a01b0381166129fc5760405162461bcd60e51b8152600401610ea490614751565b600080546040516001600160a01b03808516939216917f8be0079c531659141344cd1fd0a4f28419497f9722a3daafe3b4186f6b6457e091a3600080546001600160a01b0319166001600160a01b0392909216919091179055565b60215481565b612a6633612ada565b612a825760405162461bcd60e51b8152600401610ea490614a1f565b611100600982612ac5565b612a9633612ada565b612ab25760405162461bcd60e51b8152600401610ea490614a1f565b6022805460ff1916911515919091179055565b6000611303836001600160a01b03841661365b565b6000612ae461219d565b6001600160a01b0316826001600160a01b03161480612b155750600e546001600160a01b0383811661010090920416145b80611b9e575050600f546001600160a01b0390811691161490565b6111008282604051602401612b46929190614654565b60408051601f198184030181529190526020810180516001600160e01b0316634b5c427760e01b1790526136a5565b6001600160a01b038316612b9b5760405162461bcd60e51b8152600401610ea4906147e2565b6001600160a01b038216612bc15760405162461bcd60e51b8152600401610ea490614942565b6001600160a01b0380841660008181526002602090815260408083209487168084529490915290819020849055517f8c5be1e5ebec7d5bd14f71427d1e84f3dd0314c0f7b2291e5b200ac8c7c3b92590612c1c908590614c03565b60405180910390a3505050565b6000611303836001600160a01b0384166136c6565b601754600160a01b900460ff1615612c5557600080fd5b6017805460ff60a01b1916600160a01b1790556000612c7383611fa8565b15612c9b57506001600160a01b0382166000908152601e602052604081208054919055612d1b565b6000612ca68461349d565b6001600160a01b038516600090815260016020526040902054601854919250612cce91614e17565b6001600160a01b0385166000908152601d6020908152604080832093909355601e90522054612cfe908290614ca3565b6001600160a01b0385166000908152601e60205260408120559150505b80612d3357506017805460ff60a01b19169055611100565b80601a6000828254612d459190614ca3565b90915550506040805160028082526060820183526000926020830190803683375050601754604080516315ab88c960e31b815290519394506001600160a01b039091169263ad5c464892506004808301926020929190829003018186803b158015612daf57600080fd5b505afa158015612dc3573d6000803e3d6000fd5b505050506040513d601f19601f82011682018060405250810190612de791906141e0565b81600081518110612e0857634e487b7160e01b600052603260045260246000fd5b60200260200101906001600160a01b031690816001600160a01b0316815250508281600181518110612e4a57634e487b7160e01b600052603260045260246000fd5b6001600160a01b03928316602091820292909201015260175460405163b6f9de9560e01b815291169063b6f9de95908490612e909060009086908a9042906004016145be565b6000604051808303818588803b158015612ea957600080fd5b505af1158015612ebd573d6000803e3d6000fd5b50505050507f460fc16181df188bd2ec645a6f6dbe15da259268704aabeb2a5b7c94427e71298285604051612ef3929190614c0c565b60405180910390a150506017805460ff60a01b191690555050565b6001600160a01b038316612f345760405162461bcd60e51b8152600401610ea4906146c4565b6001600160a01b038216612f5a5760405162461bcd60e51b8152600401610ea49061480d565b6000612f67600585613567565b80612f785750612f78600584613567565b9050612f9c6040518060600160405280603c8152602001614eb8603c9139826137dd565b60006001600160a01b038516301480612fbd57506001600160a01b03841630145b9050612ff76040518060400160405280601681526020017534b99031b7b73a3930b1ba103a3930b739b332b9101d60511b815250826137dd565b60175460408051808201909152601881527f50616e63616b65526f757465722061646472657373203a20000000000000000060208201526001600160a01b03909116906130449082613822565b6016546000906001600160a01b03888116600160401b9092041614801561307c5750816001600160a01b0316866001600160a01b0316145b806130b757506016546001600160a01b03878116600160401b909204161480156130b75750816001600160a01b0316876001600160a01b0316145b90506130db604051806060016040528060238152602001614ef460239139826137dd565b6016546000906001600160a01b03898116600160401b9092041614806131125750826001600160a01b0316886001600160a01b0316145b6016549091506000906001600160a01b03898116600160401b90920416148061314c5750836001600160a01b0316886001600160a01b0316145b905061317860405180604001604052806008815260200167313abcb4b733901d60c11b815250836137dd565b6131a36040518060400160405280600981526020016839b2b63634b733901d60b91b815250826137dd565b84806131ac5750825b806131b45750855b156131c9576131c4898989613867565b61321b565b602254610100900460ff166131f05760405162461bcd60e51b8152600401610ea4906149e8565b60225462010000900460ff161561320e576131c48989898585613905565b61321b89898985856139a6565b505050505050505050565b6020805460ff1916600190811782553060009081529152604081205460165490919061326690600160381b810460ff90811691600160301b900416614cbb565b60ff16905060006064601254600a61327e9190614e17565b6132889190614ce0565b60145490915060ff161561329b57506015545b601454610100900460ff1680156132b5575060145460ff16155b1561332057739ac64cc6e4415144c455bd8e4837fea55603e5c360005260016020527f0ff35b3c45b207dc53a17634d9a4dc2f4214a4649080c419fa119f08e9a2b8a25460105460649161330891614e36565b613313906005614e17565b61331d9190614ce0565b90505b601654610100900460ff166e2527a7cbd749423f3d225f7c81581985141561334e576016805461ff00191690555b601654610100900460ff1615613374578482111561337457613371600186614e36565b91505b6016805461ff00191661010083151502179081905560ff161561339f5761339c600185614e36565b91505b818410806133af575061ffff8316155b156133bd5750505050613482565b60165460009061ffff8516906133dd90600160301b900460ff1685614e17565b6133e79190614ce0565b905060006133f58285614e36565b90506000613404600284614ce0565b905060006134128285614e36565b905060006134208483614ca3565b90504761342c82613d38565b60006134388247614e36565b90506000836134478684614e17565b6134519190614ce0565b905061345d8682613ebc565b60006134698447614e36565b905061347481613593565b505050505050505050505050505b506020805460ff19169055565b602354811161117857600080fd5b6001600160a01b03811660009081526001602052604081205460185482916134c491614e17565b6001600160a01b0384166000908152601d60205260409020549091508110156134f1576000915050611ba1565b6001600160a01b0383166000908152601d6020526040902054600160401b9061351a9083614e36565b6113039190614ce0565b61110e816040516024016135389190614c03565b60408051601f198184030181529190526020810180516001600160e01b031663f5b1bba960e01b1790526136a5565b6000611303836001600160a01b038416613f7a565b6000611b9e82613f92565b60006113038383613f96565b601b546000906064906135a99060ff1684614e17565b6135b39190614ce0565b905060006135c18284614e36565b905081601c60008282546135d59190614ca3565b9091555050801561176c5780601960008282546135f29190614ca3565b909155506000905061360261266f565b9050806136265781601c600082825461361b9190614ca3565b90915550610fd09050565b80613635600160401b84614e17565b61363f9190614ce0565b601860008282546136509190614ca3565b909155505050505050565b60006136678383613f7a565b61369d575081546001818101845560008481526020808220909301849055845484825282860190935260409020919091556110ca565b5060006110ca565b80516a636f6e736f6c652e6c6f67602083016000808483855afa5050505050565b600081815260018301602052604081205480156137d35760006136ea600183614e36565b85549091506000906136fe90600190614e36565b9050600086600001828154811061372557634e487b7160e01b600052603260045260246000fd5b906000526020600020015490508087600001848154811061375657634e487b7160e01b600052603260045260246000fd5b60009182526020808320909101929092558281526001890190915260409020849055865487908061379757634e487b7160e01b600052603160045260246000fd5b600190038181906000526020600020016000905590558660010160008781526020019081526020016000206000905560019450505050506110ca565b60009150506110ca565b61110082826040516024016137f3929190614630565b60408051601f198184030181529190526020810180516001600160e01b031663c3b5563560e01b1790526136a5565b6111008282604051602401613838929190614606565b60408051601f198184030181529190526020810180516001600160e01b031663319af33360e01b1790526136a5565b6001600160a01b038316600090815260016020526040902054818110156138a05760405162461bcd60e51b8152600401610ea49061471a565b6138aa8483613fef565b6138b483836140ae565b826001600160a01b0316846001600160a01b03167fddf252ad1be2c89b69c2b068fc378daa952ba7f163c4a11628f55a4df523b3ef846040516138f79190614c03565b60405180910390a350505050565b8061399d57613915600785613567565b6139315760405162461bcd60e51b8152600401610ea4906148c5565b603261393f6009600a614d46565b6139519067016345785d8a0000614e17565b61395b9190614ce0565b6001600160a01b03851660009081526001602052604090205461397f908590614ca3565b111561399d5760405162461bcd60e51b8152600401610ea490614865565b61295d85858585855b6001600160a01b03808516600090815260016020526040808220549288168252902054848110156139e95760405162461bcd60e51b8152600401610ea49061471a565b60008315613ad757600e5460ff1615613a22576001600160a01b0388166000908152600d602052604090205460ff1615613a2257600080fd5b613a2d600989613567565b613aa2576001600160a01b03881660009081526003602052604090205442101580613a5f5750602054610100900460ff165b613a7b5760405162461bcd60e51b8152600401610ea490614bc8565b602154613a889042614ca3565b6001600160a01b0389166000908152600360205260409020555b601254861115613ac45760405162461bcd60e51b8152600401610ea49061489c565b506016546301000000900460ff16613bd7565b8415613b1a57601154613aea8785614ca3565b1115613b085760405162461bcd60e51b8152600401610ea490614af0565b5060165462010000900460ff16613bd7565b613b266009600a614d46565b8611613b4357600454613b439089906001600160a01b0316612c3e565b601154613b508785614ca3565b1115613b6e5760405162461bcd60e51b8152600401610ea490614af0565b613b79600989613567565b613bc7576001600160a01b03881660009081526003602052604090205442101580613bab5750602054610100900460ff165b613bc75760405162461bcd60e51b8152600401610ea490614b1a565b50601654640100000000900460ff165b6016546001600160a01b03898116600160401b9092041614801590613bff575060225460ff16155b8015613c0e575060205460ff16155b8015613c175750835b15613c2557613c2586613226565b6000613c418783601660059054906101000a900460ff16614174565b601654909150600090613c749089908590613c6f9060ff600160301b8204811691600160381b900416614cbb565b614174565b90506000613c828284614ca3565b613c8c908a614e36565b9050613c988b8a613fef565b3060009081526001602052604081208054849290613cb7908490614ca3565b925050819055508260106000828254613cd09190614e36565b90915550613ce090508a826140ae565b896001600160a01b03168b6001600160a01b03167fddf252ad1be2c89b69c2b068fc378daa952ba7f163c4a11628f55a4df523b3ef83604051613d239190614c03565b60405180910390a35050505050505050505050565b601754613d509030906001600160a01b031683612b75565b6040805160028082526060820183526000926020830190803683370190505090503081600081518110613d9357634e487b7160e01b600052603260045260246000fd5b6001600160a01b03928316602091820292909201810191909152601754604080516315ab88c960e31b81529051919093169263ad5c4648926004808301939192829003018186803b158015613de757600080fd5b505afa158015613dfb573d6000803e3d6000fd5b505050506040513d601f19601f82011682018060405250810190613e1f91906141e0565b81600181518110613e4057634e487b7160e01b600052603260045260246000fd5b6001600160a01b03928316602091820292909201015260175460405163791ac94760e01b815291169063791ac94790613e86908590600090869030904290600401614c23565b600060405180830381600087803b158015613ea057600080fd5b505af1158015613eb4573d6000803e3d6000fd5b505050505050565b80601f6000828254613ece9190614ca3565b9091555050601754613eeb9030906001600160a01b031684612b75565b60175460405163f305d71960e01b81526001600160a01b039091169063f305d719908390613f289030908790600090819084904290600401614578565b6060604051808303818588803b158015613f4157600080fd5b505af1158015613f55573d6000803e3d6000fd5b50505050506040513d601f19601f8201168201806040525081019061295d91906143e9565b60009081526001919091016020526040902054151590565b5490565b81546000908210613fb95760405162461bcd60e51b8152600401610ea490614682565b826000018281548110613fdc57634e487b7160e01b600052603260045260246000fd5b9060005260206000200154905092915050565b6001600160a01b038216600090815260016020526040812054614013908390614e36565b905061401e83611fa8565b15614041576001600160a01b038316600090815260016020526040902055611100565b600061404c8461349d565b6001600160a01b0385166000908152600160205260409020839055601854909150614078908390614e17565b6001600160a01b0385166000908152601d6020908152604080832093909355601e90529081208054839290613650908490614ca3565b6001600160a01b0382166000908152600160205260408120546140d2908390614ca3565b90506140dd83611fa8565b15614100576001600160a01b038316600090815260016020526040902055611100565b600061410b8461349d565b90508160185461411b9190614e17565b6001600160a01b0385166000908152601d6020908152604080832093909355601e90529081208054839290614151908490614ca3565b9091555050506001600160a01b0383166000908152600160205260409020555050565b60006127108260ff168460ff168661418c9190614e17565b6141969190614e17565b6141a09190614ce0565b949350505050565b8035611ba181614e94565b803560ff81168114611ba157600080fd5b6000602082840312156141d5578081fd5b813561130381614e94565b6000602082840312156141f1578081fd5b815161130381614e94565b6000806040838503121561420e578081fd5b823561421981614e94565b9150602083013561422981614e94565b809150509250929050565b600080600060608486031215614248578081fd5b833561425381614e94565b9250602084013561426381614e94565b929592945050506040919091013590565b60008060408385031215614286578182fd5b823561429181614e94565b946020939093013593505050565b600060208083850312156142b1578182fd5b823567ffffffffffffffff808211156142c8578384fd5b818501915085601f8301126142db578384fd5b8135818111156142ed576142ed614e7e565b8381026040518582820101818110858211171561430c5761430c614e7e565b604052828152858101935084860182860187018a101561432a578788fd5b8795505b838610156143535761433f816141a8565b85526001959095019493860193860161432e565b5098975050505050505050565b600060208284031215614371578081fd5b813561130381614ea9565b60006020828403121561438d578081fd5b815161130381614ea9565b6000602082840312156143a9578081fd5b5035919050565b6000602082840312156143c1578081fd5b5051919050565b600080604083850312156143da578182fd5b50508035926020909101359150565b6000806000606084860312156143fd578283fd5b8351925060208401519150604084015190509250925092565b600060208284031215614427578081fd5b611303826141b3565b60008060008060008060c08789031215614448578182fd5b614451876141b3565b955061445f602088016141b3565b945061446d604088016141b3565b935061447b606088016141b3565b9250614489608088016141b3565b915061449760a088016141b3565b90509295509295509295565b6000815180845260208085019450808401835b838110156144db5781516001600160a01b0316875295820195908201906001016144b6565b509495945050505050565b60008151808452815b8181101561450b576020818501810151868301820152016144ef565b8181111561451c5782602083870101525b50601f01601f19169290920160200192915050565b6001600160a01b0391909116815260200190565b6001600160a01b0392831681529116602082015260400190565b6001600160a01b03929092168252602082015260400190565b6001600160a01b039687168152602081019590955260408501939093526060840191909152909216608082015260a081019190915260c00190565b901515815260200190565b6000858252608060208301526145d760808301866144a3565b6001600160a01b03949094166040830152506060015292915050565b60006020825261130360208301846144e6565b60006040825261461960408301856144e6565b905060018060a01b03831660208301529392505050565b60006040825261464360408301856144e6565b905082151560208301529392505050565b60006040825261466760408301856144e6565b828103602084015261467981856144e6565b95945050505050565b60208082526022908201527f456e756d657261626c655365743a20696e646578206f7574206f6620626f756e604082015261647360f01b606082015260800190565b6020808252601290820152715472616e736665722066726f6d207a65726f60701b604082015260600190565b60208082526010908201526f139bdd081e595d081d5b9b1bd8dad95960821b604082015260600190565b60208082526018908201527f5472616e7366657220657863656564732062616c616e63650000000000000000604082015260600190565b60208082526026908201527f4f776e61626c653a206e6577206f776e657220697320746865207a65726f206160408201526564647265737360d01b606082015260800190565b6020808252602b908201527f6e657742616c616e63654c696d6974206e6565647320746f206265206174206c60408201526a19585cdd081d185c99d95d60aa1b606082015260800190565b602080825260119082015270417070726f76652066726f6d207a65726f60781b604082015260600190565b60208082526010908201526f5472616e7366657220746f207a65726f60801b604082015260600190565b6020808252601490820152735472616e73666572203e20616c6c6f77616e636560601b604082015260600190565b6020808252601c908201527f616d6f756e7420657863656564732077686974656c697374206d617800000000604082015260600190565b6020808252600f908201526e223ab6b810383937ba32b1ba34b7b760891b604082015260600190565b6020808252601a908201527f726563697069656e74206e6f74206f6e2077686974656c697374000000000000604082015260600190565b60208082526026908201527f6275726e2b6c69712b6d61726b6574696e67206e6565647320746f20657175616040820152656c203130302560d01b606082015260800190565b6020808252600f908201526e417070726f766520746f207a65726f60881b604082015260600190565b60208082526028908201527f6e657753656c6c4c696d6974206e6565647320746f206265206174206c6561736040820152671d081d185c99d95d60c21b606082015260800190565b6020808252818101527f4f776e61626c653a2063616c6c6572206973206e6f7420746865206f776e6572604082015260600190565b60208082526017908201527f74726164696e67206e6f742079657420656e61626c6564000000000000000000604082015260600190565b60208082526012908201527143616c6c6572206e6f7420696e205465616d60701b604082015260600190565b60208082526018908201527f4e6f20746f6b656e7320696e206f75722062616c616e63650000000000000000604082015260600190565b6020808252601e908201527f56616c756573206265747765656e203120616e64203130303030303030300000604082015260600190565b60208082526019908201527f746178657320686967686572207468616e206d61782074617800000000000000604082015260600190565b60208082526010908201526f3bb430b63290383937ba32b1ba34b7b760811b604082015260600190565b6020808252600e908201526d53656e64657220696e204c6f636b60901b604082015260600190565b6020808252600f908201526e1dda5d1a191c985dc819985a5b1959608a1b604082015260600190565b60208082526017908201527f53656c6c204c6f636b2074696d6520746f6f2068696768000000000000000000604082015260600190565b6020808252600c908201526b3c3020616c6c6f77616e636560a01b604082015260600190565b60208082526012908201527153656c6c657220696e2073656c6c4c6f636b60701b604082015260600190565b61ffff91909116815260200190565b90815260200190565b9182526001600160a01b0316602082015260400190565b600086825285602083015260a06040830152614c4260a08301866144a3565b6001600160a01b0394909416606083015250608001529392505050565b918252602082015260400190565b958652602086019490945260408501929092526060840152608083015260a082015260c00190565b60ff91909116815260200190565b60008219821115614cb657614cb6614e68565b500190565b600060ff821660ff84168060ff03821115614cd857614cd8614e68565b019392505050565b600082614cfb57634e487b7160e01b81526012600452602481fd5b500490565b80825b6001808611614d125750614d3d565b818704821115614d2457614d24614e68565b80861615614d3157918102915b9490941c938002614d03565b94509492505050565b600061130360001960ff851684600082614d6257506001611303565b81614d6f57506000611303565b8160018114614d855760028114614d8f57614dbc565b6001915050611303565b60ff841115614da057614da0614e68565b6001841b915084821115614db657614db6614e68565b50611303565b5060208310610133831016604e8410600b8410161715614def575081810a83811115614dea57614dea614e68565b611303565b614dfc8484846001614d00565b808604821115614e0e57614e0e614e68565b02949350505050565b6000816000190483118215151615614e3157614e31614e68565b500290565b600082821015614e4857614e48614e68565b500390565b6000600019821415614e6157614e61614e68565b5060010190565b634e487b7160e01b600052601160045260246000fd5b634e487b7160e01b600052604160045260246000fd5b6001600160a01b038116811461110e57600080fd5b801515811461110e57600080fdfe4d616e75616c6c79204578636c7564656420616472657373657320617265207472616e73666572696e672074617820616e64206c6f636b20667265657472616e73666572206265747765656e20726f7574657220616e642070616e63616b65a2646970667358221220cf613303f80c88598e2167192a23fdfa5c97938b78d7d098368a8fe291e2e7d364736f6c63430008000033ddf252ad1be2c89b69c2b068fc378daa952ba7f163c4a11628f55a4df523b3ef",
  "linkReferences": {},
  "deployedLinkReferences": {}
}