{
  "_format": "hh-sol-artifact-1",
  "contractName": "Tiger",
  "sourceName": "contracts/Tiger.sol",
  "abi": [
    {
      "inputs": [],
      "stateMutability": "nonpayable",
      "type": "constructor"
    },
    {
      "anonymous": false,
      "inputs": [
        {
          "indexed": true,
          "internalType": "address",
          "name": "owner",
          "type": "address"
        },
        {
          "indexed": true,
          "internalType": "address",
          "name": "spender",
          "type": "address"
        },
        {
          "indexed": false,
          "internalType": "uint256",
          "name": "value",
          "type": "uint256"
        }
      ],
      "name": "Approval",
      "type": "event"
    },
    {
      "anonymous": false,
      "inputs": [
        {
          "indexed": false,
          "internalType": "uint256",
          "name": "amount",
          "type": "uint256"
        },
        {
          "indexed": false,
          "internalType": "address",
          "name": "recipient",
          "type": "address"
        }
      ],
      "name": "OnWithdrawFarmedToken",
      "type": "event"
    },
    {
      "anonymous": false,
      "inputs": [
        {
          "indexed": true,
          "internalType": "address",
          "name": "previousOwner",
          "type": "address"
        },
        {
          "indexed": true,
          "internalType": "address",
          "name": "newOwner",
          "type": "address"
        }
      ],
      "name": "OwnershipTransferred",
      "type": "event"
    },
    {
      "anonymous": false,
      "inputs": [
        {
          "indexed": true,
          "internalType": "address",
          "name": "from",
          "type": "address"
        },
        {
          "indexed": true,
          "internalType": "address",
          "name": "to",
          "type": "address"
        },
        {
          "indexed": false,
          "internalType": "uint256",
          "name": "value",
          "type": "uint256"
        }
      ],
      "name": "Transfer",
      "type": "event"
    },
    {
      "stateMutability": "payable",
      "type": "fallback"
    },
    {
      "inputs": [],
      "name": "AddressResetSellLock",
      "outputs": [],
      "stateMutability": "nonpayable",
      "type": "function"
    },
    {
      "inputs": [],
      "name": "BalanceLimitDivider",
      "outputs": [
        {
          "internalType": "uint8",
          "name": "",
          "type": "uint8"
        }
      ],
      "stateMutability": "view",
      "type": "function"
    },
    {
      "inputs": [
        {
          "internalType": "address",
          "name": "tokenAddress",
          "type": "address"
        }
      ],
      "name": "FarmedTokenWithdraw",
      "outputs": [],
      "stateMutability": "nonpayable",
      "type": "function"
    },
    {
      "inputs": [],
      "name": "InitialSupply",
      "outputs": [
        {
          "internalType": "uint256",
          "name": "",
          "type": "uint256"
        }
      ],
      "stateMutability": "view",
      "type": "function"
    },
    {
      "inputs": [],
      "name": "MaxSellLockTime",
      "outputs": [
        {
          "internalType": "uint16",
          "name": "",
          "type": "uint16"
        }
      ],
      "stateMutability": "view",
      "type": "function"
    },
    {
      "inputs": [],
      "name": "MaxTax",
      "outputs": [
        {
          "internalType": "uint8",
          "name": "",
          "type": "uint8"
        }
      ],
      "stateMutability": "view",
      "type": "function"
    },
    {
      "inputs": [],
      "name": "SecondTeamWallet",
      "outputs": [
        {
          "internalType": "address",
          "name": "",
          "type": "address"
        }
      ],
      "stateMutability": "view",
      "type": "function"
    },
    {
      "inputs": [],
      "name": "SellLimitDivider",
      "outputs": [
        {
          "internalType": "uint16",
          "name": "",
          "type": "uint16"
        }
      ],
      "stateMutability": "view",
      "type": "function"
    },
    {
      "inputs": [
        {
          "internalType": "address[]",
          "name": "addressesToAdd",
          "type": "address[]"
        }
      ],
      "name": "SetupAddArrayToWhitelist",
      "outputs": [],
      "stateMutability": "nonpayable",
      "type": "function"
    },
    {
      "inputs": [
        {
          "internalType": "address",
          "name": "addressToAdd",
          "type": "address"
        }
      ],
      "name": "SetupAddToWhitelist",
      "outputs": [],
      "stateMutability": "nonpayable",
      "type": "function"
    },
    {
      "inputs": [],
      "name": "SetupEnableTrading",
      "outputs": [],
      "stateMutability": "nonpayable",
      "type": "function"
    },
    {
      "inputs": [],
      "name": "SetupEnableWhitelistTrading",
      "outputs": [],
      "stateMutability": "nonpayable",
      "type": "function"
    },
    {
      "inputs": [
        {
          "internalType": "address",
          "name": "liquidityTokenAddress",
          "type": "address"
        }
      ],
      "name": "SetupLiquidityTokenAddress",
      "outputs": [],
      "stateMutability": "nonpayable",
      "type": "function"
    },
    {
      "inputs": [
        {
          "internalType": "address",
          "name": "addressToRemove",
          "type": "address"
        }
      ],
      "name": "SetupRemoveFromWhitelist",
      "outputs": [],
      "stateMutability": "nonpayable",
      "type": "function"
    },
    {
      "inputs": [
        {
          "internalType": "uint8",
          "name": "newShare",
          "type": "uint8"
        }
      ],
      "name": "TeamChangeMarketingShare",
      "outputs": [],
      "stateMutability": "nonpayable",
      "type": "function"
    },
    {
      "inputs": [],
      "name": "TeamCreateLPandETH",
      "outputs": [],
      "stateMutability": "nonpayable",
      "type": "function"
    },
    {
      "inputs": [
        {
          "internalType": "bool",
          "name": "disabled",
          "type": "bool"
        }
      ],
      "name": "TeamDisableSellLock",
      "outputs": [],
      "stateMutability": "nonpayable",
      "type": "function"
    },
    {
      "inputs": [
        {
          "internalType": "address",
          "name": "account",
          "type": "address"
        }
      ],
      "name": "TeamExcludeAccountFromFees",
      "outputs": [],
      "stateMutability": "nonpayable",
      "type": "function"
    },
    {
      "inputs": [
        {
          "internalType": "address",
          "name": "account",
          "type": "address"
        }
      ],
      "name": "TeamExcludeAccountFromSellLock",
      "outputs": [],
      "stateMutability": "nonpayable",
      "type": "function"
    },
    {
      "inputs": [
        {
          "internalType": "address",
          "name": "addr",
          "type": "address"
        }
      ],
      "name": "TeamExcludeFromStaking",
      "outputs": [],
      "stateMutability": "nonpayable",
      "type": "function"
    },
    {
      "inputs": [
        {
          "internalType": "address",
          "name": "account",
          "type": "address"
        }
      ],
      "name": "TeamIncludeAccountToFees",
      "outputs": [],
      "stateMutability": "nonpayable",
      "type": "function"
    },
    {
      "inputs": [
        {
          "internalType": "address",
          "name": "account",
          "type": "address"
        }
      ],
      "name": "TeamIncludeAccountToSellLock",
      "outputs": [],
      "stateMutability": "nonpayable",
      "type": "function"
    },
    {
      "inputs": [
        {
          "internalType": "address",
          "name": "addr",
          "type": "address"
        }
      ],
      "name": "TeamIncludeToStaking",
      "outputs": [],
      "stateMutability": "nonpayable",
      "type": "function"
    },
    {
      "inputs": [],
      "name": "TeamReleaseLiquidity",
      "outputs": [],
      "stateMutability": "nonpayable",
      "type": "function"
    },
    {
      "inputs": [
        {
          "internalType": "bool",
          "name": "addToStaking",
          "type": "bool"
        }
      ],
      "name": "TeamRemoveLiquidity",
      "outputs": [],
      "stateMutability": "nonpayable",
      "type": "function"
    },
    {
      "inputs": [],
      "name": "TeamRemoveRemainingETH",
      "outputs": [],
      "stateMutability": "nonpayable",
      "type": "function"
    },
    {
      "inputs": [],
      "name": "TeamSellAllTokens",
      "outputs": [],
      "stateMutability": "nonpayable",
      "type": "function"
    },
    {
      "inputs": [
        {
          "internalType": "uint256",
          "name": "sellLockSeconds",
          "type": "uint256"
        }
      ],
      "name": "TeamSetSellLockTime",
      "outputs": [],
      "stateMutability": "nonpayable",
      "type": "function"
    },
    {
      "inputs": [
        {
          "internalType": "uint8",
          "name": "burnTaxes",
          "type": "uint8"
        },
        {
          "internalType": "uint8",
          "name": "liquidityTaxes",
          "type": "uint8"
        },
        {
          "internalType": "uint8",
          "name": "stakingTaxes",
          "type": "uint8"
        },
        {
          "internalType": "uint8",
          "name": "buyTax",
          "type": "uint8"
        },
        {
          "internalType": "uint8",
          "name": "sellTax",
          "type": "uint8"
        },
        {
          "internalType": "uint8",
          "name": "transferTax",
          "type": "uint8"
        }
      ],
      "name": "TeamSetTaxes",
      "outputs": [],
      "stateMutability": "nonpayable",
      "type": "function"
    },
    {
      "inputs": [
        {
          "internalType": "bool",
          "name": "setter",
          "type": "bool"
        }
      ],
      "name": "TeamSwapSetAutoUpdateLiqSell",
      "outputs": [],
      "stateMutability": "nonpayable",
      "type": "function"
    },
    {
      "inputs": [
        {
          "internalType": "bool",
          "name": "setter",
          "type": "bool"
        }
      ],
      "name": "TeamSwapSetManualLiqSell",
      "outputs": [],
      "stateMutability": "nonpayable",
      "type": "function"
    },
    {
      "inputs": [
        {
          "internalType": "uint256",
          "name": "amount",
          "type": "uint256"
        }
      ],
      "name": "TeamSwapSetManualLiqSellTokens",
      "outputs": [],
      "stateMutability": "nonpayable",
      "type": "function"
    },
    {
      "inputs": [
        {
          "internalType": "bool",
          "name": "setter",
          "type": "bool"
        }
      ],
      "name": "TeamSwapSetSellPeg",
      "outputs": [],
      "stateMutability": "nonpayable",
      "type": "function"
    },
    {
      "inputs": [
        {
          "internalType": "bool",
          "name": "manual",
          "type": "bool"
        }
      ],
      "name": "TeamSwapSwitchManualETHConversion",
      "outputs": [],
      "stateMutability": "nonpayable",
      "type": "function"
    },
    {
      "inputs": [
        {
          "internalType": "uint256",
          "name": "secondsUntilUnlock",
          "type": "uint256"
        }
      ],
      "name": "TeamUnlockLiquidityInSeconds",
      "outputs": [],
      "stateMutability": "nonpayable",
      "type": "function"
    },
    {
      "inputs": [
        {
          "internalType": "uint256",
          "name": "newBalanceLimit",
          "type": "uint256"
        },
        {
          "internalType": "uint256",
          "name": "newSellLimit",
          "type": "uint256"
        }
      ],
      "name": "TeamUpdateLimits",
      "outputs": [],
      "stateMutability": "nonpayable",
      "type": "function"
    },
    {
      "inputs": [],
      "name": "TeamWallet",
      "outputs": [
        {
          "internalType": "address",
          "name": "",
          "type": "address"
        }
      ],
      "stateMutability": "view",
      "type": "function"
    },
    {
      "inputs": [],
      "name": "TeamWithdrawMarketingETH",
      "outputs": [],
      "stateMutability": "nonpayable",
      "type": "function"
    },
    {
      "inputs": [
        {
          "internalType": "uint256",
          "name": "amount",
          "type": "uint256"
        }
      ],
      "name": "TeamWithdrawMarketingETH",
      "outputs": [],
      "stateMutability": "nonpayable",
      "type": "function"
    },
    {
      "inputs": [],
      "name": "TeamlimitLiquidityReleaseTo20Percent",
      "outputs": [],
      "stateMutability": "nonpayable",
      "type": "function"
    },
    {
      "inputs": [],
      "name": "WETHWithdraw",
      "outputs": [],
      "stateMutability": "nonpayable",
      "type": "function"
    },
    {
      "inputs": [],
      "name": "WhiteListBalanceLimitDivider",
      "outputs": [
        {
          "internalType": "uint16",
          "name": "",
          "type": "uint16"
        }
      ],
      "stateMutability": "view",
      "type": "function"
    },
    {
      "inputs": [
        {
          "internalType": "address",
          "name": "",
          "type": "address"
        }
      ],
      "name": "_blacklist",
      "outputs": [
        {
          "internalType": "bool",
          "name": "",
          "type": "bool"
        }
      ],
      "stateMutability": "view",
      "type": "function"
    },
    {
      "inputs": [],
      "name": "_getTotalShares",
      "outputs": [
        {
          "internalType": "uint256",
          "name": "",
          "type": "uint256"
        }
      ],
      "stateMutability": "view",
      "type": "function"
    },
    {
      "inputs": [
        {
          "internalType": "address",
          "name": "_owner",
          "type": "address"
        },
        {
          "internalType": "address",
          "name": "spender",
          "type": "address"
        }
      ],
      "name": "allowance",
      "outputs": [
        {
          "internalType": "uint256",
          "name": "",
          "type": "uint256"
        }
      ],
      "stateMutability": "view",
      "type": "function"
    },
    {
      "inputs": [
        {
          "internalType": "address",
          "name": "spender",
          "type": "address"
        },
        {
          "internalType": "uint256",
          "name": "amount",
          "type": "uint256"
        }
      ],
      "name": "approve",
      "outputs": [
        {
          "internalType": "bool",
          "name": "",
          "type": "bool"
        }
      ],
      "stateMutability": "nonpayable",
      "type": "function"
    },
    {
      "inputs": [],
      "name": "balanceLimit",
      "outputs": [
        {
          "internalType": "uint256",
          "name": "",
          "type": "uint256"
        }
      ],
      "stateMutability": "view",
      "type": "function"
    },
    {
      "inputs": [
        {
          "internalType": "address",
          "name": "account",
          "type": "address"
        }
      ],
      "name": "balanceOf",
      "outputs": [
        {
          "internalType": "uint256",
          "name": "",
          "type": "uint256"
        }
      ],
      "stateMutability": "view",
      "type": "function"
    },
    {
      "inputs": [],
      "name": "decimals",
      "outputs": [
        {
          "internalType": "uint8",
          "name": "",
          "type": "uint8"
        }
      ],
      "stateMutability": "pure",
      "type": "function"
    },
    {
      "inputs": [
        {
          "internalType": "address",
          "name": "spender",
          "type": "address"
        },
        {
          "internalType": "uint256",
          "name": "subtractedValue",
          "type": "uint256"
        }
      ],
      "name": "decreaseAllowance",
      "outputs": [
        {
          "internalType": "bool",
          "name": "",
          "type": "bool"
        }
      ],
      "stateMutability": "nonpayable",
      "type": "function"
    },
    {
      "inputs": [
        {
          "internalType": "address",
          "name": "AddressToCheck",
          "type": "address"
        }
      ],
      "name": "getAddressSellLockTimeInSeconds",
      "outputs": [
        {
          "internalType": "uint256",
          "name": "",
          "type": "uint256"
        }
      ],
      "stateMutability": "view",
      "type": "function"
    },
    {
      "inputs": [],
      "name": "getBurnedTokens",
      "outputs": [
        {
          "internalType": "uint256",
          "name": "",
          "type": "uint256"
        }
      ],
      "stateMutability": "view",
      "type": "function"
    },
    {
      "inputs": [
        {
          "internalType": "address",
          "name": "addr",
          "type": "address"
        }
      ],
      "name": "getDividends",
      "outputs": [
        {
          "internalType": "uint256",
          "name": "",
          "type": "uint256"
        }
      ],
      "stateMutability": "view",
      "type": "function"
    },
    {
      "inputs": [],
      "name": "getLimits",
      "outputs": [
        {
          "internalType": "uint256",
          "name": "balance",
          "type": "uint256"
        },
        {
          "internalType": "uint256",
          "name": "sell",
          "type": "uint256"
        }
      ],
      "stateMutability": "view",
      "type": "function"
    },
    {
      "inputs": [],
      "name": "getLiquidityReleaseTimeInSeconds",
      "outputs": [
        {
          "internalType": "uint256",
          "name": "",
          "type": "uint256"
        }
      ],
      "stateMutability": "view",
      "type": "function"
    },
    {
      "inputs": [],
      "name": "getOwner",
      "outputs": [
        {
          "internalType": "address",
          "name": "",
          "type": "address"
        }
      ],
      "stateMutability": "view",
      "type": "function"
    },
    {
      "inputs": [],
      "name": "getSellLockTimeInSeconds",
      "outputs": [
        {
          "internalType": "uint256",
          "name": "",
          "type": "uint256"
        }
      ],
      "stateMutability": "view",
      "type": "function"
    },
    {
      "inputs": [],
      "name": "getTaxes",
      "outputs": [
        {
          "internalType": "uint256",
          "name": "burnTax",
          "type": "uint256"
        },
        {
          "internalType": "uint256",
          "name": "liquidityTax",
          "type": "uint256"
        },
        {
          "internalType": "uint256",
          "name": "marketingTax",
          "type": "uint256"
        },
        {
          "internalType": "uint256",
          "name": "buyTax",
          "type": "uint256"
        },
        {
          "internalType": "uint256",
          "name": "sellTax",
          "type": "uint256"
        },
        {
          "internalType": "uint256",
          "name": "transferTax",
          "type": "uint256"
        }
      ],
      "stateMutability": "view",
      "type": "function"
    },
    {
      "inputs": [
        {
          "internalType": "address",
          "name": "AddressToCheck",
          "type": "address"
        }
      ],
      "name": "getWhitelistedStatus",
      "outputs": [
        {
          "internalType": "bool",
          "name": "",
          "type": "bool"
        }
      ],
      "stateMutability": "view",
      "type": "function"
    },
    {
      "inputs": [
        {
          "internalType": "address",
          "name": "spender",
          "type": "address"
        },
        {
          "internalType": "uint256",
          "name": "addedValue",
          "type": "uint256"
        }
      ],
      "name": "increaseAllowance",
      "outputs": [
        {
          "internalType": "bool",
          "name": "",
          "type": "bool"
        }
      ],
      "stateMutability": "nonpayable",
      "type": "function"
    },
    {
      "inputs": [
        {
          "internalType": "address",
          "name": "addr",
          "type": "address"
        }
      ],
      "name": "isExcludedFromStaking",
      "outputs": [
        {
          "internalType": "bool",
          "name": "",
          "type": "bool"
        }
      ],
      "stateMutability": "view",
      "type": "function"
    },
    {
      "inputs": [],
      "name": "liquidityRelease20Percent",
      "outputs": [
        {
          "internalType": "bool",
          "name": "",
          "type": "bool"
        }
      ],
      "stateMutability": "view",
      "type": "function"
    },
    {
      "inputs": [],
      "name": "manualConversion",
      "outputs": [
        {
          "internalType": "bool",
          "name": "",
          "type": "bool"
        }
      ],
      "stateMutability": "view",
      "type": "function"
    },
    {
      "inputs": [],
      "name": "marketingBalance",
      "outputs": [
        {
          "internalType": "uint256",
          "name": "",
          "type": "uint256"
        }
      ],
      "stateMutability": "view",
      "type": "function"
    },
    {
      "inputs": [],
      "name": "marketingShare",
      "outputs": [
        {
          "internalType": "uint8",
          "name": "",
          "type": "uint8"
        }
      ],
      "stateMutability": "view",
      "type": "function"
    },
    {
      "inputs": [],
      "name": "name",
      "outputs": [
        {
          "internalType": "string",
          "name": "",
          "type": "string"
        }
      ],
      "stateMutability": "view",
      "type": "function"
    },
    {
      "inputs": [],
      "name": "owner",
      "outputs": [
        {
          "internalType": "address",
          "name": "",
          "type": "address"
        }
      ],
      "stateMutability": "view",
      "type": "function"
    },
    {
      "inputs": [],
      "name": "profitPerShare",
      "outputs": [
        {
          "internalType": "uint256",
          "name": "",
          "type": "uint256"
        }
      ],
      "stateMutability": "view",
      "type": "function"
    },
    {
      "inputs": [],
      "name": "qtyTokenToSwap",
      "outputs": [
        {
          "internalType": "uint256",
          "name": "",
          "type": "uint256"
        }
      ],
      "stateMutability": "view",
      "type": "function"
    },
    {
      "inputs": [
        {
          "internalType": "address",
          "name": "toRemove",
          "type": "address"
        }
      ],
      "name": "removeBlacklistedAddress",
      "outputs": [],
      "stateMutability": "nonpayable",
      "type": "function"
    },
    {
      "inputs": [],
      "name": "renounceOwnership",
      "outputs": [],
      "stateMutability": "nonpayable",
      "type": "function"
    },
    {
      "inputs": [
        {
          "internalType": "address",
          "name": "tknAddress",
          "type": "address"
        }
      ],
      "name": "rescueTokens",
      "outputs": [],
      "stateMutability": "nonpayable",
      "type": "function"
    },
    {
      "inputs": [],
      "name": "sellLimit",
      "outputs": [
        {
          "internalType": "uint256",
          "name": "",
          "type": "uint256"
        }
      ],
      "stateMutability": "view",
      "type": "function"
    },
    {
      "inputs": [],
      "name": "sellLockDisabled",
      "outputs": [
        {
          "internalType": "bool",
          "name": "",
          "type": "bool"
        }
      ],
      "stateMutability": "view",
      "type": "function"
    },
    {
      "inputs": [],
      "name": "sellLockTime",
      "outputs": [
        {
          "internalType": "uint256",
          "name": "",
          "type": "uint256"
        }
      ],
      "stateMutability": "view",
      "type": "function"
    },
    {
      "inputs": [
        {
          "internalType": "bool",
          "name": "isBlacklistEnabled",
          "type": "bool"
        }
      ],
      "name": "setBlacklistEnabled",
      "outputs": [],
      "stateMutability": "nonpayable",
      "type": "function"
    },
    {
      "inputs": [
        {
          "internalType": "address",
          "name": "toBlacklist",
          "type": "address"
        }
      ],
      "name": "setBlacklistedAddress",
      "outputs": [],
      "stateMutability": "nonpayable",
      "type": "function"
    },
    {
      "inputs": [
        {
          "internalType": "address",
          "name": "newRouter",
          "type": "address"
        }
      ],
      "name": "setRouterAddress",
      "outputs": [],
      "stateMutability": "nonpayable",
      "type": "function"
    },
    {
      "inputs": [],
      "name": "symbol",
      "outputs": [
        {
          "internalType": "string",
          "name": "",
          "type": "string"
        }
      ],
      "stateMutability": "pure",
      "type": "function"
    },
    {
      "inputs": [],
      "name": "totalLPETH",
      "outputs": [
        {
          "internalType": "uint256",
          "name": "",
          "type": "uint256"
        }
      ],
      "stateMutability": "view",
      "type": "function"
    },
    {
      "inputs": [],
      "name": "totalPayouts",
      "outputs": [
        {
          "internalType": "uint256",
          "name": "",
          "type": "uint256"
        }
      ],
      "stateMutability": "view",
      "type": "function"
    },
    {
      "inputs": [],
      "name": "totalStakingReward",
      "outputs": [
        {
          "internalType": "uint256",
          "name": "",
          "type": "uint256"
        }
      ],
      "stateMutability": "view",
      "type": "function"
    },
    {
      "inputs": [],
      "name": "totalSupply",
      "outputs": [
        {
          "internalType": "uint256",
          "name": "",
          "type": "uint256"
        }
      ],
      "stateMutability": "view",
      "type": "function"
    },
    {
      "inputs": [],
      "name": "tradingEnabled",
      "outputs": [
        {
          "internalType": "bool",
          "name": "",
          "type": "bool"
        }
      ],
      "stateMutability": "view",
      "type": "function"
    },
    {
      "inputs": [
        {
          "internalType": "address",
          "name": "recipient",
          "type": "address"
        },
        {
          "internalType": "uint256",
          "name": "amount",
          "type": "uint256"
        }
      ],
      "name": "transfer",
      "outputs": [
        {
          "internalType": "bool",
          "name": "",
          "type": "bool"
        }
      ],
      "stateMutability": "nonpayable",
      "type": "function"
    },
    {
      "inputs": [
        {
          "internalType": "address",
          "name": "sender",
          "type": "address"
        },
        {
          "internalType": "address",
          "name": "recipient",
          "type": "address"
        },
        {
          "internalType": "uint256",
          "name": "amount",
          "type": "uint256"
        }
      ],
      "name": "transferFrom",
      "outputs": [
        {
          "internalType": "bool",
          "name": "",
          "type": "bool"
        }
      ],
      "stateMutability": "nonpayable",
      "type": "function"
    },
    {
      "inputs": [
        {
          "internalType": "address",
          "name": "newOwner",
          "type": "address"
        }
      ],
      "name": "transferOwnership",
      "outputs": [],
      "stateMutability": "nonpayable",
      "type": "function"
    },
    {
      "inputs": [],
      "name": "whiteListTrading",
      "outputs": [
        {
          "internalType": "bool",
          "name": "",
          "type": "bool"
        }
      ],
      "stateMutability": "view",
      "type": "function"
    },
    {
      "stateMutability": "payable",
      "type": "receive"
    }
  ],
  "bytecode": "0x6080604052600480546001600160a01b031916736725f303b657a9451d8ba641348b6761a6cc7a17179055600e805460ff19166001179055620000456009600a6200047a565b620000599067016345785d8a000062000567565b600f55600f54601055600f546011556064601154600a6200007b919062000567565b6200008791906200040c565b6012556013805461ffff19169055601154606490620000a890600a62000567565b620000b491906200040c565b6014556015805461ffff19169055601a805460ff1916600a179055348015620000dc57600080fd5b50600080546001600160a01b031916339081178255604051909182917f8be0079c531659141344cd1fd0a4f28419497f9722a3daafe3b4186f6b6457e0908290a3506000600a600f54600962000133919062000567565b6200013f91906200040c565b336000818152600160205260408082208490555192935090916000805160206200543b833981519152906200017690859062000403565b60405180910390a3600081600f5462000190919062000589565b306000818152600160205260408082208490555192935090916000805160206200543b83398151915290620001c790859062000403565b60405180910390a36032620001df6009600a6200047a565b620001f39067016345785d8a000062000567565b620001ff91906200040c565b6010556064620002126009600a6200047a565b620002269067016345785d8a000062000567565b6200023291906200040c565b601155600260209081556015805462ff00001916621400001763ff000000191663140000001760ff60201b19166414000000001760ff60281b1916650300000000001760ff60301b191666140000000000001760ff60381b1916674d00000000000000179055620002c590600590735b38da6a701c568545dcfcb03fcb875f56beddc4906200037c811b62002a8317901c565b50620002e13360056200037c60201b62002a831790919060201c565b506016546200030890600b906001600160a01b03166200037c602090811b62002a8317901c565b5062000339601560089054906101000a90046001600160a01b0316600b6200037c60201b62002a831790919060201c565b506200035530600b6200037c60201b62002a831790919060201c565b506200037361dead600b6200037c60201b62002a831790919060201c565b505050620005b9565b600062000393836001600160a01b0384166200039c565b90505b92915050565b6000620003aa8383620003eb565b620003e25750815460018181018455600084815260208082209093018490558454848252828601909352604090209190915562000396565b50600062000396565b60009081526001919091016020526040902054151590565b90815260200190565b6000826200042857634e487b7160e01b81526012600452602481fd5b500490565b80825b600180861162000441575062000471565b818704821115620004565762000456620005a3565b808616156200046457918102915b9490941c93800262000430565b94509492505050565b60006200039360001960ff851684600082620004995750600162000560565b81620004a85750600062000560565b8160018114620004c15760028114620004cc5762000500565b600191505062000560565b60ff841115620004e057620004e0620005a3565b6001841b915084821115620004f957620004f9620005a3565b5062000560565b5060208310610133831016604e8410600b841016171562000538575081810a83811115620005325762000532620005a3565b62000560565b6200054784848460016200042d565b8086048211156200055c576200055c620005a3565b0290505b9392505050565b6000816000190483118215151615620005845762000584620005a3565b500290565b6000828210156200059e576200059e620005a3565b500390565b634e487b7160e01b600052601160045260246000fd5b614e7280620005c96000396000f3fe6080604052600436106104ce5760003560e01c80636f89e40911610276578063b76289b81161014f578063dff6bcbf116100c1578063f00df36511610085578063f00df36514610daa578063f04e841114610dbf578063f2fde38b14610ddf578063f88b0e4614610dff578063f9963ca114610e14578063fef667b714610e34576104d5565b8063dff6bcbf14610d20578063e69e03ee14610d40578063e77bf5f814610d55578063e8d834a614610d75578063eb8e886314610d95576104d5565b8063ce7de67611610113578063ce7de67614610c6b578063d51f383b14610c8b578063d63607d814610cab578063d8e8de3414610cc0578063da1144d614610ce0578063dd62ed3e14610d00576104d5565b8063b76289b814610bec578063bb733d4e14610c0c578063c3a3c03214610c21578063c3f4f54f14610c36578063caaa8d8d14610c4b576104d5565b806386d0ada8116101e85780638da5cb5b116101ac5780638da5cb5b14610b4257806395d89b4114610b575780639fa62d5f14610b6c578063a20623ce14610b8c578063a457c2d714610bac578063a9059cbb14610bcc576104d5565b806386d0ada814610ace5780638724cc7214610ae35780638728ecd114610af8578063887c60fb14610b18578063893d20e814610b2d576104d5565b806373ddf08e1161023a57806373ddf08e14610a3a578063762bb28214610a5a5780637b9e987a14610a6f578063852147f714610a845780638607ae3e14610aa45780638650e92a14610ab9576104d5565b80636f89e409146109ad57806370a08231146109d0578063715018a6146109f057806371ab1f0914610a055780637335307b14610a1a576104d5565b80633328b721116103a857806349bdf8731161031a57806357ad67d1116102de57806357ad67d11461090e578063588aeaf21461092e57806358c4abaa1461094e57806358e5536514610963578063677a88701461097857806369c94a541461098d576104d5565b806349bdf8731461089a5780634ada218b146108af5780634cbf8e24146108c45780634cdaf0ae146108d95780634f91e48c146108f9576104d5565b80633cc39b7a1161036c5780633cc39b7a146107fb5780633d8dbf5d146108105780634089b1701461083057806341cb87fc146108455780634634d81c1461086557806348e5316414610885576104d5565b80633328b7211461077c5780633478154b1461079c578063363977c5146107b157806339509351146107c65780633c7a309b146107e6576104d5565b806318160ddd11610441578063243b529a11610405578063243b529a146106d657806325ed82c7146106eb5780632973ef2d1461070b5780632c889d1814610732578063311a869714610752578063313ce56714610767576104d5565b806318160ddd1461064a5780631eb25d131461065f578063230ffc4214610674578063239297b51461069657806323b872dd146106b6576104d5565b80630d54c1d8116104935780630d54c1d8146105915780630fd99e16146105b15780631193c691146105d35780631201cbd0146105e85780631285073c1461060857806314e913771461062a576104d5565b8062ae3bf8146104d757806306fdde03146104f757806309218ee714610522578063095ea7b3146105445780630b1daa3e14610571576104d5565b366104d557005b005b3480156104e357600080fd5b506104d56104f2366004614114565b610e54565b34801561050357600080fd5b5061050c610fab565b6040516105199190614543565b60405180910390f35b34801561052e57600080fd5b5061053761103e565b6040516105199190614bbb565b34801561055057600080fd5b5061056461055f3660046141c4565b611047565b6040516105199190614503565b34801561057d57600080fd5b506104d561058c366004614114565b61105e565b34801561059d57600080fd5b506104d56105ac366004614114565b611092565b3480156105bd57600080fd5b506105c661109f565b6040516105199190614b1a565b3480156105df57600080fd5b506104d56110a4565b3480156105f457600080fd5b506104d56106033660046142b0565b61110b565b34801561061457600080fd5b5061061d611143565b6040516105199190614b29565b34801561063657600080fd5b506104d56106453660046142b0565b611149565b34801561065657600080fd5b5061061d611188565b34801561066b57600080fd5b5061061d61118e565b34801561068057600080fd5b506106896111af565b6040516105199190614481565b3480156106a257600080fd5b506104d56106b13660046142e8565b6111c7565b3480156106c257600080fd5b506105646106d1366004614184565b61122f565b3480156106e257600080fd5b506104d56112a1565b3480156106f757600080fd5b506104d56107063660046142b0565b6112e0565b34801561071757600080fd5b5061072061131f565b60405161051996959493929190614b93565b34801561073e57600080fd5b506104d561074d3660046142e8565b611365565b34801561075e57600080fd5b5061053761139c565b34801561077357600080fd5b506105376113a1565b34801561078857600080fd5b506104d5610797366004614114565b6113a6565b3480156107a857600080fd5b506105c66113ec565b3480156107bd57600080fd5b506104d56113f1565b3480156107d257600080fd5b506105646107e13660046141c4565b6114aa565b3480156107f257600080fd5b506104d56114e1565b34801561080757600080fd5b5061061d61171d565b34801561081c57600080fd5b506104d561082b366004614114565b611723565b34801561083c57600080fd5b5061061d61176c565b34801561085157600080fd5b506104d5610860366004614114565b611772565b34801561087157600080fd5b5061061d610880366004614114565b611aef565b34801561089157600080fd5b506104d5611b52565b3480156108a657600080fd5b50610564611b71565b3480156108bb57600080fd5b50610564611b7a565b3480156108d057600080fd5b506104d5611b88565b3480156108e557600080fd5b506104d56108f4366004614114565b611c2a565b34801561090557600080fd5b5061061d611c7b565b34801561091a57600080fd5b506104d5610929366004614380565b611c81565b34801561093a57600080fd5b506104d5610949366004614114565b611dbb565b34801561095a57600080fd5b506104d5611deb565b34801561096f57600080fd5b5061061d611e02565b34801561098457600080fd5b50610689611e08565b34801561099957600080fd5b506104d56109a83660046142b0565b611e20565b3480156109b957600080fd5b506109c2611e5f565b604051610519929190614b85565b3480156109dc57600080fd5b5061061d6109eb366004614114565b611e9c565b3480156109fc57600080fd5b506104d5611eda565b348015610a1157600080fd5b50610564611f53565b348015610a2657600080fd5b50610564610a35366004614114565b611f62565b348015610a4657600080fd5b506104d5610a55366004614366565b611f6f565b348015610a6657600080fd5b5061061d611fbb565b348015610a7b57600080fd5b506104d5611fc1565b348015610a9057600080fd5b506104d5610a9f366004614114565b61201c565b348015610ab057600080fd5b506104d56120a1565b348015610ac557600080fd5b5061061d6120f7565b348015610ada57600080fd5b506105646120fd565b348015610aef57600080fd5b506105c661139c565b348015610b0457600080fd5b5061061d610b13366004614114565b612106565b348015610b2457600080fd5b5061056461213a565b348015610b3957600080fd5b50610689612148565b348015610b4e57600080fd5b50610689612157565b348015610b6357600080fd5b5061050c612166565b348015610b7857600080fd5b506104d5610b87366004614318565b612185565b348015610b9857600080fd5b50610564610ba7366004614114565b61226e565b348015610bb857600080fd5b50610564610bc73660046141c4565b612283565b348015610bd857600080fd5b50610564610be73660046141c4565b6122e0565b348015610bf857600080fd5b506104d5610c07366004614114565b6122ed565b348015610c1857600080fd5b5061061d61231d565b348015610c2d57600080fd5b5061061d612323565b348015610c4257600080fd5b5061061d61234a565b348015610c5757600080fd5b506104d5610c663660046142e8565b61238d565b348015610c7757600080fd5b506104d5610c86366004614114565b6123ff565b348015610c9757600080fd5b506104d5610ca63660046142e8565b6124c7565b348015610cb757600080fd5b506104d5612512565b348015610ccc57600080fd5b50610564610cdb366004614114565b612546565b348015610cec57600080fd5b506104d5610cfb3660046141ef565b612553565b348015610d0c57600080fd5b5061061d610d1b36600461414c565b6125d2565b348015610d2c57600080fd5b506104d5610d3b366004614114565b6125fd565b348015610d4c57600080fd5b5061061d61262d565b348015610d6157600080fd5b506104d5610d70366004614114565b612693565b348015610d8157600080fd5b506104d5610d903660046142b0565b6126c3565b348015610da157600080fd5b50610537612922565b348015610db657600080fd5b5061061d612927565b348015610dcb57600080fd5b506104d5610dda3660046142b0565b61292d565b348015610deb57600080fd5b506104d5610dfa366004614114565b612965565b348015610e0b57600080fd5b5061061d612a15565b348015610e2057600080fd5b506104d5610e2f366004614114565b612a1b565b348015610e4057600080fd5b506104d5610e4f3660046142b0565b612a4b565b610e5d33612a98565b610e825760405162461bcd60e51b8152600401610e7990614945565b60405180910390fd5b6040516370a0823160e01b815281906000906001600160a01b038316906370a0823190610eb3903090600401614481565b60206040518083038186803b158015610ecb57600080fd5b505afa158015610edf573d6000803e3d6000fd5b505050506040513d601f19601f82011682018060405250810190610f039190614300565b905060008111610f255760405162461bcd60e51b8152600401610e7990614971565b60405163a9059cbb60e01b81526001600160a01b0383169063a9059cbb90610f5390339085906004016144af565b602060405180830381600087803b158015610f6d57600080fd5b505af1158015610f81573d6000803e3d6000fd5b505050506040513d601f19601f82011682018060405250810190610fa591906142cc565b50505050565b60606110136040518060400160405280601a81526020017f54686973206973206e616d65206f6620636f6e7472616374203a0000000000008152506040518060400160405280600f81526020016e5469676572204d756c74696661726d60881b815250612b06565b5060408051808201909152600f81526e5469676572204d756c74696661726d60881b60208201525b90565b601a5460ff1681565b6000611054338484612b4b565b5060015b92915050565b61106733612a98565b6110835760405162461bcd60e51b8152600401610e7990614945565b61108e600982612bff565b5050565b61109c3382612c14565b50565b606481565b6110ad33612a98565b6110c95760405162461bcd60e51b8152600401610e7990614945565b602154610100900460ff16156110de57600080fd5b6021805462ff00001961ff0019909116610100171662010000179055611106610e1042614bc9565b602255565b61111433612a98565b6111305760405162461bcd60e51b8152600401610e7990614945565b600e805460ff1916911515919091179055565b60205490565b61115233612a98565b61116e5760405162461bcd60e51b8152600401610e7990614945565b601f80549115156101000261ff0019909216919091179055565b600f5490565b61119a6009600a614c6c565b6111ac9067016345785d8a0000614d3d565b81565b73ab8483f64d9c6d1ecf9b849ae677dd3315835cb281565b6111d033612a98565b6111ec5760405162461bcd60e51b8152600401610e7990614945565b6001811180156111ff57506305f5e10081105b61121b5760405162461bcd60e51b8152600401610e79906149a8565b61122981633b9aca00614d3d565b60145550565b600061123c848484612ee4565b6001600160a01b0384166000908152600260209081526040808320338452909152902054828110156112805760405162461bcd60e51b8152600401610e799061475d565b611294853361128f8685614d5c565b612b4b565b60019150505b9392505050565b6112aa33612a98565b6112c65760405162461bcd60e51b8152600401610e7990614945565b6112de6e2527a7cbd749423f3d225f7c8158196131b6565b565b6112e933612a98565b6113055760405162461bcd60e51b8152600401610e7990614945565b601380549115156101000261ff0019909216919091179055565b60155460ff650100000000008204811692600160301b8304821692600160381b810483169262010000820481169263010000008304821692640100000000900490911690565b61136e33612a98565b61138a5760405162461bcd60e51b8152600401610e7990614945565b61109c6113974283614bc9565b613424565b603281565b600990565b6113af33612a98565b6113cb5760405162461bcd60e51b8152600401610e7990614945565b6001600160a01b03166000908152600d60205260409020805460ff19169055565b600a81565b6113fa33612a98565b6114165760405162461bcd60e51b8152600401610e7990614945565b601b8054600091829055604051909190735b38da6a701c568545dcfcb03fcb875f56beddc49083906114479061103b565b60006040518083038185875af1925050503d8060008114611484576040519150601f19603f3d011682016040523d82523d6000602084013e611489565b606091505b505090508061108e5760405162461bcd60e51b8152600401610e7990614a68565b3360008181526002602090815260408083206001600160a01b0387168452909152812054909161105491859061128f908690614bc9565b6114ea33612a98565b6115065760405162461bcd60e51b8152600401610e7990614945565b6022544210156115285760405162461bcd60e51b8152600401610e7990614616565b6021546040516370a0823160e01b815263010000009091046001600160a01b03169060009082906370a0823190611563903090600401614481565b60206040518083038186803b15801561157b57600080fd5b505afa15801561158f573d6000803e3d6000fd5b505050506040513d601f19601f820116820180604052508101906115b39190614300565b60235490915060ff1615611684576115cd610e1042614bc9565b602255600a6115dd826002614d3d565b6115e79190614c06565b60405163a9059cbb60e01b81529091506001600160a01b0383169063a9059cbb9061162c90735b38da6a701c568545dcfcb03fcb875f56beddc49085906004016144af565b602060405180830381600087803b15801561164657600080fd5b505af115801561165a573d6000803e3d6000fd5b505050506040513d601f19601f8201168201806040525081019061167e91906142cc565b5061108e565b60405163a9059cbb60e01b81526001600160a01b0383169063a9059cbb906116c690735b38da6a701c568545dcfcb03fcb875f56beddc49085906004016144af565b602060405180830381600087803b1580156116e057600080fd5b505af11580156116f4573d6000803e3d6000fd5b505050506040513d601f19601f8201168201806040525081019061171891906142cc565b505050565b601e5481565b61172c33612a98565b6117485760405162461bcd60e51b8152600401610e7990614945565b6001600160a01b03166000908152600d60205260409020805460ff19166001179055565b60195481565b3361177b612157565b6001600160a01b0316146117a15760405162461bcd60e51b8152600401610e79906148d9565b60008190506000816001600160a01b031663c45a01556040518163ffffffff1660e01b815260040160206040518083038186803b1580156117e157600080fd5b505afa1580156117f5573d6000803e3d6000fd5b505050506040513d601f19601f820116820180604052508101906118199190614130565b6001600160a01b031663e6a4390530846001600160a01b031663ad5c46486040518163ffffffff1660e01b815260040160206040518083038186803b15801561186157600080fd5b505afa158015611875573d6000803e3d6000fd5b505050506040513d601f19601f820116820180604052508101906118999190614130565b6040518363ffffffff1660e01b81526004016118b6929190614495565b60206040518083038186803b1580156118ce57600080fd5b505afa1580156118e2573d6000803e3d6000fd5b505050506040513d601f19601f820116820180604052508101906119069190614130565b90506001600160a01b038116611aa157816001600160a01b031663c45a01556040518163ffffffff1660e01b815260040160206040518083038186803b15801561194f57600080fd5b505afa158015611963573d6000803e3d6000fd5b505050506040513d601f19601f820116820180604052508101906119879190614130565b6001600160a01b031663c9c6539630846001600160a01b031663ad5c46486040518163ffffffff1660e01b815260040160206040518083038186803b1580156119cf57600080fd5b505afa1580156119e3573d6000803e3d6000fd5b505050506040513d601f19601f82011682018060405250810190611a079190614130565b6040518363ffffffff1660e01b8152600401611a24929190614495565b602060405180830381600087803b158015611a3e57600080fd5b505af1158015611a52573d6000803e3d6000fd5b505050506040513d601f19601f82011682018060405250810190611a769190614130565b601560086101000a8154816001600160a01b0302191690836001600160a01b03160217905550611acb565b6015805468010000000000000000600160e01b031916600160401b6001600160a01b038416021790555b50601680546001600160a01b0319166001600160a01b039290921691909117905550565b6000611afa82611f62565b15611b1e57506001600160a01b0381166000908152601d6020526040902054611b4d565b6001600160a01b0382166000908152601d6020526040902054611b4083613432565b611b4a9190614bc9565b90505b919050565b602054611b5f9042614bc9565b33600090815260036020526040902055565b60235460ff1681565b602154610100900460ff1681565b611b9133612a98565b611bad5760405162461bcd60e51b8152600401610e7990614945565b6000735b38da6a701c568545dcfcb03fcb875f56beddc46001600160a01b031647604051611bda9061103b565b60006040518083038185875af1925050503d8060008114611c17576040519150601f19603f3d011682016040523d82523d6000602084013e611c1c565b606091505b505090508061109c57600080fd5b611c3333612a98565b611c4f5760405162461bcd60e51b8152600401610e7990614945565b602180546001600160a01b039092166301000000026301000000600160b81b0319909216919091179055565b60115481565b611c8a33612a98565b611ca65760405162461bcd60e51b8152600401610e7990614945565b600084611cb38789614be1565b611cbd9190614be1565b90508060ff16606414611ce25760405162461bcd60e51b8152600401610e7990614822565b601460ff851611801590611cfa5750601460ff841611155b8015611d0a5750601460ff831611155b611d265760405162461bcd60e51b8152600401610e79906149df565b506015805465ff000000000019166501000000000060ff988916021766ff0000000000001916600160301b968816969096029590951767ff000000000000001916600160381b948716949094029390931762ff0000191662010000928616929092029190911763ff00000019166301000000918516919091021764ff0000000019166401000000009190931602919091179055565b611dc433612a98565b611de05760405162461bcd60e51b8152600401610e7990614945565b61108e600582612a83565b6004546112de9033906001600160a01b0316612c14565b601b5481565b735b38da6a701c568545dcfcb03fcb875f56beddc481565b611e2933612a98565b611e455760405162461bcd60e51b8152600401610e7990614945565b601580549115156101000261ff0019909216919091179055565b600080611e6e6009600a614c6c565b601054611e7b9190614c06565b611e876009600a614c6c565b601154611e949190614c06565b915091509091565b6001600160a01b038116600090815260016020526040812054611ebe906134b9565b506001600160a01b031660009081526001602052604090205490565b33611ee3612157565b6001600160a01b031614611f095760405162461bcd60e51b8152600401610e79906148d9565b600080546040516001600160a01b03909116907f8be0079c531659141344cd1fd0a4f28419497f9722a3daafe3b4186f6b6457e0908390a3600080546001600160a01b0319169055565b60215462010000900460ff1681565b6000611b4a600b836134fc565b611f7833612a98565b611f945760405162461bcd60e51b8152600401610e7990614945565b605a8160ff161115611fa557600080fd5b601a805460ff191660ff92909216919091179055565b60105481565b611fca33612a98565b611fe65760405162461bcd60e51b8152600401610e7990614945565b602154610100900460ff168015612005575060215462010000900460ff165b61200e57600080fd5b6021805462ff000019169055565b61202533612a98565b6120415760405162461bcd60e51b8152600401610e7990614945565b61204a81611f62565b61205357600080fd5b61205e600b82612bff565b506017546001600160a01b0382166000908152600160205260409020546120859190614d3d565b6001600160a01b039091166000908152601c6020526040902055565b6120aa33612a98565b6120c65760405162461bcd60e51b8152600401610e7990614945565b6015805460ff191660011790556120eb6e2527a7cbd749423f3d225f7c8158196131b6565b6015805460ff19169055565b60175481565b60215460ff1681565b6001600160a01b038116600090815260036020526040812054428111612130576000915050611b4d565b61129a4282614d5c565b601f54610100900460ff1681565b6000612152612157565b905090565b6000546001600160a01b031690565b6040805180820190915260058152642a34b3b2b960d91b602082015290565b61218e33612a98565b6121aa5760405162461bcd60e51b8152600401610e7990614945565b6032600f546121b99190614c06565b81106121c457600080fd5b6121d06009600a614c6c565b6121da9083614d3d565b91506121e86009600a614c6c565b6121f29082614d3d565b90506000603260ff16600f546122089190614c06565b90506000606461ffff16600f5461221f9190614c06565b9050818410156122415760405162461bcd60e51b8152600401610e79906146bd565b808310156122615760405162461bcd60e51b8152600401610e7990614891565b5050601091909155601155565b600d6020526000908152604090205460ff1681565b3360009081526002602090815260408083206001600160a01b0386168452909152812054828110156122c75760405162461bcd60e51b8152600401610e7990614ac8565b6122d6338561128f8685614d5c565b5060019392505050565b6000611054338484612ee4565b6122f633612a98565b6123125760405162461bcd60e51b8152600401610e7990614945565b61108e600782612a83565b60125481565b6000602254421015612344574260225461233d9190614d5c565b905061103b565b50600090565b60006123586009600a614c6c565b600f546123676009600a614c6c565b6123799067016345785d8a0000614d3d565b6123839190614d5c565b6121529190614c06565b61239633612a98565b6123b25760405162461bcd60e51b8152600401610e7990614945565b601b548111156123c157600080fd5b80601b60008282546123d39190614d5c565b9091555050604051600090735b38da6a701c568545dcfcb03fcb875f56beddc49083906114479061103b565b61240833612a98565b6124245760405162461bcd60e51b8152600401610e7990614945565b601e612430600b613511565b1061243a57600080fd5b61244381611f62565b1561244d57600080fd5b600061245882613432565b6017546001600160a01b03841660009081526001602052604090205491925061248091614d3d565b6001600160a01b0383166000908152601c6020908152604080832093909355601d905290812080548392906124b6908490614bc9565b909155506117189050600b83612a83565b6124d033612a98565b6124ec5760405162461bcd60e51b8152600401610e7990614945565b600a81111561250d5760405162461bcd60e51b8152600401610e7990614a91565b602055565b61251b33612a98565b6125375760405162461bcd60e51b8152600401610e7990614945565b6023805460ff19166001179055565b6000611b4a6007836134fc565b61255c33612a98565b6125785760405162461bcd60e51b8152600401610e7990614945565b60005b815181101561108e576125bf8282815181106125a757634e487b7160e01b600052603260045260246000fd5b60200260200101516007612a8390919063ffffffff16565b50806125ca81614d73565b91505061257b565b6001600160a01b03918216600090815260026020908152604080832093909416825291909152205490565b61260633612a98565b6126225760405162461bcd60e51b8152600401610e7990614945565b61108e600582612bff565b600f54600090815b61263f600b613511565b81101561268d5760016000612655600b8461351c565b6001600160a01b031681526020810191909152604001600020546126799083614d5c565b91508061268581614d73565b915050612635565b50905090565b61269c33612a98565b6126b85760405162461bcd60e51b8152600401610e7990614945565b61108e600782612bff565b6126cc33612a98565b6126e85760405162461bcd60e51b8152600401610e7990614945565b60225442101561270a5760405162461bcd60e51b8152600401610e7990614616565b612716610e1042614bc9565b6022556021546040516370a0823160e01b815263010000009091046001600160a01b03169060009082906370a0823190612754903090600401614481565b60206040518083038186803b15801561276c57600080fd5b505afa158015612780573d6000803e3d6000fd5b505050506040513d601f19601f820116820180604052508101906127a49190614300565b60235490915060ff16156127cc57600a6127bf826002614d3d565b6127c99190614c06565b90505b60165460405163095ea7b360e01b81526001600160a01b038481169263095ea7b392612800929091169085906004016144af565b602060405180830381600087803b15801561281a57600080fd5b505af115801561282e573d6000803e3d6000fd5b505050506040513d601f19601f8201168201806040525081019061285291906142cc565b5060165460405163af2979eb60e01b815247916001600160a01b03169063af2979eb9061288e90309086906000908190849042906004016144c8565b602060405180830381600087803b1580156128a857600080fd5b505af11580156128bc573d6000803e3d6000fd5b505050506040513d601f19601f820116820180604052508101906128e09190614300565b5060006128ed8247614d5c565b90508415612903576128fe81613528565b61291b565b80601b60008282546129159190614bc9565b90915550505b5050505050565b601481565b60185481565b61293633612a98565b6129525760405162461bcd60e51b8152600401610e7990614945565b6013805460ff1916911515919091179055565b3361296e612157565b6001600160a01b0316146129945760405162461bcd60e51b8152600401610e79906148d9565b6001600160a01b0381166129ba5760405162461bcd60e51b8152600401610e7990614677565b600080546040516001600160a01b03808516939216917f8be0079c531659141344cd1fd0a4f28419497f9722a3daafe3b4186f6b6457e091a3600080546001600160a01b0319166001600160a01b0392909216919091179055565b60205481565b612a2433612a98565b612a405760405162461bcd60e51b8152600401610e7990614945565b61108e600982612a83565b612a5433612a98565b612a705760405162461bcd60e51b8152600401610e7990614945565b6021805460ff1916911515919091179055565b600061129a836001600160a01b0384166135f0565b6000612aa2612157565b6001600160a01b0316826001600160a01b03161480612add57506001600160a01b038216735b38da6a701c568545dcfcb03fcb875f56beddc4145b80611b4a5750506001600160a01b031673ab8483f64d9c6d1ecf9b849ae677dd3315835cb21490565b61108e8282604051602401612b1c92919061457a565b60408051601f198184030181529190526020810180516001600160e01b0316634b5c427760e01b17905261363a565b6001600160a01b038316612b715760405162461bcd60e51b8152600401610e7990614708565b6001600160a01b038216612b975760405162461bcd60e51b8152600401610e7990614868565b6001600160a01b0380841660008181526002602090815260408083209487168084529490915290819020849055517f8c5be1e5ebec7d5bd14f71427d1e84f3dd0314c0f7b2291e5b200ac8c7c3b92590612bf2908590614b29565b60405180910390a3505050565b600061129a836001600160a01b03841661365b565b601654600160a01b900460ff1615612c2b57600080fd5b6016805460ff60a01b1916600160a01b1790556000612c4983611f62565b15612c7157506001600160a01b0382166000908152601d602052604081208054919055612cf1565b6000612c7c84613432565b6001600160a01b038516600090815260016020526040902054601754919250612ca491614d3d565b6001600160a01b0385166000908152601c6020908152604080832093909355601d90522054612cd4908290614bc9565b6001600160a01b0385166000908152601d60205260408120559150505b80612d0957506016805460ff60a01b1916905561108e565b8060196000828254612d1b9190614bc9565b90915550506040805160028082526060820183526000926020830190803683375050601654604080516315ab88c960e31b815290519394506001600160a01b039091169263ad5c464892506004808301926020929190829003018186803b158015612d8557600080fd5b505afa158015612d99573d6000803e3d6000fd5b505050506040513d601f19601f82011682018060405250810190612dbd9190614130565b81600081518110612dde57634e487b7160e01b600052603260045260246000fd5b60200260200101906001600160a01b031690816001600160a01b0316815250508281600181518110612e2057634e487b7160e01b600052603260045260246000fd5b6001600160a01b03928316602091820292909201015260165460405163b6f9de9560e01b815291169063b6f9de95908490612e669060009086908a90429060040161450e565b6000604051808303818588803b158015612e7f57600080fd5b505af1158015612e93573d6000803e3d6000fd5b50505050507f460fc16181df188bd2ec645a6f6dbe15da259268704aabeb2a5b7c94427e71298285604051612ec9929190614b32565b60405180910390a150506016805460ff60a01b191690555050565b6001600160a01b038316612f0a5760405162461bcd60e51b8152600401610e79906145ea565b6001600160a01b038216612f305760405162461bcd60e51b8152600401610e7990614733565b6000612f3d6005856134fc565b80612f4e5750612f4e6005846134fc565b9050612f726040518060600160405280603c8152602001614dde603c913982613772565b60006001600160a01b038516301480612f9357506001600160a01b03841630145b9050612fcd6040518060400160405280601681526020017534b99031b7b73a3930b1ba103a3930b739b332b9101d60511b81525082613772565b6016546015546001600160a01b0391821691600091600160401b9004811690881614801561300c5750816001600160a01b0316866001600160a01b0316145b8061304757506015546001600160a01b03878116600160401b909204161480156130475750816001600160a01b0316876001600160a01b0316145b905061306b604051806060016040528060238152602001614e1a6023913982613772565b6015546000906001600160a01b03898116600160401b9092041614806130a25750826001600160a01b0316886001600160a01b0316145b6015549091506000906001600160a01b03898116600160401b9092041614806130dc5750836001600160a01b0316886001600160a01b0316145b905061310860405180604001604052806008815260200167313abcb4b733901d60c11b81525083613772565b6131336040518060400160405280600981526020016839b2b63634b733901d60b91b81525082613772565b848061313c5750825b806131445750855b15613159576131548989896137b7565b6131ab565b602154610100900460ff166131805760405162461bcd60e51b8152600401610e799061490e565b60215462010000900460ff161561319e576131548989898585613855565b6131ab89898985856138f6565b505050505050505050565b601f805460ff1916600190811790915530600090815260209190915260408120546015549091906131fb90600160381b810460ff90811691600160301b900416614be1565b60ff16905060006064601154600a6132139190614d3d565b61321d9190614c06565b60135490915060ff161561323057506014545b601354610100900460ff16801561324a575060135460ff16155b156132b557739ac64cc6e4415144c455bd8e4837fea55603e5c360005260016020527f0ff35b3c45b207dc53a17634d9a4dc2f4214a4649080c419fa119f08e9a2b8a254600f5460649161329d91614d5c565b6132a8906005614d3d565b6132b29190614c06565b90505b601554610100900460ff166e2527a7cbd749423f3d225f7c8158198514156132e3576015805461ff00191690555b601554610100900460ff1615613309578482111561330957613306600186614d5c565b91505b6015805461ff00191661010083151502179081905560ff161561333457613331600185614d5c565b91505b81841080613344575061ffff8316155b156133525750505050613417565b60155460009061ffff85169061337290600160301b900460ff1685614d3d565b61337c9190614c06565b9050600061338a8285614d5c565b90506000613399600284614c06565b905060006133a78285614d5c565b905060006133b58483614bc9565b9050476133c182613c88565b60006133cd8247614d5c565b90506000836133dc8684614d3d565b6133e69190614c06565b90506133f28682613e0c565b60006133fe8447614d5c565b905061340981613528565b505050505050505050505050505b50601f805460ff19169055565b602254811161110657600080fd5b6001600160a01b038116600090815260016020526040812054601754829161345991614d3d565b6001600160a01b0384166000908152601c6020526040902054909150811015613486576000915050611b4d565b6001600160a01b0383166000908152601c6020526040902054600160401b906134af9083614d5c565b61129a9190614c06565b61109c816040516024016134cd9190614b29565b60408051601f198184030181529190526020810180516001600160e01b031663f5b1bba960e01b17905261363a565b600061129a836001600160a01b038416613eca565b6000611b4a82613ee2565b600061129a8383613ee6565b601a5460009060649061353e9060ff1684614d3d565b6135489190614c06565b905060006135568284614d5c565b905081601b600082825461356a9190614bc9565b909155505080156117185780601860008282546135879190614bc9565b909155506000905061359761262d565b9050806135bb5781601b60008282546135b09190614bc9565b90915550610fa59050565b806135ca600160401b84614d3d565b6135d49190614c06565b601760008282546135e59190614bc9565b909155505050505050565b60006135fc8383613eca565b61363257508154600181810184556000848152602080822090930184905584548482528286019093526040902091909155611058565b506000611058565b80516a636f6e736f6c652e6c6f67602083016000808483855afa5050505050565b6000818152600183016020526040812054801561376857600061367f600183614d5c565b855490915060009061369390600190614d5c565b905060008660000182815481106136ba57634e487b7160e01b600052603260045260246000fd5b90600052602060002001549050808760000184815481106136eb57634e487b7160e01b600052603260045260246000fd5b60009182526020808320909101929092558281526001890190915260409020849055865487908061372c57634e487b7160e01b600052603160045260246000fd5b60019003818190600052602060002001600090559055866001016000878152602001908152602001600020600090556001945050505050611058565b6000915050611058565b61108e8282604051602401613788929190614556565b60408051601f198184030181529190526020810180516001600160e01b031663c3b5563560e01b17905261363a565b6001600160a01b038316600090815260016020526040902054818110156137f05760405162461bcd60e51b8152600401610e7990614640565b6137fa8483613f3f565b6138048383613ffe565b826001600160a01b0316846001600160a01b03167fddf252ad1be2c89b69c2b068fc378daa952ba7f163c4a11628f55a4df523b3ef846040516138479190614b29565b60405180910390a350505050565b806138ed576138656007856134fc565b6138815760405162461bcd60e51b8152600401610e79906147eb565b603261388f6009600a614c6c565b6138a19067016345785d8a0000614d3d565b6138ab9190614c06565b6001600160a01b0385166000908152600160205260409020546138cf908590614bc9565b11156138ed5760405162461bcd60e51b8152600401610e799061478b565b61291b85858585855b6001600160a01b03808516600090815260016020526040808220549288168252902054848110156139395760405162461bcd60e51b8152600401610e7990614640565b60008315613a2757600e5460ff1615613972576001600160a01b0388166000908152600d602052604090205460ff161561397257600080fd5b61397d6009896134fc565b6139f2576001600160a01b038816600090815260036020526040902054421015806139af5750601f54610100900460ff165b6139cb5760405162461bcd60e51b8152600401610e7990614aee565b6020546139d89042614bc9565b6001600160a01b0389166000908152600360205260409020555b601154861115613a145760405162461bcd60e51b8152600401610e79906147c2565b506015546301000000900460ff16613b27565b8415613a6a57601054613a3a8785614bc9565b1115613a585760405162461bcd60e51b8152600401610e7990614a16565b5060155462010000900460ff16613b27565b613a766009600a614c6c565b8611613a9357600454613a939089906001600160a01b0316612c14565b601054613aa08785614bc9565b1115613abe5760405162461bcd60e51b8152600401610e7990614a16565b613ac96009896134fc565b613b17576001600160a01b03881660009081526003602052604090205442101580613afb5750601f54610100900460ff165b613b175760405162461bcd60e51b8152600401610e7990614a40565b50601554640100000000900460ff165b6015546001600160a01b03898116600160401b9092041614801590613b4f575060215460ff16155b8015613b5e5750601f5460ff16155b8015613b675750835b15613b7557613b75866131b6565b6000613b918783601560059054906101000a900460ff166140c4565b601554909150600090613bc49089908590613bbf9060ff600160301b8204811691600160381b900416614be1565b6140c4565b90506000613bd28284614bc9565b613bdc908a614d5c565b9050613be88b8a613f3f565b3060009081526001602052604081208054849290613c07908490614bc9565b9250508190555082600f6000828254613c209190614d5c565b90915550613c3090508a82613ffe565b896001600160a01b03168b6001600160a01b03167fddf252ad1be2c89b69c2b068fc378daa952ba7f163c4a11628f55a4df523b3ef83604051613c739190614b29565b60405180910390a35050505050505050505050565b601654613ca09030906001600160a01b031683612b4b565b6040805160028082526060820183526000926020830190803683370190505090503081600081518110613ce357634e487b7160e01b600052603260045260246000fd5b6001600160a01b03928316602091820292909201810191909152601654604080516315ab88c960e31b81529051919093169263ad5c4648926004808301939192829003018186803b158015613d3757600080fd5b505afa158015613d4b573d6000803e3d6000fd5b505050506040513d601f19601f82011682018060405250810190613d6f9190614130565b81600181518110613d9057634e487b7160e01b600052603260045260246000fd5b6001600160a01b03928316602091820292909201015260165460405163791ac94760e01b815291169063791ac94790613dd6908590600090869030904290600401614b49565b600060405180830381600087803b158015613df057600080fd5b505af1158015613e04573d6000803e3d6000fd5b505050505050565b80601e6000828254613e1e9190614bc9565b9091555050601654613e3b9030906001600160a01b031684612b4b565b60165460405163f305d71960e01b81526001600160a01b039091169063f305d719908390613e7890309087906000908190849042906004016144c8565b6060604051808303818588803b158015613e9157600080fd5b505af1158015613ea5573d6000803e3d6000fd5b50505050506040513d601f19601f8201168201806040525081019061291b9190614339565b60009081526001919091016020526040902054151590565b5490565b81546000908210613f095760405162461bcd60e51b8152600401610e79906145a8565b826000018281548110613f2c57634e487b7160e01b600052603260045260246000fd5b9060005260206000200154905092915050565b6001600160a01b038216600090815260016020526040812054613f63908390614d5c565b9050613f6e83611f62565b15613f91576001600160a01b03831660009081526001602052604090205561108e565b6000613f9c84613432565b6001600160a01b0385166000908152600160205260409020839055601754909150613fc8908390614d3d565b6001600160a01b0385166000908152601c6020908152604080832093909355601d905290812080548392906135e5908490614bc9565b6001600160a01b038216600090815260016020526040812054614022908390614bc9565b905061402d83611f62565b15614050576001600160a01b03831660009081526001602052604090205561108e565b600061405b84613432565b90508160175461406b9190614d3d565b6001600160a01b0385166000908152601c6020908152604080832093909355601d905290812080548392906140a1908490614bc9565b9091555050506001600160a01b0383166000908152600160205260409020555050565b60006127108260ff168460ff16866140dc9190614d3d565b6140e69190614d3d565b6140f09190614c06565b949350505050565b8035611b4d81614dba565b803560ff81168114611b4d57600080fd5b600060208284031215614125578081fd5b813561129a81614dba565b600060208284031215614141578081fd5b815161129a81614dba565b6000806040838503121561415e578081fd5b823561416981614dba565b9150602083013561417981614dba565b809150509250929050565b600080600060608486031215614198578081fd5b83356141a381614dba565b925060208401356141b381614dba565b929592945050506040919091013590565b600080604083850312156141d6578182fd5b82356141e181614dba565b946020939093013593505050565b60006020808385031215614201578182fd5b823567ffffffffffffffff80821115614218578384fd5b818501915085601f83011261422b578384fd5b81358181111561423d5761423d614da4565b8381026040518582820101818110858211171561425c5761425c614da4565b604052828152858101935084860182860187018a101561427a578788fd5b8795505b838610156142a35761428f816140f8565b85526001959095019493860193860161427e565b5098975050505050505050565b6000602082840312156142c1578081fd5b813561129a81614dcf565b6000602082840312156142dd578081fd5b815161129a81614dcf565b6000602082840312156142f9578081fd5b5035919050565b600060208284031215614311578081fd5b5051919050565b6000806040838503121561432a578182fd5b50508035926020909101359150565b60008060006060848603121561434d578283fd5b8351925060208401519150604084015190509250925092565b600060208284031215614377578081fd5b61129a82614103565b60008060008060008060c08789031215614398578182fd5b6143a187614103565b95506143af60208801614103565b94506143bd60408801614103565b93506143cb60608801614103565b92506143d960808801614103565b91506143e760a08801614103565b90509295509295509295565b6000815180845260208085019450808401835b8381101561442b5781516001600160a01b031687529582019590820190600101614406565b509495945050505050565b60008151808452815b8181101561445b5760208185018101518683018201520161443f565b8181111561446c5782602083870101525b50601f01601f19169290920160200192915050565b6001600160a01b0391909116815260200190565b6001600160a01b0392831681529116602082015260400190565b6001600160a01b03929092168252602082015260400190565b6001600160a01b039687168152602081019590955260408501939093526060840191909152909216608082015260a081019190915260c00190565b901515815260200190565b60008582526080602083015261452760808301866143f3565b6001600160a01b03949094166040830152506060015292915050565b60006020825261129a6020830184614436565b6000604082526145696040830185614436565b905082151560208301529392505050565b60006040825261458d6040830185614436565b828103602084015261459f8185614436565b95945050505050565b60208082526022908201527f456e756d657261626c655365743a20696e646578206f7574206f6620626f756e604082015261647360f01b606082015260800190565b6020808252601290820152715472616e736665722066726f6d207a65726f60701b604082015260600190565b60208082526010908201526f139bdd081e595d081d5b9b1bd8dad95960821b604082015260600190565b60208082526018908201527f5472616e7366657220657863656564732062616c616e63650000000000000000604082015260600190565b60208082526026908201527f4f776e61626c653a206e6577206f776e657220697320746865207a65726f206160408201526564647265737360d01b606082015260800190565b6020808252602b908201527f6e657742616c616e63654c696d6974206e6565647320746f206265206174206c60408201526a19585cdd081d185c99d95d60aa1b606082015260800190565b602080825260119082015270417070726f76652066726f6d207a65726f60781b604082015260600190565b60208082526010908201526f5472616e7366657220746f207a65726f60801b604082015260600190565b6020808252601490820152735472616e73666572203e20616c6c6f77616e636560601b604082015260600190565b6020808252601c908201527f616d6f756e7420657863656564732077686974656c697374206d617800000000604082015260600190565b6020808252600f908201526e223ab6b810383937ba32b1ba34b7b760891b604082015260600190565b6020808252601a908201527f726563697069656e74206e6f74206f6e2077686974656c697374000000000000604082015260600190565b60208082526026908201527f6275726e2b6c69712b6d61726b6574696e67206e6565647320746f20657175616040820152656c203130302560d01b606082015260800190565b6020808252600f908201526e417070726f766520746f207a65726f60881b604082015260600190565b60208082526028908201527f6e657753656c6c4c696d6974206e6565647320746f206265206174206c6561736040820152671d081d185c99d95d60c21b606082015260800190565b6020808252818101527f4f776e61626c653a2063616c6c6572206973206e6f7420746865206f776e6572604082015260600190565b60208082526017908201527f74726164696e67206e6f742079657420656e61626c6564000000000000000000604082015260600190565b60208082526012908201527143616c6c6572206e6f7420696e205465616d60701b604082015260600190565b60208082526018908201527f4e6f20746f6b656e7320696e206f75722062616c616e63650000000000000000604082015260600190565b6020808252601e908201527f56616c756573206265747765656e203120616e64203130303030303030300000604082015260600190565b60208082526019908201527f746178657320686967686572207468616e206d61782074617800000000000000604082015260600190565b60208082526010908201526f3bb430b63290383937ba32b1ba34b7b760811b604082015260600190565b6020808252600e908201526d53656e64657220696e204c6f636b60901b604082015260600190565b6020808252600f908201526e1dda5d1a191c985dc819985a5b1959608a1b604082015260600190565b60208082526017908201527f53656c6c204c6f636b2074696d6520746f6f2068696768000000000000000000604082015260600190565b6020808252600c908201526b3c3020616c6c6f77616e636560a01b604082015260600190565b60208082526012908201527153656c6c657220696e2073656c6c4c6f636b60701b604082015260600190565b61ffff91909116815260200190565b90815260200190565b9182526001600160a01b0316602082015260400190565b600086825285602083015260a06040830152614b6860a08301866143f3565b6001600160a01b0394909416606083015250608001529392505050565b918252602082015260400190565b958652602086019490945260408501929092526060840152608083015260a082015260c00190565b60ff91909116815260200190565b60008219821115614bdc57614bdc614d8e565b500190565b600060ff821660ff84168060ff03821115614bfe57614bfe614d8e565b019392505050565b600082614c2157634e487b7160e01b81526012600452602481fd5b500490565b80825b6001808611614c385750614c63565b818704821115614c4a57614c4a614d8e565b80861615614c5757918102915b9490941c938002614c29565b94509492505050565b600061129a60001960ff851684600082614c885750600161129a565b81614c955750600061129a565b8160018114614cab5760028114614cb557614ce2565b600191505061129a565b60ff841115614cc657614cc6614d8e565b6001841b915084821115614cdc57614cdc614d8e565b5061129a565b5060208310610133831016604e8410600b8410161715614d15575081810a83811115614d1057614d10614d8e565b61129a565b614d228484846001614c26565b808604821115614d3457614d34614d8e565b02949350505050565b6000816000190483118215151615614d5757614d57614d8e565b500290565b600082821015614d6e57614d6e614d8e565b500390565b6000600019821415614d8757614d87614d8e565b5060010190565b634e487b7160e01b600052601160045260246000fd5b634e487b7160e01b600052604160045260246000fd5b6001600160a01b038116811461109c57600080fd5b801515811461109c57600080fdfe4d616e75616c6c79204578636c7564656420616472657373657320617265207472616e73666572696e672074617820616e64206c6f636b20667265657472616e73666572206265747765656e20726f7574657220616e642070616e63616b65a2646970667358221220fe4fb1adc9c48e618bceccd5534e1abe2b523c276de54d158aecebd6c1a6fcc764736f6c63430008000033ddf252ad1be2c89b69c2b068fc378daa952ba7f163c4a11628f55a4df523b3ef",
  "linkReferences": {},
  "deployedLinkReferences": {}
}