{
  "_format": "hh-sol-artifact-1",
  "contractName": "Tiger",
  "sourceName": "contracts/Tiger.sol",
  "abi": [
    {
      "inputs": [],
      "stateMutability": "nonpayable",
      "type": "constructor"
    },
    {
      "anonymous": false,
      "inputs": [
        {
          "indexed": true,
          "internalType": "address",
          "name": "owner",
          "type": "address"
        },
        {
          "indexed": true,
          "internalType": "address",
          "name": "spender",
          "type": "address"
        },
        {
          "indexed": false,
          "internalType": "uint256",
          "name": "value",
          "type": "uint256"
        }
      ],
      "name": "Approval",
      "type": "event"
    },
    {
      "anonymous": false,
      "inputs": [
        {
          "indexed": false,
          "internalType": "uint256",
          "name": "amount",
          "type": "uint256"
        },
        {
          "indexed": false,
          "internalType": "address",
          "name": "recipient",
          "type": "address"
        }
      ],
      "name": "OnWithdrawFarmedToken",
      "type": "event"
    },
    {
      "anonymous": false,
      "inputs": [
        {
          "indexed": true,
          "internalType": "address",
          "name": "previousOwner",
          "type": "address"
        },
        {
          "indexed": true,
          "internalType": "address",
          "name": "newOwner",
          "type": "address"
        }
      ],
      "name": "OwnershipTransferred",
      "type": "event"
    },
    {
      "anonymous": false,
      "inputs": [
        {
          "indexed": true,
          "internalType": "address",
          "name": "from",
          "type": "address"
        },
        {
          "indexed": true,
          "internalType": "address",
          "name": "to",
          "type": "address"
        },
        {
          "indexed": false,
          "internalType": "uint256",
          "name": "value",
          "type": "uint256"
        }
      ],
      "name": "Transfer",
      "type": "event"
    },
    {
      "stateMutability": "payable",
      "type": "fallback"
    },
    {
      "inputs": [],
      "name": "AddressResetSellLock",
      "outputs": [],
      "stateMutability": "nonpayable",
      "type": "function"
    },
    {
      "inputs": [],
      "name": "BalanceLimitDivider",
      "outputs": [
        {
          "internalType": "uint8",
          "name": "",
          "type": "uint8"
        }
      ],
      "stateMutability": "view",
      "type": "function"
    },
    {
      "inputs": [
        {
          "internalType": "address",
          "name": "tokenAddress",
          "type": "address"
        }
      ],
      "name": "FarmedTokenWithdraw",
      "outputs": [],
      "stateMutability": "nonpayable",
      "type": "function"
    },
    {
      "inputs": [],
      "name": "InitialSupply",
      "outputs": [
        {
          "internalType": "uint256",
          "name": "",
          "type": "uint256"
        }
      ],
      "stateMutability": "view",
      "type": "function"
    },
    {
      "inputs": [],
      "name": "MaxSellLockTime",
      "outputs": [
        {
          "internalType": "uint16",
          "name": "",
          "type": "uint16"
        }
      ],
      "stateMutability": "view",
      "type": "function"
    },
    {
      "inputs": [],
      "name": "MaxTax",
      "outputs": [
        {
          "internalType": "uint8",
          "name": "",
          "type": "uint8"
        }
      ],
      "stateMutability": "view",
      "type": "function"
    },
    {
      "inputs": [],
      "name": "SecondTeamWallet",
      "outputs": [
        {
          "internalType": "address",
          "name": "",
          "type": "address"
        }
      ],
      "stateMutability": "view",
      "type": "function"
    },
    {
      "inputs": [],
      "name": "SellLimitDivider",
      "outputs": [
        {
          "internalType": "uint16",
          "name": "",
          "type": "uint16"
        }
      ],
      "stateMutability": "view",
      "type": "function"
    },
    {
      "inputs": [
        {
          "internalType": "address[]",
          "name": "addressesToAdd",
          "type": "address[]"
        }
      ],
      "name": "SetupAddArrayToWhitelist",
      "outputs": [],
      "stateMutability": "nonpayable",
      "type": "function"
    },
    {
      "inputs": [
        {
          "internalType": "address",
          "name": "addressToAdd",
          "type": "address"
        }
      ],
      "name": "SetupAddToWhitelist",
      "outputs": [],
      "stateMutability": "nonpayable",
      "type": "function"
    },
    {
      "inputs": [],
      "name": "SetupEnableTrading",
      "outputs": [],
      "stateMutability": "nonpayable",
      "type": "function"
    },
    {
      "inputs": [],
      "name": "SetupEnableWhitelistTrading",
      "outputs": [],
      "stateMutability": "nonpayable",
      "type": "function"
    },
    {
      "inputs": [
        {
          "internalType": "address",
          "name": "liquidityTokenAddress",
          "type": "address"
        }
      ],
      "name": "SetupLiquidityTokenAddress",
      "outputs": [],
      "stateMutability": "nonpayable",
      "type": "function"
    },
    {
      "inputs": [
        {
          "internalType": "address",
          "name": "addressToRemove",
          "type": "address"
        }
      ],
      "name": "SetupRemoveFromWhitelist",
      "outputs": [],
      "stateMutability": "nonpayable",
      "type": "function"
    },
    {
      "inputs": [
        {
          "internalType": "uint8",
          "name": "newShare",
          "type": "uint8"
        }
      ],
      "name": "TeamChangeMarketingShare",
      "outputs": [],
      "stateMutability": "nonpayable",
      "type": "function"
    },
    {
      "inputs": [],
      "name": "TeamCreateLPandETH",
      "outputs": [],
      "stateMutability": "nonpayable",
      "type": "function"
    },
    {
      "inputs": [
        {
          "internalType": "bool",
          "name": "disabled",
          "type": "bool"
        }
      ],
      "name": "TeamDisableSellLock",
      "outputs": [],
      "stateMutability": "nonpayable",
      "type": "function"
    },
    {
      "inputs": [
        {
          "internalType": "address",
          "name": "account",
          "type": "address"
        }
      ],
      "name": "TeamExcludeAccountFromFees",
      "outputs": [],
      "stateMutability": "nonpayable",
      "type": "function"
    },
    {
      "inputs": [
        {
          "internalType": "address",
          "name": "account",
          "type": "address"
        }
      ],
      "name": "TeamExcludeAccountFromSellLock",
      "outputs": [],
      "stateMutability": "nonpayable",
      "type": "function"
    },
    {
      "inputs": [
        {
          "internalType": "address",
          "name": "addr",
          "type": "address"
        }
      ],
      "name": "TeamExcludeFromStaking",
      "outputs": [],
      "stateMutability": "nonpayable",
      "type": "function"
    },
    {
      "inputs": [
        {
          "internalType": "address",
          "name": "account",
          "type": "address"
        }
      ],
      "name": "TeamIncludeAccountToFees",
      "outputs": [],
      "stateMutability": "nonpayable",
      "type": "function"
    },
    {
      "inputs": [
        {
          "internalType": "address",
          "name": "account",
          "type": "address"
        }
      ],
      "name": "TeamIncludeAccountToSellLock",
      "outputs": [],
      "stateMutability": "nonpayable",
      "type": "function"
    },
    {
      "inputs": [
        {
          "internalType": "address",
          "name": "addr",
          "type": "address"
        }
      ],
      "name": "TeamIncludeToStaking",
      "outputs": [],
      "stateMutability": "nonpayable",
      "type": "function"
    },
    {
      "inputs": [],
      "name": "TeamReleaseLiquidity",
      "outputs": [],
      "stateMutability": "nonpayable",
      "type": "function"
    },
    {
      "inputs": [
        {
          "internalType": "bool",
          "name": "addToStaking",
          "type": "bool"
        }
      ],
      "name": "TeamRemoveLiquidity",
      "outputs": [],
      "stateMutability": "nonpayable",
      "type": "function"
    },
    {
      "inputs": [],
      "name": "TeamRemoveRemainingETH",
      "outputs": [],
      "stateMutability": "nonpayable",
      "type": "function"
    },
    {
      "inputs": [],
      "name": "TeamSellAllTokens",
      "outputs": [],
      "stateMutability": "nonpayable",
      "type": "function"
    },
    {
      "inputs": [
        {
          "internalType": "uint256",
          "name": "sellLockSeconds",
          "type": "uint256"
        }
      ],
      "name": "TeamSetSellLockTime",
      "outputs": [],
      "stateMutability": "nonpayable",
      "type": "function"
    },
    {
      "inputs": [
        {
          "internalType": "uint8",
          "name": "burnTaxes",
          "type": "uint8"
        },
        {
          "internalType": "uint8",
          "name": "liquidityTaxes",
          "type": "uint8"
        },
        {
          "internalType": "uint8",
          "name": "stakingTaxes",
          "type": "uint8"
        },
        {
          "internalType": "uint8",
          "name": "buyTax",
          "type": "uint8"
        },
        {
          "internalType": "uint8",
          "name": "sellTax",
          "type": "uint8"
        },
        {
          "internalType": "uint8",
          "name": "transferTax",
          "type": "uint8"
        }
      ],
      "name": "TeamSetTaxes",
      "outputs": [],
      "stateMutability": "nonpayable",
      "type": "function"
    },
    {
      "inputs": [
        {
          "internalType": "bool",
          "name": "setter",
          "type": "bool"
        }
      ],
      "name": "TeamSwapSetAutoUpdateLiqSell",
      "outputs": [],
      "stateMutability": "nonpayable",
      "type": "function"
    },
    {
      "inputs": [
        {
          "internalType": "bool",
          "name": "setter",
          "type": "bool"
        }
      ],
      "name": "TeamSwapSetManualLiqSell",
      "outputs": [],
      "stateMutability": "nonpayable",
      "type": "function"
    },
    {
      "inputs": [
        {
          "internalType": "uint256",
          "name": "amount",
          "type": "uint256"
        }
      ],
      "name": "TeamSwapSetManualLiqSellTokens",
      "outputs": [],
      "stateMutability": "nonpayable",
      "type": "function"
    },
    {
      "inputs": [
        {
          "internalType": "bool",
          "name": "setter",
          "type": "bool"
        }
      ],
      "name": "TeamSwapSetSellPeg",
      "outputs": [],
      "stateMutability": "nonpayable",
      "type": "function"
    },
    {
      "inputs": [
        {
          "internalType": "bool",
          "name": "manual",
          "type": "bool"
        }
      ],
      "name": "TeamSwapSwitchManualETHConversion",
      "outputs": [],
      "stateMutability": "nonpayable",
      "type": "function"
    },
    {
      "inputs": [
        {
          "internalType": "uint256",
          "name": "secondsUntilUnlock",
          "type": "uint256"
        }
      ],
      "name": "TeamUnlockLiquidityInSeconds",
      "outputs": [],
      "stateMutability": "nonpayable",
      "type": "function"
    },
    {
      "inputs": [
        {
          "internalType": "uint256",
          "name": "newBalanceLimit",
          "type": "uint256"
        },
        {
          "internalType": "uint256",
          "name": "newSellLimit",
          "type": "uint256"
        }
      ],
      "name": "TeamUpdateLimits",
      "outputs": [],
      "stateMutability": "nonpayable",
      "type": "function"
    },
    {
      "inputs": [],
      "name": "TeamWallet",
      "outputs": [
        {
          "internalType": "address",
          "name": "",
          "type": "address"
        }
      ],
      "stateMutability": "view",
      "type": "function"
    },
    {
      "inputs": [],
      "name": "TeamWithdrawMarketingETH",
      "outputs": [],
      "stateMutability": "nonpayable",
      "type": "function"
    },
    {
      "inputs": [
        {
          "internalType": "uint256",
          "name": "amount",
          "type": "uint256"
        }
      ],
      "name": "TeamWithdrawMarketingETH",
      "outputs": [],
      "stateMutability": "nonpayable",
      "type": "function"
    },
    {
      "inputs": [],
      "name": "TeamlimitLiquidityReleaseTo20Percent",
      "outputs": [],
      "stateMutability": "nonpayable",
      "type": "function"
    },
    {
      "inputs": [],
      "name": "WETHWithdraw",
      "outputs": [],
      "stateMutability": "nonpayable",
      "type": "function"
    },
    {
      "inputs": [],
      "name": "WhiteListBalanceLimitDivider",
      "outputs": [
        {
          "internalType": "uint16",
          "name": "",
          "type": "uint16"
        }
      ],
      "stateMutability": "view",
      "type": "function"
    },
    {
      "inputs": [
        {
          "internalType": "address",
          "name": "",
          "type": "address"
        }
      ],
      "name": "_blacklist",
      "outputs": [
        {
          "internalType": "bool",
          "name": "",
          "type": "bool"
        }
      ],
      "stateMutability": "view",
      "type": "function"
    },
    {
      "inputs": [],
      "name": "_getTotalShares",
      "outputs": [
        {
          "internalType": "uint256",
          "name": "",
          "type": "uint256"
        }
      ],
      "stateMutability": "view",
      "type": "function"
    },
    {
      "inputs": [
        {
          "internalType": "address",
          "name": "_owner",
          "type": "address"
        },
        {
          "internalType": "address",
          "name": "spender",
          "type": "address"
        }
      ],
      "name": "allowance",
      "outputs": [
        {
          "internalType": "uint256",
          "name": "",
          "type": "uint256"
        }
      ],
      "stateMutability": "view",
      "type": "function"
    },
    {
      "inputs": [
        {
          "internalType": "address",
          "name": "spender",
          "type": "address"
        },
        {
          "internalType": "uint256",
          "name": "amount",
          "type": "uint256"
        }
      ],
      "name": "approve",
      "outputs": [
        {
          "internalType": "bool",
          "name": "",
          "type": "bool"
        }
      ],
      "stateMutability": "nonpayable",
      "type": "function"
    },
    {
      "inputs": [],
      "name": "balanceLimit",
      "outputs": [
        {
          "internalType": "uint256",
          "name": "",
          "type": "uint256"
        }
      ],
      "stateMutability": "view",
      "type": "function"
    },
    {
      "inputs": [
        {
          "internalType": "address",
          "name": "account",
          "type": "address"
        }
      ],
      "name": "balanceOf",
      "outputs": [
        {
          "internalType": "uint256",
          "name": "",
          "type": "uint256"
        }
      ],
      "stateMutability": "view",
      "type": "function"
    },
    {
      "inputs": [],
      "name": "decimals",
      "outputs": [
        {
          "internalType": "uint8",
          "name": "",
          "type": "uint8"
        }
      ],
      "stateMutability": "pure",
      "type": "function"
    },
    {
      "inputs": [
        {
          "internalType": "address",
          "name": "spender",
          "type": "address"
        },
        {
          "internalType": "uint256",
          "name": "subtractedValue",
          "type": "uint256"
        }
      ],
      "name": "decreaseAllowance",
      "outputs": [
        {
          "internalType": "bool",
          "name": "",
          "type": "bool"
        }
      ],
      "stateMutability": "nonpayable",
      "type": "function"
    },
    {
      "inputs": [
        {
          "internalType": "address",
          "name": "AddressToCheck",
          "type": "address"
        }
      ],
      "name": "getAddressSellLockTimeInSeconds",
      "outputs": [
        {
          "internalType": "uint256",
          "name": "",
          "type": "uint256"
        }
      ],
      "stateMutability": "view",
      "type": "function"
    },
    {
      "inputs": [],
      "name": "getBurnedTokens",
      "outputs": [
        {
          "internalType": "uint256",
          "name": "",
          "type": "uint256"
        }
      ],
      "stateMutability": "view",
      "type": "function"
    },
    {
      "inputs": [
        {
          "internalType": "address",
          "name": "addr",
          "type": "address"
        }
      ],
      "name": "getDividends",
      "outputs": [
        {
          "internalType": "uint256",
          "name": "",
          "type": "uint256"
        }
      ],
      "stateMutability": "view",
      "type": "function"
    },
    {
      "inputs": [],
      "name": "getLimits",
      "outputs": [
        {
          "internalType": "uint256",
          "name": "balance",
          "type": "uint256"
        },
        {
          "internalType": "uint256",
          "name": "sell",
          "type": "uint256"
        }
      ],
      "stateMutability": "view",
      "type": "function"
    },
    {
      "inputs": [],
      "name": "getLiquidityReleaseTimeInSeconds",
      "outputs": [
        {
          "internalType": "uint256",
          "name": "",
          "type": "uint256"
        }
      ],
      "stateMutability": "view",
      "type": "function"
    },
    {
      "inputs": [],
      "name": "getOwner",
      "outputs": [
        {
          "internalType": "address",
          "name": "",
          "type": "address"
        }
      ],
      "stateMutability": "view",
      "type": "function"
    },
    {
      "inputs": [],
      "name": "getSellLockTimeInSeconds",
      "outputs": [
        {
          "internalType": "uint256",
          "name": "",
          "type": "uint256"
        }
      ],
      "stateMutability": "view",
      "type": "function"
    },
    {
      "inputs": [],
      "name": "getTaxes",
      "outputs": [
        {
          "internalType": "uint256",
          "name": "burnTax",
          "type": "uint256"
        },
        {
          "internalType": "uint256",
          "name": "liquidityTax",
          "type": "uint256"
        },
        {
          "internalType": "uint256",
          "name": "marketingTax",
          "type": "uint256"
        },
        {
          "internalType": "uint256",
          "name": "buyTax",
          "type": "uint256"
        },
        {
          "internalType": "uint256",
          "name": "sellTax",
          "type": "uint256"
        },
        {
          "internalType": "uint256",
          "name": "transferTax",
          "type": "uint256"
        }
      ],
      "stateMutability": "view",
      "type": "function"
    },
    {
      "inputs": [
        {
          "internalType": "address",
          "name": "AddressToCheck",
          "type": "address"
        }
      ],
      "name": "getWhitelistedStatus",
      "outputs": [
        {
          "internalType": "bool",
          "name": "",
          "type": "bool"
        }
      ],
      "stateMutability": "view",
      "type": "function"
    },
    {
      "inputs": [
        {
          "internalType": "address",
          "name": "spender",
          "type": "address"
        },
        {
          "internalType": "uint256",
          "name": "addedValue",
          "type": "uint256"
        }
      ],
      "name": "increaseAllowance",
      "outputs": [
        {
          "internalType": "bool",
          "name": "",
          "type": "bool"
        }
      ],
      "stateMutability": "nonpayable",
      "type": "function"
    },
    {
      "inputs": [
        {
          "internalType": "address",
          "name": "addr",
          "type": "address"
        }
      ],
      "name": "isExcludedFromStaking",
      "outputs": [
        {
          "internalType": "bool",
          "name": "",
          "type": "bool"
        }
      ],
      "stateMutability": "view",
      "type": "function"
    },
    {
      "inputs": [],
      "name": "liquidityRelease20Percent",
      "outputs": [
        {
          "internalType": "bool",
          "name": "",
          "type": "bool"
        }
      ],
      "stateMutability": "view",
      "type": "function"
    },
    {
      "inputs": [],
      "name": "manualConversion",
      "outputs": [
        {
          "internalType": "bool",
          "name": "",
          "type": "bool"
        }
      ],
      "stateMutability": "view",
      "type": "function"
    },
    {
      "inputs": [],
      "name": "marketingBalance",
      "outputs": [
        {
          "internalType": "uint256",
          "name": "",
          "type": "uint256"
        }
      ],
      "stateMutability": "view",
      "type": "function"
    },
    {
      "inputs": [],
      "name": "marketingShare",
      "outputs": [
        {
          "internalType": "uint8",
          "name": "",
          "type": "uint8"
        }
      ],
      "stateMutability": "view",
      "type": "function"
    },
    {
      "inputs": [],
      "name": "name",
      "outputs": [
        {
          "internalType": "string",
          "name": "",
          "type": "string"
        }
      ],
      "stateMutability": "view",
      "type": "function"
    },
    {
      "inputs": [],
      "name": "owner",
      "outputs": [
        {
          "internalType": "address",
          "name": "",
          "type": "address"
        }
      ],
      "stateMutability": "view",
      "type": "function"
    },
    {
      "inputs": [],
      "name": "profitPerShare",
      "outputs": [
        {
          "internalType": "uint256",
          "name": "",
          "type": "uint256"
        }
      ],
      "stateMutability": "view",
      "type": "function"
    },
    {
      "inputs": [],
      "name": "qtyTokenToSwap",
      "outputs": [
        {
          "internalType": "uint256",
          "name": "",
          "type": "uint256"
        }
      ],
      "stateMutability": "view",
      "type": "function"
    },
    {
      "inputs": [
        {
          "internalType": "address",
          "name": "toRemove",
          "type": "address"
        }
      ],
      "name": "removeBlacklistedAddress",
      "outputs": [],
      "stateMutability": "nonpayable",
      "type": "function"
    },
    {
      "inputs": [],
      "name": "renounceOwnership",
      "outputs": [],
      "stateMutability": "nonpayable",
      "type": "function"
    },
    {
      "inputs": [
        {
          "internalType": "address",
          "name": "tknAddress",
          "type": "address"
        }
      ],
      "name": "rescueTokens",
      "outputs": [],
      "stateMutability": "nonpayable",
      "type": "function"
    },
    {
      "inputs": [],
      "name": "sellLimit",
      "outputs": [
        {
          "internalType": "uint256",
          "name": "",
          "type": "uint256"
        }
      ],
      "stateMutability": "view",
      "type": "function"
    },
    {
      "inputs": [],
      "name": "sellLockDisabled",
      "outputs": [
        {
          "internalType": "bool",
          "name": "",
          "type": "bool"
        }
      ],
      "stateMutability": "view",
      "type": "function"
    },
    {
      "inputs": [],
      "name": "sellLockTime",
      "outputs": [
        {
          "internalType": "uint256",
          "name": "",
          "type": "uint256"
        }
      ],
      "stateMutability": "view",
      "type": "function"
    },
    {
      "inputs": [
        {
          "internalType": "bool",
          "name": "isBlacklistEnabled",
          "type": "bool"
        }
      ],
      "name": "setBlacklistEnabled",
      "outputs": [],
      "stateMutability": "nonpayable",
      "type": "function"
    },
    {
      "inputs": [
        {
          "internalType": "address",
          "name": "toBlacklist",
          "type": "address"
        }
      ],
      "name": "setBlacklistedAddress",
      "outputs": [],
      "stateMutability": "nonpayable",
      "type": "function"
    },
    {
      "inputs": [
        {
          "internalType": "address",
          "name": "newRouter",
          "type": "address"
        }
      ],
      "name": "setRouterAddress",
      "outputs": [],
      "stateMutability": "nonpayable",
      "type": "function"
    },
    {
      "inputs": [],
      "name": "symbol",
      "outputs": [
        {
          "internalType": "string",
          "name": "",
          "type": "string"
        }
      ],
      "stateMutability": "pure",
      "type": "function"
    },
    {
      "inputs": [],
      "name": "totalLPETH",
      "outputs": [
        {
          "internalType": "uint256",
          "name": "",
          "type": "uint256"
        }
      ],
      "stateMutability": "view",
      "type": "function"
    },
    {
      "inputs": [],
      "name": "totalPayouts",
      "outputs": [
        {
          "internalType": "uint256",
          "name": "",
          "type": "uint256"
        }
      ],
      "stateMutability": "view",
      "type": "function"
    },
    {
      "inputs": [],
      "name": "totalStakingReward",
      "outputs": [
        {
          "internalType": "uint256",
          "name": "",
          "type": "uint256"
        }
      ],
      "stateMutability": "view",
      "type": "function"
    },
    {
      "inputs": [],
      "name": "totalSupply",
      "outputs": [
        {
          "internalType": "uint256",
          "name": "",
          "type": "uint256"
        }
      ],
      "stateMutability": "view",
      "type": "function"
    },
    {
      "inputs": [],
      "name": "tradingEnabled",
      "outputs": [
        {
          "internalType": "bool",
          "name": "",
          "type": "bool"
        }
      ],
      "stateMutability": "view",
      "type": "function"
    },
    {
      "inputs": [
        {
          "internalType": "address",
          "name": "recipient",
          "type": "address"
        },
        {
          "internalType": "uint256",
          "name": "amount",
          "type": "uint256"
        }
      ],
      "name": "transfer",
      "outputs": [
        {
          "internalType": "bool",
          "name": "",
          "type": "bool"
        }
      ],
      "stateMutability": "nonpayable",
      "type": "function"
    },
    {
      "inputs": [
        {
          "internalType": "address",
          "name": "sender",
          "type": "address"
        },
        {
          "internalType": "address",
          "name": "recipient",
          "type": "address"
        },
        {
          "internalType": "uint256",
          "name": "amount",
          "type": "uint256"
        }
      ],
      "name": "transferFrom",
      "outputs": [
        {
          "internalType": "bool",
          "name": "",
          "type": "bool"
        }
      ],
      "stateMutability": "nonpayable",
      "type": "function"
    },
    {
      "inputs": [
        {
          "internalType": "address",
          "name": "newOwner",
          "type": "address"
        }
      ],
      "name": "transferOwnership",
      "outputs": [],
      "stateMutability": "nonpayable",
      "type": "function"
    },
    {
      "inputs": [],
      "name": "whiteListTrading",
      "outputs": [
        {
          "internalType": "bool",
          "name": "",
          "type": "bool"
        }
      ],
      "stateMutability": "view",
      "type": "function"
    },
    {
      "stateMutability": "payable",
      "type": "receive"
    }
  ],
  "bytecode": "0x6080604052600480546001600160a01b031916736725f303b657a9451d8ba641348b6761a6cc7a17179055600e805460ff19166001179055620000456009600a6200047a565b620000599067016345785d8a000062000567565b600f55600f54601055600f546011556064601154600a6200007b919062000567565b6200008791906200040c565b6012556013805461ffff19169055601154606490620000a890600a62000567565b620000b491906200040c565b6014556015805461ffff19169055601a805460ff1916600a179055348015620000dc57600080fd5b50600080546001600160a01b031916339081178255604051909182917f8be0079c531659141344cd1fd0a4f28419497f9722a3daafe3b4186f6b6457e0908290a3506000600a600f54600962000133919062000567565b6200013f91906200040c565b33600081815260016020526040808220849055519293509091600080516020620053d5833981519152906200017690859062000403565b60405180910390a3600081600f5462000190919062000589565b30600081815260016020526040808220849055519293509091600080516020620053d583398151915290620001c790859062000403565b60405180910390a36032620001df6009600a6200047a565b620001f39067016345785d8a000062000567565b620001ff91906200040c565b6010556064620002126009600a6200047a565b620002269067016345785d8a000062000567565b6200023291906200040c565b601155600260209081556015805462ff00001916621400001763ff000000191663140000001760ff60201b19166414000000001760ff60281b1916650300000000001760ff60301b191666140000000000001760ff60381b1916674d00000000000000179055620002c590600590735b38da6a701c568545dcfcb03fcb875f56beddc4906200037c811b62002a6017901c565b50620002e13360056200037c60201b62002a601790919060201c565b506016546200030890600b906001600160a01b03166200037c602090811b62002a6017901c565b5062000339601560089054906101000a90046001600160a01b0316600b6200037c60201b62002a601790919060201c565b506200035530600b6200037c60201b62002a601790919060201c565b506200037361dead600b6200037c60201b62002a601790919060201c565b505050620005b9565b600062000393836001600160a01b0384166200039c565b90505b92915050565b6000620003aa8383620003eb565b620003e25750815460018181018455600084815260208082209093018490558454848252828601909352604090209190915562000396565b50600062000396565b60009081526001919091016020526040902054151590565b90815260200190565b6000826200042857634e487b7160e01b81526012600452602481fd5b500490565b80825b600180861162000441575062000471565b818704821115620004565762000456620005a3565b808616156200046457918102915b9490941c93800262000430565b94509492505050565b60006200039360001960ff851684600082620004995750600162000560565b81620004a85750600062000560565b8160018114620004c15760028114620004cc5762000500565b600191505062000560565b60ff841115620004e057620004e0620005a3565b6001841b915084821115620004f957620004f9620005a3565b5062000560565b5060208310610133831016604e8410600b841016171562000538575081810a83811115620005325762000532620005a3565b62000560565b6200054784848460016200042d565b8086048211156200055c576200055c620005a3565b0290505b9392505050565b6000816000190483118215151615620005845762000584620005a3565b500290565b6000828210156200059e576200059e620005a3565b500390565b634e487b7160e01b600052601160045260246000fd5b614e0c80620005c96000396000f3fe6080604052600436106104ce5760003560e01c80636f89e40911610276578063b76289b81161014f578063dff6bcbf116100c1578063f00df36511610085578063f00df36514610daa578063f04e841114610dbf578063f2fde38b14610ddf578063f88b0e4614610dff578063f9963ca114610e14578063fef667b714610e34576104d5565b8063dff6bcbf14610d20578063e69e03ee14610d40578063e77bf5f814610d55578063e8d834a614610d75578063eb8e886314610d95576104d5565b8063ce7de67611610113578063ce7de67614610c6b578063d51f383b14610c8b578063d63607d814610cab578063d8e8de3414610cc0578063da1144d614610ce0578063dd62ed3e14610d00576104d5565b8063b76289b814610bec578063bb733d4e14610c0c578063c3a3c03214610c21578063c3f4f54f14610c36578063caaa8d8d14610c4b576104d5565b806386d0ada8116101e85780638da5cb5b116101ac5780638da5cb5b14610b4257806395d89b4114610b575780639fa62d5f14610b6c578063a20623ce14610b8c578063a457c2d714610bac578063a9059cbb14610bcc576104d5565b806386d0ada814610ace5780638724cc7214610ae35780638728ecd114610af8578063887c60fb14610b18578063893d20e814610b2d576104d5565b806373ddf08e1161023a57806373ddf08e14610a3a578063762bb28214610a5a5780637b9e987a14610a6f578063852147f714610a845780638607ae3e14610aa45780638650e92a14610ab9576104d5565b80636f89e409146109ad57806370a08231146109d0578063715018a6146109f057806371ab1f0914610a055780637335307b14610a1a576104d5565b80633328b721116103a857806349bdf8731161031a57806357ad67d1116102de57806357ad67d11461090e578063588aeaf21461092e57806358c4abaa1461094e57806358e5536514610963578063677a88701461097857806369c94a541461098d576104d5565b806349bdf8731461089a5780634ada218b146108af5780634cbf8e24146108c45780634cdaf0ae146108d95780634f91e48c146108f9576104d5565b80633cc39b7a1161036c5780633cc39b7a146107fb5780633d8dbf5d146108105780634089b1701461083057806341cb87fc146108455780634634d81c1461086557806348e5316414610885576104d5565b80633328b7211461077c5780633478154b1461079c578063363977c5146107b157806339509351146107c65780633c7a309b146107e6576104d5565b806318160ddd11610441578063243b529a11610405578063243b529a146106d657806325ed82c7146106eb5780632973ef2d1461070b5780632c889d1814610732578063311a869714610752578063313ce56714610767576104d5565b806318160ddd1461064a5780631eb25d131461065f578063230ffc4214610674578063239297b51461069657806323b872dd146106b6576104d5565b80630d54c1d8116104935780630d54c1d8146105915780630fd99e16146105b15780631193c691146105d35780631201cbd0146105e85780631285073c1461060857806314e913771461062a576104d5565b8062ae3bf8146104d757806306fdde03146104f757806309218ee714610522578063095ea7b3146105445780630b1daa3e14610571576104d5565b366104d557005b005b3480156104e357600080fd5b506104d56104f23660046140ae565b610e54565b34801561050357600080fd5b5061050c610fab565b60405161051991906144dd565b60405180910390f35b34801561052e57600080fd5b5061053761103e565b6040516105199190614b55565b34801561055057600080fd5b5061056461055f36600461415e565b611047565b604051610519919061449d565b34801561057d57600080fd5b506104d561058c3660046140ae565b61105e565b34801561059d57600080fd5b506104d56105ac3660046140ae565b611092565b3480156105bd57600080fd5b506105c661109f565b6040516105199190614ab4565b3480156105df57600080fd5b506104d56110a4565b3480156105f457600080fd5b506104d561060336600461424a565b61110b565b34801561061457600080fd5b5061061d611143565b6040516105199190614ac3565b34801561063657600080fd5b506104d561064536600461424a565b611149565b34801561065657600080fd5b5061061d611188565b34801561066b57600080fd5b5061061d61118e565b34801561068057600080fd5b506106896111af565b604051610519919061441b565b3480156106a257600080fd5b506104d56106b1366004614282565b6111c7565b3480156106c257600080fd5b506105646106d136600461411e565b61122f565b3480156106e257600080fd5b506104d56112a1565b3480156106f757600080fd5b506104d561070636600461424a565b6112e0565b34801561071757600080fd5b5061072061131f565b60405161051996959493929190614b2d565b34801561073e57600080fd5b506104d561074d366004614282565b611365565b34801561075e57600080fd5b5061053761139c565b34801561077357600080fd5b506105376113a1565b34801561078857600080fd5b506104d56107973660046140ae565b6113a6565b3480156107a857600080fd5b506105c66113ec565b3480156107bd57600080fd5b506104d56113f1565b3480156107d257600080fd5b506105646107e136600461415e565b6114aa565b3480156107f257600080fd5b506104d56114e1565b34801561080757600080fd5b5061061d61171d565b34801561081c57600080fd5b506104d561082b3660046140ae565b611723565b34801561083c57600080fd5b5061061d61176c565b34801561085157600080fd5b506104d56108603660046140ae565b611772565b34801561087157600080fd5b5061061d6108803660046140ae565b611aef565b34801561089157600080fd5b506104d5611b52565b3480156108a657600080fd5b50610564611b71565b3480156108bb57600080fd5b50610564611b7a565b3480156108d057600080fd5b506104d5611b88565b3480156108e557600080fd5b506104d56108f43660046140ae565b611c2a565b34801561090557600080fd5b5061061d611c7b565b34801561091a57600080fd5b506104d561092936600461431a565b611c81565b34801561093a57600080fd5b506104d56109493660046140ae565b611dbb565b34801561095a57600080fd5b506104d5611deb565b34801561096f57600080fd5b5061061d611e02565b34801561098457600080fd5b50610689611e08565b34801561099957600080fd5b506104d56109a836600461424a565b611e20565b3480156109b957600080fd5b506109c2611e5f565b604051610519929190614b1f565b3480156109dc57600080fd5b5061061d6109eb3660046140ae565b611e9c565b3480156109fc57600080fd5b506104d5611eb7565b348015610a1157600080fd5b50610564611f30565b348015610a2657600080fd5b50610564610a353660046140ae565b611f3f565b348015610a4657600080fd5b506104d5610a55366004614300565b611f4c565b348015610a6657600080fd5b5061061d611f98565b348015610a7b57600080fd5b506104d5611f9e565b348015610a9057600080fd5b506104d5610a9f3660046140ae565b611ff9565b348015610ab057600080fd5b506104d561207e565b348015610ac557600080fd5b5061061d6120d4565b348015610ada57600080fd5b506105646120da565b348015610aef57600080fd5b506105c661139c565b348015610b0457600080fd5b5061061d610b133660046140ae565b6120e3565b348015610b2457600080fd5b50610564612117565b348015610b3957600080fd5b50610689612125565b348015610b4e57600080fd5b50610689612134565b348015610b6357600080fd5b5061050c612143565b348015610b7857600080fd5b506104d5610b873660046142b2565b612162565b348015610b9857600080fd5b50610564610ba73660046140ae565b61224b565b348015610bb857600080fd5b50610564610bc736600461415e565b612260565b348015610bd857600080fd5b50610564610be736600461415e565b6122bd565b348015610bf857600080fd5b506104d5610c073660046140ae565b6122ca565b348015610c1857600080fd5b5061061d6122fa565b348015610c2d57600080fd5b5061061d612300565b348015610c4257600080fd5b5061061d612327565b348015610c5757600080fd5b506104d5610c66366004614282565b61236a565b348015610c7757600080fd5b506104d5610c863660046140ae565b6123dc565b348015610c9757600080fd5b506104d5610ca6366004614282565b6124a4565b348015610cb757600080fd5b506104d56124ef565b348015610ccc57600080fd5b50610564610cdb3660046140ae565b612523565b348015610cec57600080fd5b506104d5610cfb366004614189565b612530565b348015610d0c57600080fd5b5061061d610d1b3660046140e6565b6125af565b348015610d2c57600080fd5b506104d5610d3b3660046140ae565b6125da565b348015610d4c57600080fd5b5061061d61260a565b348015610d6157600080fd5b506104d5610d703660046140ae565b612670565b348015610d8157600080fd5b506104d5610d9036600461424a565b6126a0565b348015610da157600080fd5b506105376128ff565b348015610db657600080fd5b5061061d612904565b348015610dcb57600080fd5b506104d5610dda36600461424a565b61290a565b348015610deb57600080fd5b506104d5610dfa3660046140ae565b612942565b348015610e0b57600080fd5b5061061d6129f2565b348015610e2057600080fd5b506104d5610e2f3660046140ae565b6129f8565b348015610e4057600080fd5b506104d5610e4f36600461424a565b612a28565b610e5d33612a75565b610e825760405162461bcd60e51b8152600401610e79906148df565b60405180910390fd5b6040516370a0823160e01b815281906000906001600160a01b038316906370a0823190610eb390309060040161441b565b60206040518083038186803b158015610ecb57600080fd5b505afa158015610edf573d6000803e3d6000fd5b505050506040513d601f19601f82011682018060405250810190610f03919061429a565b905060008111610f255760405162461bcd60e51b8152600401610e799061490b565b60405163a9059cbb60e01b81526001600160a01b0383169063a9059cbb90610f539033908590600401614449565b602060405180830381600087803b158015610f6d57600080fd5b505af1158015610f81573d6000803e3d6000fd5b505050506040513d601f19601f82011682018060405250810190610fa59190614266565b50505050565b60606110136040518060400160405280601a81526020017f54686973206973206e616d65206f6620636f6e7472616374203a0000000000008152506040518060400160405280600f81526020016e5469676572204d756c74696661726d60881b815250612ae3565b5060408051808201909152600f81526e5469676572204d756c74696661726d60881b60208201525b90565b601a5460ff1681565b6000611054338484612b28565b5060015b92915050565b61106733612a75565b6110835760405162461bcd60e51b8152600401610e79906148df565b61108e600982612bdc565b5050565b61109c3382612bf1565b50565b606481565b6110ad33612a75565b6110c95760405162461bcd60e51b8152600401610e79906148df565b602154610100900460ff16156110de57600080fd5b6021805462ff00001961ff0019909116610100171662010000179055611106610e1042614b63565b602255565b61111433612a75565b6111305760405162461bcd60e51b8152600401610e79906148df565b600e805460ff1916911515919091179055565b60205490565b61115233612a75565b61116e5760405162461bcd60e51b8152600401610e79906148df565b601f80549115156101000261ff0019909216919091179055565b600f5490565b61119a6009600a614c06565b6111ac9067016345785d8a0000614cd7565b81565b73ab8483f64d9c6d1ecf9b849ae677dd3315835cb281565b6111d033612a75565b6111ec5760405162461bcd60e51b8152600401610e79906148df565b6001811180156111ff57506305f5e10081105b61121b5760405162461bcd60e51b8152600401610e7990614942565b61122981633b9aca00614cd7565b60145550565b600061123c848484612ec1565b6001600160a01b0384166000908152600260209081526040808320338452909152902054828110156112805760405162461bcd60e51b8152600401610e79906146f7565b611294853361128f8685614cf6565b612b28565b60019150505b9392505050565b6112aa33612a75565b6112c65760405162461bcd60e51b8152600401610e79906148df565b6112de6e2527a7cbd749423f3d225f7c815819613193565b565b6112e933612a75565b6113055760405162461bcd60e51b8152600401610e79906148df565b601380549115156101000261ff0019909216919091179055565b60155460ff650100000000008204811692600160301b8304821692600160381b810483169262010000820481169263010000008304821692640100000000900490911690565b61136e33612a75565b61138a5760405162461bcd60e51b8152600401610e79906148df565b61109c6113974283614b63565b613401565b603281565b600990565b6113af33612a75565b6113cb5760405162461bcd60e51b8152600401610e79906148df565b6001600160a01b03166000908152600d60205260409020805460ff19169055565b600a81565b6113fa33612a75565b6114165760405162461bcd60e51b8152600401610e79906148df565b601b8054600091829055604051909190735b38da6a701c568545dcfcb03fcb875f56beddc49083906114479061103b565b60006040518083038185875af1925050503d8060008114611484576040519150601f19603f3d011682016040523d82523d6000602084013e611489565b606091505b505090508061108e5760405162461bcd60e51b8152600401610e7990614a02565b3360008181526002602090815260408083206001600160a01b0387168452909152812054909161105491859061128f908690614b63565b6114ea33612a75565b6115065760405162461bcd60e51b8152600401610e79906148df565b6022544210156115285760405162461bcd60e51b8152600401610e79906145b0565b6021546040516370a0823160e01b815263010000009091046001600160a01b03169060009082906370a082319061156390309060040161441b565b60206040518083038186803b15801561157b57600080fd5b505afa15801561158f573d6000803e3d6000fd5b505050506040513d601f19601f820116820180604052508101906115b3919061429a565b60235490915060ff1615611684576115cd610e1042614b63565b602255600a6115dd826002614cd7565b6115e79190614ba0565b60405163a9059cbb60e01b81529091506001600160a01b0383169063a9059cbb9061162c90735b38da6a701c568545dcfcb03fcb875f56beddc4908590600401614449565b602060405180830381600087803b15801561164657600080fd5b505af115801561165a573d6000803e3d6000fd5b505050506040513d601f19601f8201168201806040525081019061167e9190614266565b5061108e565b60405163a9059cbb60e01b81526001600160a01b0383169063a9059cbb906116c690735b38da6a701c568545dcfcb03fcb875f56beddc4908590600401614449565b602060405180830381600087803b1580156116e057600080fd5b505af11580156116f4573d6000803e3d6000fd5b505050506040513d601f19601f820116820180604052508101906117189190614266565b505050565b601e5481565b61172c33612a75565b6117485760405162461bcd60e51b8152600401610e79906148df565b6001600160a01b03166000908152600d60205260409020805460ff19166001179055565b60195481565b3361177b612134565b6001600160a01b0316146117a15760405162461bcd60e51b8152600401610e7990614873565b60008190506000816001600160a01b031663c45a01556040518163ffffffff1660e01b815260040160206040518083038186803b1580156117e157600080fd5b505afa1580156117f5573d6000803e3d6000fd5b505050506040513d601f19601f8201168201806040525081019061181991906140ca565b6001600160a01b031663e6a4390530846001600160a01b031663ad5c46486040518163ffffffff1660e01b815260040160206040518083038186803b15801561186157600080fd5b505afa158015611875573d6000803e3d6000fd5b505050506040513d601f19601f8201168201806040525081019061189991906140ca565b6040518363ffffffff1660e01b81526004016118b692919061442f565b60206040518083038186803b1580156118ce57600080fd5b505afa1580156118e2573d6000803e3d6000fd5b505050506040513d601f19601f8201168201806040525081019061190691906140ca565b90506001600160a01b038116611aa157816001600160a01b031663c45a01556040518163ffffffff1660e01b815260040160206040518083038186803b15801561194f57600080fd5b505afa158015611963573d6000803e3d6000fd5b505050506040513d601f19601f8201168201806040525081019061198791906140ca565b6001600160a01b031663c9c6539630846001600160a01b031663ad5c46486040518163ffffffff1660e01b815260040160206040518083038186803b1580156119cf57600080fd5b505afa1580156119e3573d6000803e3d6000fd5b505050506040513d601f19601f82011682018060405250810190611a0791906140ca565b6040518363ffffffff1660e01b8152600401611a2492919061442f565b602060405180830381600087803b158015611a3e57600080fd5b505af1158015611a52573d6000803e3d6000fd5b505050506040513d601f19601f82011682018060405250810190611a7691906140ca565b601560086101000a8154816001600160a01b0302191690836001600160a01b03160217905550611acb565b6015805468010000000000000000600160e01b031916600160401b6001600160a01b038416021790555b50601680546001600160a01b0319166001600160a01b039290921691909117905550565b6000611afa82611f3f565b15611b1e57506001600160a01b0381166000908152601d6020526040902054611b4d565b6001600160a01b0382166000908152601d6020526040902054611b408361340f565b611b4a9190614b63565b90505b919050565b602054611b5f9042614b63565b33600090815260036020526040902055565b60235460ff1681565b602154610100900460ff1681565b611b9133612a75565b611bad5760405162461bcd60e51b8152600401610e79906148df565b6000735b38da6a701c568545dcfcb03fcb875f56beddc46001600160a01b031647604051611bda9061103b565b60006040518083038185875af1925050503d8060008114611c17576040519150601f19603f3d011682016040523d82523d6000602084013e611c1c565b606091505b505090508061109c57600080fd5b611c3333612a75565b611c4f5760405162461bcd60e51b8152600401610e79906148df565b602180546001600160a01b039092166301000000026301000000600160b81b0319909216919091179055565b60115481565b611c8a33612a75565b611ca65760405162461bcd60e51b8152600401610e79906148df565b600084611cb38789614b7b565b611cbd9190614b7b565b90508060ff16606414611ce25760405162461bcd60e51b8152600401610e79906147bc565b601460ff851611801590611cfa5750601460ff841611155b8015611d0a5750601460ff831611155b611d265760405162461bcd60e51b8152600401610e7990614979565b506015805465ff000000000019166501000000000060ff988916021766ff0000000000001916600160301b968816969096029590951767ff000000000000001916600160381b948716949094029390931762ff0000191662010000928616929092029190911763ff00000019166301000000918516919091021764ff0000000019166401000000009190931602919091179055565b611dc433612a75565b611de05760405162461bcd60e51b8152600401610e79906148df565b61108e600582612a60565b6004546112de9033906001600160a01b0316612bf1565b601b5481565b735b38da6a701c568545dcfcb03fcb875f56beddc481565b611e2933612a75565b611e455760405162461bcd60e51b8152600401610e79906148df565b601580549115156101000261ff0019909216919091179055565b600080611e6e6009600a614c06565b601054611e7b9190614ba0565b611e876009600a614c06565b601154611e949190614ba0565b915091509091565b6001600160a01b031660009081526001602052604090205490565b33611ec0612134565b6001600160a01b031614611ee65760405162461bcd60e51b8152600401610e7990614873565b600080546040516001600160a01b03909116907f8be0079c531659141344cd1fd0a4f28419497f9722a3daafe3b4186f6b6457e0908390a3600080546001600160a01b0319169055565b60215462010000900460ff1681565b6000611b4a600b83613496565b611f5533612a75565b611f715760405162461bcd60e51b8152600401610e79906148df565b605a8160ff161115611f8257600080fd5b601a805460ff191660ff92909216919091179055565b60105481565b611fa733612a75565b611fc35760405162461bcd60e51b8152600401610e79906148df565b602154610100900460ff168015611fe2575060215462010000900460ff165b611feb57600080fd5b6021805462ff000019169055565b61200233612a75565b61201e5760405162461bcd60e51b8152600401610e79906148df565b61202781611f3f565b61203057600080fd5b61203b600b82612bdc565b506017546001600160a01b0382166000908152600160205260409020546120629190614cd7565b6001600160a01b039091166000908152601c6020526040902055565b61208733612a75565b6120a35760405162461bcd60e51b8152600401610e79906148df565b6015805460ff191660011790556120c86e2527a7cbd749423f3d225f7c815819613193565b6015805460ff19169055565b60175481565b60215460ff1681565b6001600160a01b03811660009081526003602052604081205442811161210d576000915050611b4d565b61129a4282614cf6565b601f54610100900460ff1681565b600061212f612134565b905090565b6000546001600160a01b031690565b6040805180820190915260058152642a34b3b2b960d91b602082015290565b61216b33612a75565b6121875760405162461bcd60e51b8152600401610e79906148df565b6032600f546121969190614ba0565b81106121a157600080fd5b6121ad6009600a614c06565b6121b79083614cd7565b91506121c56009600a614c06565b6121cf9082614cd7565b90506000603260ff16600f546121e59190614ba0565b90506000606461ffff16600f546121fc9190614ba0565b90508184101561221e5760405162461bcd60e51b8152600401610e7990614657565b8083101561223e5760405162461bcd60e51b8152600401610e799061482b565b5050601091909155601155565b600d6020526000908152604090205460ff1681565b3360009081526002602090815260408083206001600160a01b0386168452909152812054828110156122a45760405162461bcd60e51b8152600401610e7990614a62565b6122b3338561128f8685614cf6565b5060019392505050565b6000611054338484612ec1565b6122d333612a75565b6122ef5760405162461bcd60e51b8152600401610e79906148df565b61108e600782612a60565b60125481565b6000602254421015612321574260225461231a9190614cf6565b905061103b565b50600090565b60006123356009600a614c06565b600f546123446009600a614c06565b6123569067016345785d8a0000614cd7565b6123609190614cf6565b61212f9190614ba0565b61237333612a75565b61238f5760405162461bcd60e51b8152600401610e79906148df565b601b5481111561239e57600080fd5b80601b60008282546123b09190614cf6565b9091555050604051600090735b38da6a701c568545dcfcb03fcb875f56beddc49083906114479061103b565b6123e533612a75565b6124015760405162461bcd60e51b8152600401610e79906148df565b601e61240d600b6134ab565b1061241757600080fd5b61242081611f3f565b1561242a57600080fd5b60006124358261340f565b6017546001600160a01b03841660009081526001602052604090205491925061245d91614cd7565b6001600160a01b0383166000908152601c6020908152604080832093909355601d90529081208054839290612493908490614b63565b909155506117189050600b83612a60565b6124ad33612a75565b6124c95760405162461bcd60e51b8152600401610e79906148df565b600a8111156124ea5760405162461bcd60e51b8152600401610e7990614a2b565b602055565b6124f833612a75565b6125145760405162461bcd60e51b8152600401610e79906148df565b6023805460ff19166001179055565b6000611b4a600783613496565b61253933612a75565b6125555760405162461bcd60e51b8152600401610e79906148df565b60005b815181101561108e5761259c82828151811061258457634e487b7160e01b600052603260045260246000fd5b60200260200101516007612a6090919063ffffffff16565b50806125a781614d0d565b915050612558565b6001600160a01b03918216600090815260026020908152604080832093909416825291909152205490565b6125e333612a75565b6125ff5760405162461bcd60e51b8152600401610e79906148df565b61108e600582612bdc565b600f54600090815b61261c600b6134ab565b81101561266a5760016000612632600b846134b6565b6001600160a01b031681526020810191909152604001600020546126569083614cf6565b91508061266281614d0d565b915050612612565b50905090565b61267933612a75565b6126955760405162461bcd60e51b8152600401610e79906148df565b61108e600782612bdc565b6126a933612a75565b6126c55760405162461bcd60e51b8152600401610e79906148df565b6022544210156126e75760405162461bcd60e51b8152600401610e79906145b0565b6126f3610e1042614b63565b6022556021546040516370a0823160e01b815263010000009091046001600160a01b03169060009082906370a082319061273190309060040161441b565b60206040518083038186803b15801561274957600080fd5b505afa15801561275d573d6000803e3d6000fd5b505050506040513d601f19601f82011682018060405250810190612781919061429a565b60235490915060ff16156127a957600a61279c826002614cd7565b6127a69190614ba0565b90505b60165460405163095ea7b360e01b81526001600160a01b038481169263095ea7b3926127dd92909116908590600401614449565b602060405180830381600087803b1580156127f757600080fd5b505af115801561280b573d6000803e3d6000fd5b505050506040513d601f19601f8201168201806040525081019061282f9190614266565b5060165460405163af2979eb60e01b815247916001600160a01b03169063af2979eb9061286b9030908690600090819084904290600401614462565b602060405180830381600087803b15801561288557600080fd5b505af1158015612899573d6000803e3d6000fd5b505050506040513d601f19601f820116820180604052508101906128bd919061429a565b5060006128ca8247614cf6565b905084156128e0576128db816134c2565b6128f8565b80601b60008282546128f29190614b63565b90915550505b5050505050565b601481565b60185481565b61291333612a75565b61292f5760405162461bcd60e51b8152600401610e79906148df565b6013805460ff1916911515919091179055565b3361294b612134565b6001600160a01b0316146129715760405162461bcd60e51b8152600401610e7990614873565b6001600160a01b0381166129975760405162461bcd60e51b8152600401610e7990614611565b600080546040516001600160a01b03808516939216917f8be0079c531659141344cd1fd0a4f28419497f9722a3daafe3b4186f6b6457e091a3600080546001600160a01b0319166001600160a01b0392909216919091179055565b60205481565b612a0133612a75565b612a1d5760405162461bcd60e51b8152600401610e79906148df565b61108e600982612a60565b612a3133612a75565b612a4d5760405162461bcd60e51b8152600401610e79906148df565b6021805460ff1916911515919091179055565b600061129a836001600160a01b03841661358a565b6000612a7f612134565b6001600160a01b0316826001600160a01b03161480612aba57506001600160a01b038216735b38da6a701c568545dcfcb03fcb875f56beddc4145b80611b4a5750506001600160a01b031673ab8483f64d9c6d1ecf9b849ae677dd3315835cb21490565b61108e8282604051602401612af9929190614514565b60408051601f198184030181529190526020810180516001600160e01b0316634b5c427760e01b1790526135d4565b6001600160a01b038316612b4e5760405162461bcd60e51b8152600401610e79906146a2565b6001600160a01b038216612b745760405162461bcd60e51b8152600401610e7990614802565b6001600160a01b0380841660008181526002602090815260408083209487168084529490915290819020849055517f8c5be1e5ebec7d5bd14f71427d1e84f3dd0314c0f7b2291e5b200ac8c7c3b92590612bcf908590614ac3565b60405180910390a3505050565b600061129a836001600160a01b0384166135f5565b601654600160a01b900460ff1615612c0857600080fd5b6016805460ff60a01b1916600160a01b1790556000612c2683611f3f565b15612c4e57506001600160a01b0382166000908152601d602052604081208054919055612cce565b6000612c598461340f565b6001600160a01b038516600090815260016020526040902054601754919250612c8191614cd7565b6001600160a01b0385166000908152601c6020908152604080832093909355601d90522054612cb1908290614b63565b6001600160a01b0385166000908152601d60205260408120559150505b80612ce657506016805460ff60a01b1916905561108e565b8060196000828254612cf89190614b63565b90915550506040805160028082526060820183526000926020830190803683375050601654604080516315ab88c960e31b815290519394506001600160a01b039091169263ad5c464892506004808301926020929190829003018186803b158015612d6257600080fd5b505afa158015612d76573d6000803e3d6000fd5b505050506040513d601f19601f82011682018060405250810190612d9a91906140ca565b81600081518110612dbb57634e487b7160e01b600052603260045260246000fd5b60200260200101906001600160a01b031690816001600160a01b0316815250508281600181518110612dfd57634e487b7160e01b600052603260045260246000fd5b6001600160a01b03928316602091820292909201015260165460405163b6f9de9560e01b815291169063b6f9de95908490612e439060009086908a9042906004016144a8565b6000604051808303818588803b158015612e5c57600080fd5b505af1158015612e70573d6000803e3d6000fd5b50505050507f460fc16181df188bd2ec645a6f6dbe15da259268704aabeb2a5b7c94427e71298285604051612ea6929190614acc565b60405180910390a150506016805460ff60a01b191690555050565b6001600160a01b038316612ee75760405162461bcd60e51b8152600401610e7990614584565b6001600160a01b038216612f0d5760405162461bcd60e51b8152600401610e79906146cd565b6000612f1a600585613496565b80612f2b5750612f2b600584613496565b9050612f4f6040518060600160405280603c8152602001614d78603c91398261370c565b60006001600160a01b038516301480612f7057506001600160a01b03841630145b9050612faa6040518060400160405280601681526020017534b99031b7b73a3930b1ba103a3930b739b332b9101d60511b8152508261370c565b6016546015546001600160a01b0391821691600091600160401b90048116908816148015612fe95750816001600160a01b0316866001600160a01b0316145b8061302457506015546001600160a01b03878116600160401b909204161480156130245750816001600160a01b0316876001600160a01b0316145b9050613048604051806060016040528060238152602001614db4602391398261370c565b6015546000906001600160a01b03898116600160401b90920416148061307f5750826001600160a01b0316886001600160a01b0316145b6015549091506000906001600160a01b03898116600160401b9092041614806130b95750836001600160a01b0316886001600160a01b0316145b90506130e560405180604001604052806008815260200167313abcb4b733901d60c11b8152508361370c565b6131106040518060400160405280600981526020016839b2b63634b733901d60b91b8152508261370c565b84806131195750825b806131215750855b1561313657613131898989613751565b613188565b602154610100900460ff1661315d5760405162461bcd60e51b8152600401610e79906148a8565b60215462010000900460ff161561317b5761313189898985856137ef565b6131888989898585613890565b505050505050505050565b601f805460ff1916600190811790915530600090815260209190915260408120546015549091906131d890600160381b810460ff90811691600160301b900416614b7b565b60ff16905060006064601154600a6131f09190614cd7565b6131fa9190614ba0565b60135490915060ff161561320d57506014545b601354610100900460ff168015613227575060135460ff16155b1561329257739ac64cc6e4415144c455bd8e4837fea55603e5c360005260016020527f0ff35b3c45b207dc53a17634d9a4dc2f4214a4649080c419fa119f08e9a2b8a254600f5460649161327a91614cf6565b613285906005614cd7565b61328f9190614ba0565b90505b601554610100900460ff166e2527a7cbd749423f3d225f7c8158198514156132c0576015805461ff00191690555b601554610100900460ff16156132e657848211156132e6576132e3600186614cf6565b91505b6015805461ff00191661010083151502179081905560ff16156133115761330e600185614cf6565b91505b81841080613321575061ffff8316155b1561332f57505050506133f4565b60155460009061ffff85169061334f90600160301b900460ff1685614cd7565b6133599190614ba0565b905060006133678285614cf6565b90506000613376600284614ba0565b905060006133848285614cf6565b905060006133928483614b63565b90504761339e82613c22565b60006133aa8247614cf6565b90506000836133b98684614cd7565b6133c39190614ba0565b90506133cf8682613da6565b60006133db8447614cf6565b90506133e6816134c2565b505050505050505050505050505b50601f805460ff19169055565b602254811161110657600080fd5b6001600160a01b038116600090815260016020526040812054601754829161343691614cd7565b6001600160a01b0384166000908152601c6020526040902054909150811015613463576000915050611b4d565b6001600160a01b0383166000908152601c6020526040902054600160401b9061348c9083614cf6565b61129a9190614ba0565b600061129a836001600160a01b038416613e64565b6000611b4a82613e7c565b600061129a8383613e80565b601a546000906064906134d89060ff1684614cd7565b6134e29190614ba0565b905060006134f08284614cf6565b905081601b60008282546135049190614b63565b909155505080156117185780601860008282546135219190614b63565b909155506000905061353161260a565b9050806135555781601b600082825461354a9190614b63565b90915550610fa59050565b80613564600160401b84614cd7565b61356e9190614ba0565b6017600082825461357f9190614b63565b909155505050505050565b60006135968383613e64565b6135cc57508154600181810184556000848152602080822090930184905584548482528286019093526040902091909155611058565b506000611058565b80516a636f6e736f6c652e6c6f67602083016000808483855afa5050505050565b60008181526001830160205260408120548015613702576000613619600183614cf6565b855490915060009061362d90600190614cf6565b9050600086600001828154811061365457634e487b7160e01b600052603260045260246000fd5b906000526020600020015490508087600001848154811061368557634e487b7160e01b600052603260045260246000fd5b6000918252602080832090910192909255828152600189019091526040902084905586548790806136c657634e487b7160e01b600052603160045260246000fd5b60019003818190600052602060002001600090559055866001016000878152602001908152602001600020600090556001945050505050611058565b6000915050611058565b61108e82826040516024016137229291906144f0565b60408051601f198184030181529190526020810180516001600160e01b031663c3b5563560e01b1790526135d4565b6001600160a01b0383166000908152600160205260409020548181101561378a5760405162461bcd60e51b8152600401610e79906145da565b6137948483613ed9565b61379e8383613f98565b826001600160a01b0316846001600160a01b03167fddf252ad1be2c89b69c2b068fc378daa952ba7f163c4a11628f55a4df523b3ef846040516137e19190614ac3565b60405180910390a350505050565b80613887576137ff600785613496565b61381b5760405162461bcd60e51b8152600401610e7990614785565b60326138296009600a614c06565b61383b9067016345785d8a0000614cd7565b6138459190614ba0565b6001600160a01b038516600090815260016020526040902054613869908590614b63565b11156138875760405162461bcd60e51b8152600401610e7990614725565b6128f885858585855b6001600160a01b03808516600090815260016020526040808220549288168252902054848110156138d35760405162461bcd60e51b8152600401610e79906145da565b600083156139c157600e5460ff161561390c576001600160a01b0388166000908152600d602052604090205460ff161561390c57600080fd5b613917600989613496565b61398c576001600160a01b038816600090815260036020526040902054421015806139495750601f54610100900460ff165b6139655760405162461bcd60e51b8152600401610e7990614a88565b6020546139729042614b63565b6001600160a01b0389166000908152600360205260409020555b6011548611156139ae5760405162461bcd60e51b8152600401610e799061475c565b506015546301000000900460ff16613ac1565b8415613a04576010546139d48785614b63565b11156139f25760405162461bcd60e51b8152600401610e79906149b0565b5060155462010000900460ff16613ac1565b613a106009600a614c06565b8611613a2d57600454613a2d9089906001600160a01b0316612bf1565b601054613a3a8785614b63565b1115613a585760405162461bcd60e51b8152600401610e79906149b0565b613a63600989613496565b613ab1576001600160a01b03881660009081526003602052604090205442101580613a955750601f54610100900460ff165b613ab15760405162461bcd60e51b8152600401610e79906149da565b50601554640100000000900460ff165b6015546001600160a01b03898116600160401b9092041614801590613ae9575060215460ff16155b8015613af85750601f5460ff16155b8015613b015750835b15613b0f57613b0f86613193565b6000613b2b8783601560059054906101000a900460ff1661405e565b601554909150600090613b5e9089908590613b599060ff600160301b8204811691600160381b900416614b7b565b61405e565b90506000613b6c8284614b63565b613b76908a614cf6565b9050613b828b8a613ed9565b3060009081526001602052604081208054849290613ba1908490614b63565b9250508190555082600f6000828254613bba9190614cf6565b90915550613bca90508a82613f98565b896001600160a01b03168b6001600160a01b03167fddf252ad1be2c89b69c2b068fc378daa952ba7f163c4a11628f55a4df523b3ef83604051613c0d9190614ac3565b60405180910390a35050505050505050505050565b601654613c3a9030906001600160a01b031683612b28565b6040805160028082526060820183526000926020830190803683370190505090503081600081518110613c7d57634e487b7160e01b600052603260045260246000fd5b6001600160a01b03928316602091820292909201810191909152601654604080516315ab88c960e31b81529051919093169263ad5c4648926004808301939192829003018186803b158015613cd157600080fd5b505afa158015613ce5573d6000803e3d6000fd5b505050506040513d601f19601f82011682018060405250810190613d0991906140ca565b81600181518110613d2a57634e487b7160e01b600052603260045260246000fd5b6001600160a01b03928316602091820292909201015260165460405163791ac94760e01b815291169063791ac94790613d70908590600090869030904290600401614ae3565b600060405180830381600087803b158015613d8a57600080fd5b505af1158015613d9e573d6000803e3d6000fd5b505050505050565b80601e6000828254613db89190614b63565b9091555050601654613dd59030906001600160a01b031684612b28565b60165460405163f305d71960e01b81526001600160a01b039091169063f305d719908390613e129030908790600090819084904290600401614462565b6060604051808303818588803b158015613e2b57600080fd5b505af1158015613e3f573d6000803e3d6000fd5b50505050506040513d601f19601f820116820180604052508101906128f891906142d3565b60009081526001919091016020526040902054151590565b5490565b81546000908210613ea35760405162461bcd60e51b8152600401610e7990614542565b826000018281548110613ec657634e487b7160e01b600052603260045260246000fd5b9060005260206000200154905092915050565b6001600160a01b038216600090815260016020526040812054613efd908390614cf6565b9050613f0883611f3f565b15613f2b576001600160a01b03831660009081526001602052604090205561108e565b6000613f368461340f565b6001600160a01b0385166000908152600160205260409020839055601754909150613f62908390614cd7565b6001600160a01b0385166000908152601c6020908152604080832093909355601d9052908120805483929061357f908490614b63565b6001600160a01b038216600090815260016020526040812054613fbc908390614b63565b9050613fc783611f3f565b15613fea576001600160a01b03831660009081526001602052604090205561108e565b6000613ff58461340f565b9050816017546140059190614cd7565b6001600160a01b0385166000908152601c6020908152604080832093909355601d9052908120805483929061403b908490614b63565b9091555050506001600160a01b0383166000908152600160205260409020555050565b60006127108260ff168460ff16866140769190614cd7565b6140809190614cd7565b61408a9190614ba0565b949350505050565b8035611b4d81614d54565b803560ff81168114611b4d57600080fd5b6000602082840312156140bf578081fd5b813561129a81614d54565b6000602082840312156140db578081fd5b815161129a81614d54565b600080604083850312156140f8578081fd5b823561410381614d54565b9150602083013561411381614d54565b809150509250929050565b600080600060608486031215614132578081fd5b833561413d81614d54565b9250602084013561414d81614d54565b929592945050506040919091013590565b60008060408385031215614170578182fd5b823561417b81614d54565b946020939093013593505050565b6000602080838503121561419b578182fd5b823567ffffffffffffffff808211156141b2578384fd5b818501915085601f8301126141c5578384fd5b8135818111156141d7576141d7614d3e565b838102604051858282010181811085821117156141f6576141f6614d3e565b604052828152858101935084860182860187018a1015614214578788fd5b8795505b8386101561423d5761422981614092565b855260019590950194938601938601614218565b5098975050505050505050565b60006020828403121561425b578081fd5b813561129a81614d69565b600060208284031215614277578081fd5b815161129a81614d69565b600060208284031215614293578081fd5b5035919050565b6000602082840312156142ab578081fd5b5051919050565b600080604083850312156142c4578182fd5b50508035926020909101359150565b6000806000606084860312156142e7578283fd5b8351925060208401519150604084015190509250925092565b600060208284031215614311578081fd5b61129a8261409d565b60008060008060008060c08789031215614332578182fd5b61433b8761409d565b95506143496020880161409d565b94506143576040880161409d565b93506143656060880161409d565b92506143736080880161409d565b915061438160a0880161409d565b90509295509295509295565b6000815180845260208085019450808401835b838110156143c55781516001600160a01b0316875295820195908201906001016143a0565b509495945050505050565b60008151808452815b818110156143f5576020818501810151868301820152016143d9565b818111156144065782602083870101525b50601f01601f19169290920160200192915050565b6001600160a01b0391909116815260200190565b6001600160a01b0392831681529116602082015260400190565b6001600160a01b03929092168252602082015260400190565b6001600160a01b039687168152602081019590955260408501939093526060840191909152909216608082015260a081019190915260c00190565b901515815260200190565b6000858252608060208301526144c1608083018661438d565b6001600160a01b03949094166040830152506060015292915050565b60006020825261129a60208301846143d0565b60006040825261450360408301856143d0565b905082151560208301529392505050565b60006040825261452760408301856143d0565b828103602084015261453981856143d0565b95945050505050565b60208082526022908201527f456e756d657261626c655365743a20696e646578206f7574206f6620626f756e604082015261647360f01b606082015260800190565b6020808252601290820152715472616e736665722066726f6d207a65726f60701b604082015260600190565b60208082526010908201526f139bdd081e595d081d5b9b1bd8dad95960821b604082015260600190565b60208082526018908201527f5472616e7366657220657863656564732062616c616e63650000000000000000604082015260600190565b60208082526026908201527f4f776e61626c653a206e6577206f776e657220697320746865207a65726f206160408201526564647265737360d01b606082015260800190565b6020808252602b908201527f6e657742616c616e63654c696d6974206e6565647320746f206265206174206c60408201526a19585cdd081d185c99d95d60aa1b606082015260800190565b602080825260119082015270417070726f76652066726f6d207a65726f60781b604082015260600190565b60208082526010908201526f5472616e7366657220746f207a65726f60801b604082015260600190565b6020808252601490820152735472616e73666572203e20616c6c6f77616e636560601b604082015260600190565b6020808252601c908201527f616d6f756e7420657863656564732077686974656c697374206d617800000000604082015260600190565b6020808252600f908201526e223ab6b810383937ba32b1ba34b7b760891b604082015260600190565b6020808252601a908201527f726563697069656e74206e6f74206f6e2077686974656c697374000000000000604082015260600190565b60208082526026908201527f6275726e2b6c69712b6d61726b6574696e67206e6565647320746f20657175616040820152656c203130302560d01b606082015260800190565b6020808252600f908201526e417070726f766520746f207a65726f60881b604082015260600190565b60208082526028908201527f6e657753656c6c4c696d6974206e6565647320746f206265206174206c6561736040820152671d081d185c99d95d60c21b606082015260800190565b6020808252818101527f4f776e61626c653a2063616c6c6572206973206e6f7420746865206f776e6572604082015260600190565b60208082526017908201527f74726164696e67206e6f742079657420656e61626c6564000000000000000000604082015260600190565b60208082526012908201527143616c6c6572206e6f7420696e205465616d60701b604082015260600190565b60208082526018908201527f4e6f20746f6b656e7320696e206f75722062616c616e63650000000000000000604082015260600190565b6020808252601e908201527f56616c756573206265747765656e203120616e64203130303030303030300000604082015260600190565b60208082526019908201527f746178657320686967686572207468616e206d61782074617800000000000000604082015260600190565b60208082526010908201526f3bb430b63290383937ba32b1ba34b7b760811b604082015260600190565b6020808252600e908201526d53656e64657220696e204c6f636b60901b604082015260600190565b6020808252600f908201526e1dda5d1a191c985dc819985a5b1959608a1b604082015260600190565b60208082526017908201527f53656c6c204c6f636b2074696d6520746f6f2068696768000000000000000000604082015260600190565b6020808252600c908201526b3c3020616c6c6f77616e636560a01b604082015260600190565b60208082526012908201527153656c6c657220696e2073656c6c4c6f636b60701b604082015260600190565b61ffff91909116815260200190565b90815260200190565b9182526001600160a01b0316602082015260400190565b600086825285602083015260a06040830152614b0260a083018661438d565b6001600160a01b0394909416606083015250608001529392505050565b918252602082015260400190565b958652602086019490945260408501929092526060840152608083015260a082015260c00190565b60ff91909116815260200190565b60008219821115614b7657614b76614d28565b500190565b600060ff821660ff84168060ff03821115614b9857614b98614d28565b019392505050565b600082614bbb57634e487b7160e01b81526012600452602481fd5b500490565b80825b6001808611614bd25750614bfd565b818704821115614be457614be4614d28565b80861615614bf157918102915b9490941c938002614bc3565b94509492505050565b600061129a60001960ff851684600082614c225750600161129a565b81614c2f5750600061129a565b8160018114614c455760028114614c4f57614c7c565b600191505061129a565b60ff841115614c6057614c60614d28565b6001841b915084821115614c7657614c76614d28565b5061129a565b5060208310610133831016604e8410600b8410161715614caf575081810a83811115614caa57614caa614d28565b61129a565b614cbc8484846001614bc0565b808604821115614cce57614cce614d28565b02949350505050565b6000816000190483118215151615614cf157614cf1614d28565b500290565b600082821015614d0857614d08614d28565b500390565b6000600019821415614d2157614d21614d28565b5060010190565b634e487b7160e01b600052601160045260246000fd5b634e487b7160e01b600052604160045260246000fd5b6001600160a01b038116811461109c57600080fd5b801515811461109c57600080fdfe4d616e75616c6c79204578636c7564656420616472657373657320617265207472616e73666572696e672074617820616e64206c6f636b20667265657472616e73666572206265747765656e20726f7574657220616e642070616e63616b65a2646970667358221220bdee77ffec20ff101a41e8d380191dca979e992aa9e44e76ec2636ee829cd64764736f6c63430008000033ddf252ad1be2c89b69c2b068fc378daa952ba7f163c4a11628f55a4df523b3ef",
  "linkReferences": {},
  "deployedLinkReferences": {}
}